{
  "_format": "hh-sol-artifact-1",
  "contractName": "RealEstateMarketplace",
  "sourceName": "contracts/RealEstateMarketplace.sol",
  "abi": [
    {
      "inputs": [],
      "stateMutability": "nonpayable",
      "type": "constructor"
    },
    {
      "anonymous": false,
      "inputs": [
        {
          "indexed": true,
          "internalType": "address",
          "name": "owner",
          "type": "address"
        },
        {
          "indexed": true,
          "internalType": "address",
          "name": "approved",
          "type": "address"
        },
        {
          "indexed": true,
          "internalType": "uint256",
          "name": "tokenId",
          "type": "uint256"
        }
      ],
      "name": "Approval",
      "type": "event"
    },
    {
      "anonymous": false,
      "inputs": [
        {
          "indexed": true,
          "internalType": "address",
          "name": "owner",
          "type": "address"
        },
        {
          "indexed": true,
          "internalType": "address",
          "name": "operator",
          "type": "address"
        },
        {
          "indexed": false,
          "internalType": "bool",
          "name": "approved",
          "type": "bool"
        }
      ],
      "name": "ApprovalForAll",
      "type": "event"
    },
    {
      "anonymous": false,
      "inputs": [
        {
          "indexed": true,
          "internalType": "uint256",
          "name": "tokenId",
          "type": "uint256"
        },
        {
          "indexed": false,
          "internalType": "address",
          "name": "seller",
          "type": "address"
        },
        {
          "indexed": false,
          "internalType": "address",
          "name": "owner",
          "type": "address"
        },
        {
          "indexed": false,
          "internalType": "uint256",
          "name": "price",
          "type": "uint256"
        },
        {
          "indexed": false,
          "internalType": "bool",
          "name": "sold",
          "type": "bool"
        }
      ],
      "name": "PropertyListed",
      "type": "event"
    },
    {
      "anonymous": false,
      "inputs": [
        {
          "indexed": true,
          "internalType": "address",
          "name": "from",
          "type": "address"
        },
        {
          "indexed": true,
          "internalType": "address",
          "name": "to",
          "type": "address"
        },
        {
          "indexed": true,
          "internalType": "uint256",
          "name": "tokenId",
          "type": "uint256"
        }
      ],
      "name": "Transfer",
      "type": "event"
    },
    {
      "inputs": [
        {
          "internalType": "address",
          "name": "to",
          "type": "address"
        },
        {
          "internalType": "uint256",
          "name": "tokenId",
          "type": "uint256"
        }
      ],
      "name": "approve",
      "outputs": [],
      "stateMutability": "nonpayable",
      "type": "function"
    },
    {
      "inputs": [
        {
          "internalType": "address",
          "name": "owner",
          "type": "address"
        }
      ],
      "name": "balanceOf",
      "outputs": [
        {
          "internalType": "uint256",
          "name": "",
          "type": "uint256"
        }
      ],
      "stateMutability": "view",
      "type": "function"
    },
    {
      "inputs": [
        {
          "internalType": "uint256",
          "name": "tokenId",
          "type": "uint256"
        }
      ],
      "name": "createPropertySale",
      "outputs": [],
      "stateMutability": "payable",
      "type": "function"
    },
    {
      "inputs": [
        {
          "internalType": "string",
          "name": "tokenURI",
          "type": "string"
        },
        {
          "internalType": "uint256",
          "name": "price",
          "type": "uint256"
        }
      ],
      "name": "createToken",
      "outputs": [
        {
          "internalType": "uint256",
          "name": "",
          "type": "uint256"
        }
      ],
      "stateMutability": "payable",
      "type": "function"
    },
    {
      "inputs": [],
      "name": "fetchMyListedProperties",
      "outputs": [
        {
          "components": [
            {
              "internalType": "uint256",
              "name": "tokenId",
              "type": "uint256"
            },
            {
              "internalType": "address payable",
              "name": "seller",
              "type": "address"
            },
            {
              "internalType": "address payable",
              "name": "owner",
              "type": "address"
            },
            {
              "internalType": "uint256",
              "name": "price",
              "type": "uint256"
            },
            {
              "internalType": "bool",
              "name": "sold",
              "type": "bool"
            }
          ],
          "internalType": "struct RealEstateMarketplace.Property[]",
          "name": "",
          "type": "tuple[]"
        }
      ],
      "stateMutability": "view",
      "type": "function"
    },
    {
      "inputs": [],
      "name": "fetchMyPurchasedProperties",
      "outputs": [
        {
          "components": [
            {
              "internalType": "uint256",
              "name": "tokenId",
              "type": "uint256"
            },
            {
              "internalType": "address payable",
              "name": "seller",
              "type": "address"
            },
            {
              "internalType": "address payable",
              "name": "owner",
              "type": "address"
            },
            {
              "internalType": "uint256",
              "name": "price",
              "type": "uint256"
            },
            {
              "internalType": "bool",
              "name": "sold",
              "type": "bool"
            }
          ],
          "internalType": "struct RealEstateMarketplace.Property[]",
          "name": "",
          "type": "tuple[]"
        }
      ],
      "stateMutability": "view",
      "type": "function"
    },
    {
      "inputs": [],
      "name": "fetchUnsoldProperties",
      "outputs": [
        {
          "components": [
            {
              "internalType": "uint256",
              "name": "tokenId",
              "type": "uint256"
            },
            {
              "internalType": "address payable",
              "name": "seller",
              "type": "address"
            },
            {
              "internalType": "address payable",
              "name": "owner",
              "type": "address"
            },
            {
              "internalType": "uint256",
              "name": "price",
              "type": "uint256"
            },
            {
              "internalType": "bool",
              "name": "sold",
              "type": "bool"
            }
          ],
          "internalType": "struct RealEstateMarketplace.Property[]",
          "name": "",
          "type": "tuple[]"
        }
      ],
      "stateMutability": "view",
      "type": "function"
    },
    {
      "inputs": [
        {
          "internalType": "uint256",
          "name": "tokenId",
          "type": "uint256"
        }
      ],
      "name": "getApproved",
      "outputs": [
        {
          "internalType": "address",
          "name": "",
          "type": "address"
        }
      ],
      "stateMutability": "view",
      "type": "function"
    },
    {
      "inputs": [],
      "name": "getListingPrice",
      "outputs": [
        {
          "internalType": "uint256",
          "name": "",
          "type": "uint256"
        }
      ],
      "stateMutability": "view",
      "type": "function"
    },
    {
      "inputs": [],
      "name": "getOwner",
      "outputs": [
        {
          "internalType": "address",
          "name": "",
          "type": "address"
        }
      ],
      "stateMutability": "view",
      "type": "function"
    },
    {
      "inputs": [
        {
          "internalType": "address",
          "name": "owner",
          "type": "address"
        },
        {
          "internalType": "address",
          "name": "operator",
          "type": "address"
        }
      ],
      "name": "isApprovedForAll",
      "outputs": [
        {
          "internalType": "bool",
          "name": "",
          "type": "bool"
        }
      ],
      "stateMutability": "view",
      "type": "function"
    },
    {
      "inputs": [],
      "name": "name",
      "outputs": [
        {
          "internalType": "string",
          "name": "",
          "type": "string"
        }
      ],
      "stateMutability": "view",
      "type": "function"
    },
    {
      "inputs": [
        {
          "internalType": "uint256",
          "name": "tokenId",
          "type": "uint256"
        }
      ],
      "name": "ownerOf",
      "outputs": [
        {
          "internalType": "address",
          "name": "",
          "type": "address"
        }
      ],
      "stateMutability": "view",
      "type": "function"
    },
    {
      "inputs": [
        {
          "internalType": "uint256",
          "name": "tokenId",
          "type": "uint256"
        },
        {
          "internalType": "string",
          "name": "tokenURI",
          "type": "string"
        },
        {
          "internalType": "uint256",
          "name": "price",
          "type": "uint256"
        }
      ],
      "name": "relistProperty",
      "outputs": [
        {
          "internalType": "uint256",
          "name": "",
          "type": "uint256"
        }
      ],
      "stateMutability": "payable",
      "type": "function"
    },
    {
      "inputs": [
        {
          "internalType": "uint256",
          "name": "tokenId",
          "type": "uint256"
        },
        {
          "internalType": "uint256",
          "name": "price",
          "type": "uint256"
        }
      ],
      "name": "resellToken",
      "outputs": [],
      "stateMutability": "payable",
      "type": "function"
    },
    {
      "inputs": [
        {
          "internalType": "address",
          "name": "from",
          "type": "address"
        },
        {
          "internalType": "address",
          "name": "to",
          "type": "address"
        },
        {
          "internalType": "uint256",
          "name": "tokenId",
          "type": "uint256"
        }
      ],
      "name": "safeTransferFrom",
      "outputs": [],
      "stateMutability": "nonpayable",
      "type": "function"
    },
    {
      "inputs": [
        {
          "internalType": "address",
          "name": "from",
          "type": "address"
        },
        {
          "internalType": "address",
          "name": "to",
          "type": "address"
        },
        {
          "internalType": "uint256",
          "name": "tokenId",
          "type": "uint256"
        },
        {
          "internalType": "bytes",
          "name": "_data",
          "type": "bytes"
        }
      ],
      "name": "safeTransferFrom",
      "outputs": [],
      "stateMutability": "nonpayable",
      "type": "function"
    },
    {
      "inputs": [
        {
          "internalType": "address",
          "name": "operator",
          "type": "address"
        },
        {
          "internalType": "bool",
          "name": "approved",
          "type": "bool"
        }
      ],
      "name": "setApprovalForAll",
      "outputs": [],
      "stateMutability": "nonpayable",
      "type": "function"
    },
    {
      "inputs": [
        {
          "internalType": "bytes4",
          "name": "interfaceId",
          "type": "bytes4"
        }
      ],
      "name": "supportsInterface",
      "outputs": [
        {
          "internalType": "bool",
          "name": "",
          "type": "bool"
        }
      ],
      "stateMutability": "view",
      "type": "function"
    },
    {
      "inputs": [],
      "name": "symbol",
      "outputs": [
        {
          "internalType": "string",
          "name": "",
          "type": "string"
        }
      ],
      "stateMutability": "view",
      "type": "function"
    },
    {
      "inputs": [
        {
          "internalType": "uint256",
          "name": "tokenId",
          "type": "uint256"
        }
      ],
      "name": "tokenURI",
      "outputs": [
        {
          "internalType": "string",
          "name": "",
          "type": "string"
        }
      ],
      "stateMutability": "view",
      "type": "function"
    },
    {
      "inputs": [
        {
          "internalType": "address",
          "name": "from",
          "type": "address"
        },
        {
          "internalType": "address",
          "name": "to",
          "type": "address"
        },
        {
          "internalType": "uint256",
          "name": "tokenId",
          "type": "uint256"
        }
      ],
      "name": "transferFrom",
      "outputs": [],
      "stateMutability": "nonpayable",
      "type": "function"
    },
    {
      "inputs": [
        {
          "internalType": "uint256",
          "name": "_listingPrice",
          "type": "uint256"
        }
      ],
      "name": "updateListingPrice",
      "outputs": [],
      "stateMutability": "payable",
      "type": "function"
    }
  ],
  "bytecode": "0x60806040526658d15e176280006009553480156200001c57600080fd5b506040518060400160405280600b81526020017f4e465420457374617465730000000000000000000000000000000000000000008152506040518060400160405280600481526020017f4e455354000000000000000000000000000000000000000000000000000000008152508160009080519060200190620000a192919062000104565b508060019080519060200190620000ba92919062000104565b50505033600a60006101000a81548173ffffffffffffffffffffffffffffffffffffffff021916908373ffffffffffffffffffffffffffffffffffffffff16021790555062000219565b8280546200011290620001b4565b90600052602060002090601f01602090048101928262000136576000855562000182565b82601f106200015157805160ff191683800117855562000182565b8280016001018555821562000182579182015b828111156200018157825182559160200191906001019062000164565b5b50905062000191919062000195565b5090565b5b80821115620001b057600081600090555060010162000196565b5090565b60006002820490506001821680620001cd57607f821691505b60208210811415620001e457620001e3620001ea565b5b50919050565b7f4e487b7100000000000000000000000000000000000000000000000000000000600052602260045260246000fd5b6143ac80620002296000396000f3fe6080604052600436106101405760003560e01c806395bd9569116100b6578063b88d4fde1161006f578063b88d4fde1461045b578063c87b56dd14610484578063d15b4f13146104c1578063d193535d146104ec578063e219fc7514610508578063e985e9c51461052457610140565b806395bd95691461036557806395d89b4114610395578063a22cb465146103c0578063a7683a71146103e9578063ad6fa0a414610414578063ae677aa31461043f57610140565b806323b872dd1161010857806323b872dd1461023e57806342842e0e146102675780636352211e1461029057806370a08231146102cd57806372b3b6201461030a578063893d20e81461033a57610140565b806301ffc9a71461014557806306fdde0314610182578063081812fc146101ad578063095ea7b3146101ea57806312e8558514610213575b600080fd5b34801561015157600080fd5b5061016c60048036038101906101679190613139565b610561565b60405161017991906137cb565b60405180910390f35b34801561018e57600080fd5b50610197610643565b6040516101a491906137e6565b60405180910390f35b3480156101b957600080fd5b506101d460048036038101906101cf91906131df565b6106d5565b6040516101e191906136fd565b60405180910390f35b3480156101f657600080fd5b50610211600480360381019061020c91906130fd565b61075a565b005b34801561021f57600080fd5b50610228610872565b6040516102359190613a28565b60405180910390f35b34801561024a57600080fd5b5061026560048036038101906102609190612ff7565b61087c565b005b34801561027357600080fd5b5061028e60048036038101906102899190612ff7565b6108dc565b005b34801561029c57600080fd5b506102b760048036038101906102b291906131df565b6108fc565b6040516102c491906136fd565b60405180910390f35b3480156102d957600080fd5b506102f460048036038101906102ef9190612f92565b6109ae565b6040516103019190613a28565b60405180910390f35b610324600480360381019061031f919061318b565b610a66565b6040516103319190613a28565b60405180910390f35b34801561034657600080fd5b5061034f610aa8565b60405161035c91906136fd565b60405180910390f35b61037f600480360381019061037a9190613208565b610ad2565b60405161038c9190613a28565b60405180910390f35b3480156103a157600080fd5b506103aa610af5565b6040516103b791906137e6565b60405180910390f35b3480156103cc57600080fd5b506103e760048036038101906103e291906130c1565b610b87565b005b3480156103f557600080fd5b506103fe610b9d565b60405161040b91906137a9565b60405180910390f35b34801561042057600080fd5b50610429610e15565b60405161043691906137a9565b60405180910390f35b610459600480360381019061045491906131df565b6110c0565b005b34801561046757600080fd5b50610482600480360381019061047d9190613046565b611153565b005b34801561049057600080fd5b506104ab60048036038101906104a691906131df565b6111b5565b6040516104b891906137e6565b60405180910390f35b3480156104cd57600080fd5b506104d6611307565b6040516104e391906137a9565b60405180910390f35b610506600480360381019061050191906131df565b61159b565b005b610522600480360381019061051d919061326f565b6117c6565b005b34801561053057600080fd5b5061054b60048036038101906105469190612fbb565b6119e5565b60405161055891906137cb565b60405180910390f35b60007f80ac58cd000000000000000000000000000000000000000000000000000000007bffffffffffffffffffffffffffffffffffffffffffffffffffffffff1916827bffffffffffffffffffffffffffffffffffffffffffffffffffffffff1916148061062c57507f5b5e139f000000000000000000000000000000000000000000000000000000007bffffffffffffffffffffffffffffffffffffffffffffffffffffffff1916827bffffffffffffffffffffffffffffffffffffffffffffffffffffffff1916145b8061063c575061063b82611a79565b5b9050919050565b60606000805461065290613cc9565b80601f016020809104026020016040519081016040528092919081815260200182805461067e90613cc9565b80156106cb5780601f106106a0576101008083540402835291602001916106cb565b820191906000526020600020905b8154815290600101906020018083116106ae57829003601f168201915b5050505050905090565b60006106e082611ae3565b61071f576040517f08c379a0000000000000000000000000000000000000000000000000000000008152600401610716906139a8565b60405180910390fd5b6004600083815260200190815260200160002060009054906101000a900473ffffffffffffffffffffffffffffffffffffffff169050919050565b6000610765826108fc565b90508073ffffffffffffffffffffffffffffffffffffffff168373ffffffffffffffffffffffffffffffffffffffff1614156107d6576040517f08c379a00000000000000000000000000000000000000000000000000000000081526004016107cd906139e8565b60405180910390fd5b8073ffffffffffffffffffffffffffffffffffffffff166107f5611b4f565b73ffffffffffffffffffffffffffffffffffffffff16148061082457506108238161081e611b4f565b6119e5565b5b610863576040517f08c379a000000000000000000000000000000000000000000000000000000000815260040161085a906138e8565b60405180910390fd5b61086d8383611b57565b505050565b6000600954905090565b61088d610887611b4f565b82611c10565b6108cc576040517f08c379a00000000000000000000000000000000000000000000000000000000081526004016108c390613a08565b60405180910390fd5b6108d7838383611cee565b505050565b6108f783838360405180602001604052806000815250611153565b505050565b6000806002600084815260200190815260200160002060009054906101000a900473ffffffffffffffffffffffffffffffffffffffff169050600073ffffffffffffffffffffffffffffffffffffffff168173ffffffffffffffffffffffffffffffffffffffff1614156109a5576040517f08c379a000000000000000000000000000000000000000000000000000000000815260040161099c90613928565b60405180910390fd5b80915050919050565b60008073ffffffffffffffffffffffffffffffffffffffff168273ffffffffffffffffffffffffffffffffffffffff161415610a1f576040517f08c379a0000000000000000000000000000000000000000000000000000000008152600401610a1690613908565b60405180910390fd5b600360008373ffffffffffffffffffffffffffffffffffffffff1673ffffffffffffffffffffffffffffffffffffffff168152602001908152602001600020549050919050565b6000610a726007611f55565b6000610a7e6007611f6b565b9050610a8a3382611f79565b610a948185612153565b610a9e81846121c7565b8091505092915050565b6000600a60009054906101000a900473ffffffffffffffffffffffffffffffffffffffff16905090565b600080610adf8484610a66565b9050610aea856123ba565b809150509392505050565b606060018054610b0490613cc9565b80601f0160208091040260200160405190810160405280929190818152602001828054610b3090613cc9565b8015610b7d5780601f10610b5257610100808354040283529160200191610b7d565b820191906000526020600020905b815481529060010190602001808311610b6057829003601f168201915b5050505050905090565b610b99610b92611b4f565b838361240d565b5050565b60606000610bab6007611f6b565b9050600080610bb861257a565b67ffffffffffffffff811115610bf7577f4e487b7100000000000000000000000000000000000000000000000000000000600052604160045260246000fd5b604051908082528060200260200182016040528015610c3057816020015b610c1d612d19565b815260200190600190039081610c155790505b5090506000600190505b838111610e0b573373ffffffffffffffffffffffffffffffffffffffff16600b600083815260200190815260200160002060010160009054906101000a900473ffffffffffffffffffffffffffffffffffffffff1673ffffffffffffffffffffffffffffffffffffffff161415610df857600b60008281526020019081526020016000206040518060a0016040529081600082015481526020016001820160009054906101000a900473ffffffffffffffffffffffffffffffffffffffff1673ffffffffffffffffffffffffffffffffffffffff1673ffffffffffffffffffffffffffffffffffffffff1681526020016002820160009054906101000a900473ffffffffffffffffffffffffffffffffffffffff1673ffffffffffffffffffffffffffffffffffffffff1673ffffffffffffffffffffffffffffffffffffffff168152602001600382015481526020016004820160009054906101000a900460ff161515151581525050828481518110610ddd577f4e487b7100000000000000000000000000000000000000000000000000000000600052603260045260246000fd5b6020026020010181905250600183610df59190613b46565b92505b8080610e0390613d2c565b915050610c3a565b5080935050505090565b60606000610e236007611f6b565b9050600080610e3061262e565b67ffffffffffffffff811115610e6f577f4e487b7100000000000000000000000000000000000000000000000000000000600052604160045260246000fd5b604051908082528060200260200182016040528015610ea857816020015b610e95612d19565b815260200190600190039081610e8d5790505b5090506000600190505b8381116110b6573373ffffffffffffffffffffffffffffffffffffffff16600b600083815260200190815260200160002060020160009054906101000a900473ffffffffffffffffffffffffffffffffffffffff1673ffffffffffffffffffffffffffffffffffffffff16148015610f51575060011515600b600083815260200190815260200160002060040160009054906101000a900460ff161515145b156110a357600b60008281526020019081526020016000206040518060a0016040529081600082015481526020016001820160009054906101000a900473ffffffffffffffffffffffffffffffffffffffff1673ffffffffffffffffffffffffffffffffffffffff1673ffffffffffffffffffffffffffffffffffffffff1681526020016002820160009054906101000a900473ffffffffffffffffffffffffffffffffffffffff1673ffffffffffffffffffffffffffffffffffffffff1673ffffffffffffffffffffffffffffffffffffffff168152602001600382015481526020016004820160009054906101000a900460ff161515151581525050828481518110611088577f4e487b7100000000000000000000000000000000000000000000000000000000600052603260045260246000fd5b60200260200101819052506001836110a09190613b46565b92505b80806110ae90613d2c565b915050610eb2565b5080935050505090565b338073ffffffffffffffffffffffffffffffffffffffff16600a60009054906101000a900473ffffffffffffffffffffffffffffffffffffffff1673ffffffffffffffffffffffffffffffffffffffff1614611148576040517f0713223200000000000000000000000000000000000000000000000000000000815260040160405180910390fd5b816009819055505050565b61116461115e611b4f565b83611c10565b6111a3576040517f08c379a000000000000000000000000000000000000000000000000000000000815260040161119a90613a08565b60405180910390fd5b6111af84848484612715565b50505050565b60606111c082611ae3565b6111ff576040517f08c379a00000000000000000000000000000000000000000000000000000000081526004016111f690613988565b60405180910390fd5b600060066000848152602001908152602001600020805461121f90613cc9565b80601f016020809104026020016040519081016040528092919081815260200182805461124b90613cc9565b80156112985780601f1061126d57610100808354040283529160200191611298565b820191906000526020600020905b81548152906001019060200180831161127b57829003601f168201915b5050505050905060006112a9612771565b90506000815114156112bf578192505050611302565b6000825111156112f45780826040516020016112dc9291906136d9565b60405160208183030381529060405292505050611302565b6112fd84612788565b925050505b919050565b606060006113156007611f6b565b905060006113236008611f6b565b61132d6007611f6b565b6113379190613bcd565b90506000808267ffffffffffffffff81111561137c577f4e487b7100000000000000000000000000000000000000000000000000000000600052604160045260246000fd5b6040519080825280602002602001820160405280156113b557816020015b6113a2612d19565b81526020019060019003908161139a5790505b5090506000600190505b848111611590573073ffffffffffffffffffffffffffffffffffffffff16600b600083815260200190815260200160002060020160009054906101000a900473ffffffffffffffffffffffffffffffffffffffff1673ffffffffffffffffffffffffffffffffffffffff16141561157d57600b60008281526020019081526020016000206040518060a0016040529081600082015481526020016001820160009054906101000a900473ffffffffffffffffffffffffffffffffffffffff1673ffffffffffffffffffffffffffffffffffffffff1673ffffffffffffffffffffffffffffffffffffffff1681526020016002820160009054906101000a900473ffffffffffffffffffffffffffffffffffffffff1673ffffffffffffffffffffffffffffffffffffffff1673ffffffffffffffffffffffffffffffffffffffff168152602001600382015481526020016004820160009054906101000a900460ff161515151581525050828481518110611562577f4e487b7100000000000000000000000000000000000000000000000000000000600052603260045260246000fd5b602002602001018190525060018361157a9190613b46565b92505b808061158890613d2c565b9150506113bf565b508094505050505090565b600b6000828152602001908152602001600020600301548034146115eb576040517f6cf09b4d00000000000000000000000000000000000000000000000000000000815260040160405180910390fd5b33600b600084815260200190815260200160002060020160006101000a81548173ffffffffffffffffffffffffffffffffffffffff021916908373ffffffffffffffffffffffffffffffffffffffff1602179055506000600b600084815260200190815260200160002060010160006101000a81548173ffffffffffffffffffffffffffffffffffffffff021916908373ffffffffffffffffffffffffffffffffffffffff1602179055506001600b600084815260200190815260200160002060040160006101000a81548160ff0219169083151502179055506116cf6008611f55565b6116da303384611cee565b600a60009054906101000a900473ffffffffffffffffffffffffffffffffffffffff1673ffffffffffffffffffffffffffffffffffffffff166108fc6009549081150290604051600060405180830381858888f19350505050158015611744573d6000803e3d6000fd5b50600b600083815260200190815260200160002060010160009054906101000a900473ffffffffffffffffffffffffffffffffffffffff1673ffffffffffffffffffffffffffffffffffffffff166108fc349081150290604051600060405180830381858888f193505050501580156117c1573d6000803e3d6000fd5b505050565b8060008111611801576040517fbff7dcf800000000000000000000000000000000000000000000000000000000815260040160405180910390fd5b600954341461183c576040517fce9f55b900000000000000000000000000000000000000000000000000000000815260040160405180910390fd5b3373ffffffffffffffffffffffffffffffffffffffff16600b600085815260200190815260200160002060020160009054906101000a900473ffffffffffffffffffffffffffffffffffffffff1673ffffffffffffffffffffffffffffffffffffffff16146118d7576040517f0713223200000000000000000000000000000000000000000000000000000000815260040160405180910390fd5b81600b60008581526020019081526020016000206003018190555033600b600085815260200190815260200160002060010160006101000a81548173ffffffffffffffffffffffffffffffffffffffff021916908373ffffffffffffffffffffffffffffffffffffffff16021790555030600b600085815260200190815260200160002060020160006101000a81548173ffffffffffffffffffffffffffffffffffffffff021916908373ffffffffffffffffffffffffffffffffffffffff1602179055506000600b600085815260200190815260200160002060040160006101000a81548160ff0219169083151502179055506119d5600861282f565b6119e0333085611cee565b505050565b6000600560008473ffffffffffffffffffffffffffffffffffffffff1673ffffffffffffffffffffffffffffffffffffffff16815260200190815260200160002060008373ffffffffffffffffffffffffffffffffffffffff1673ffffffffffffffffffffffffffffffffffffffff16815260200190815260200160002060009054906101000a900460ff16905092915050565b60007f01ffc9a7000000000000000000000000000000000000000000000000000000007bffffffffffffffffffffffffffffffffffffffffffffffffffffffff1916827bffffffffffffffffffffffffffffffffffffffffffffffffffffffff1916149050919050565b60008073ffffffffffffffffffffffffffffffffffffffff166002600084815260200190815260200160002060009054906101000a900473ffffffffffffffffffffffffffffffffffffffff1673ffffffffffffffffffffffffffffffffffffffff1614159050919050565b600033905090565b816004600083815260200190815260200160002060006101000a81548173ffffffffffffffffffffffffffffffffffffffff021916908373ffffffffffffffffffffffffffffffffffffffff160217905550808273ffffffffffffffffffffffffffffffffffffffff16611bca836108fc565b73ffffffffffffffffffffffffffffffffffffffff167f8c5be1e5ebec7d5bd14f71427d1e84f3dd0314c0f7b2291e5b200ac8c7c3b92560405160405180910390a45050565b6000611c1b82611ae3565b611c5a576040517f08c379a0000000000000000000000000000000000000000000000000000000008152600401611c51906138c8565b60405180910390fd5b6000611c65836108fc565b90508073ffffffffffffffffffffffffffffffffffffffff168473ffffffffffffffffffffffffffffffffffffffff161480611cd457508373ffffffffffffffffffffffffffffffffffffffff16611cbc846106d5565b73ffffffffffffffffffffffffffffffffffffffff16145b80611ce55750611ce481856119e5565b5b91505092915050565b8273ffffffffffffffffffffffffffffffffffffffff16611d0e826108fc565b73ffffffffffffffffffffffffffffffffffffffff1614611d64576040517f08c379a0000000000000000000000000000000000000000000000000000000008152600401611d5b90613848565b60405180910390fd5b600073ffffffffffffffffffffffffffffffffffffffff168273ffffffffffffffffffffffffffffffffffffffff161415611dd4576040517f08c379a0000000000000000000000000000000000000000000000000000000008152600401611dcb90613888565b60405180910390fd5b611ddf83838361288b565b611dea600082611b57565b6001600360008573ffffffffffffffffffffffffffffffffffffffff1673ffffffffffffffffffffffffffffffffffffffff1681526020019081526020016000206000828254611e3a9190613bcd565b925050819055506001600360008473ffffffffffffffffffffffffffffffffffffffff1673ffffffffffffffffffffffffffffffffffffffff1681526020019081526020016000206000828254611e919190613b46565b92505081905550816002600083815260200190815260200160002060006101000a81548173ffffffffffffffffffffffffffffffffffffffff021916908373ffffffffffffffffffffffffffffffffffffffff160217905550808273ffffffffffffffffffffffffffffffffffffffff168473ffffffffffffffffffffffffffffffffffffffff167fddf252ad1be2c89b69c2b068fc378daa952ba7f163c4a11628f55a4df523b3ef60405160405180910390a4611f50838383612890565b505050565b6001816000016000828254019250508190555050565b600081600001549050919050565b600073ffffffffffffffffffffffffffffffffffffffff168273ffffffffffffffffffffffffffffffffffffffff161415611fe9576040517f08c379a0000000000000000000000000000000000000000000000000000000008152600401611fe090613968565b60405180910390fd5b611ff281611ae3565b15612032576040517f08c379a000000000000000000000000000000000000000000000000000000000815260040161202990613868565b60405180910390fd5b61203e6000838361288b565b6001600360008473ffffffffffffffffffffffffffffffffffffffff1673ffffffffffffffffffffffffffffffffffffffff168152602001908152602001600020600082825461208e9190613b46565b92505081905550816002600083815260200190815260200160002060006101000a81548173ffffffffffffffffffffffffffffffffffffffff021916908373ffffffffffffffffffffffffffffffffffffffff160217905550808273ffffffffffffffffffffffffffffffffffffffff16600073ffffffffffffffffffffffffffffffffffffffff167fddf252ad1be2c89b69c2b068fc378daa952ba7f163c4a11628f55a4df523b3ef60405160405180910390a461214f60008383612890565b5050565b61215c82611ae3565b61219b576040517f08c379a000000000000000000000000000000000000000000000000000000000815260040161219290613948565b60405180910390fd5b806006600084815260200190815260200160002090805190602001906121c2929190612d76565b505050565b8060008111612202576040517fbff7dcf800000000000000000000000000000000000000000000000000000000815260040160405180910390fd5b600954341461223d576040517fce9f55b900000000000000000000000000000000000000000000000000000000815260040160405180910390fd5b6040518060a001604052808481526020013373ffffffffffffffffffffffffffffffffffffffff1681526020013073ffffffffffffffffffffffffffffffffffffffff16815260200183815260200160001515815250600b60008581526020019081526020016000206000820151816000015560208201518160010160006101000a81548173ffffffffffffffffffffffffffffffffffffffff021916908373ffffffffffffffffffffffffffffffffffffffff16021790555060408201518160020160006101000a81548173ffffffffffffffffffffffffffffffffffffffff021916908373ffffffffffffffffffffffffffffffffffffffff1602179055506060820151816003015560808201518160040160006101000a81548160ff021916908315150217905550905050612376333085611cee565b827fdeb96ac264826584ed864590b3f24bcb64ed3ce343c1e95abde59178508c66c133308560006040516123ad9493929190613718565b60405180910390a2505050565b6123c381612895565b60006006600083815260200190815260200160002080546123e390613cc9565b90501461240a576006600082815260200190815260200160002060006124099190612dfc565b5b50565b8173ffffffffffffffffffffffffffffffffffffffff168373ffffffffffffffffffffffffffffffffffffffff16141561247c576040517f08c379a0000000000000000000000000000000000000000000000000000000008152600401612473906138a8565b60405180910390fd5b80600560008573ffffffffffffffffffffffffffffffffffffffff1673ffffffffffffffffffffffffffffffffffffffff16815260200190815260200160002060008473ffffffffffffffffffffffffffffffffffffffff1673ffffffffffffffffffffffffffffffffffffffff16815260200190815260200160002060006101000a81548160ff0219169083151502179055508173ffffffffffffffffffffffffffffffffffffffff168373ffffffffffffffffffffffffffffffffffffffff167f17307eab39ab6107e8899845ad3d59bd9653f200f220920489ca2b5937696c318360405161256d91906137cb565b60405180910390a3505050565b6000806125876007611f6b565b9050600080600190505b828111612625573373ffffffffffffffffffffffffffffffffffffffff16600b600083815260200190815260200160002060010160009054906101000a900473ffffffffffffffffffffffffffffffffffffffff1673ffffffffffffffffffffffffffffffffffffffff1614156126125760018261260f9190613b46565b91505b808061261d90613d2c565b915050612591565b50809250505090565b60008061263b6007611f6b565b9050600080600190505b82811161270c573373ffffffffffffffffffffffffffffffffffffffff16600b600083815260200190815260200160002060020160009054906101000a900473ffffffffffffffffffffffffffffffffffffffff1673ffffffffffffffffffffffffffffffffffffffff161480156126e4575060011515600b600083815260200190815260200160002060040160009054906101000a900460ff161515145b156126f9576001826126f69190613b46565b91505b808061270490613d2c565b915050612645565b50809250505090565b612720848484611cee565b61272c848484846129b2565b61276b576040517f08c379a000000000000000000000000000000000000000000000000000000000815260040161276290613828565b60405180910390fd5b50505050565b606060405180602001604052806000815250905090565b606061279382611ae3565b6127d2576040517f08c379a00000000000000000000000000000000000000000000000000000000081526004016127c9906139c8565b60405180910390fd5b60006127dc612771565b905060008151116127fc5760405180602001604052806000815250612827565b8061280684612b49565b6040516020016128179291906136d9565b6040516020818303038152906040525b915050919050565b6000816000015490506000811161287b576040517f08c379a000000000000000000000000000000000000000000000000000000000815260040161287290613808565b60405180910390fd5b6001810382600001819055505050565b505050565b505050565b60006128a0826108fc565b90506128ae8160008461288b565b6128b9600083611b57565b6001600360008373ffffffffffffffffffffffffffffffffffffffff1673ffffffffffffffffffffffffffffffffffffffff16815260200190815260200160002060008282546129099190613bcd565b925050819055506002600083815260200190815260200160002060006101000a81549073ffffffffffffffffffffffffffffffffffffffff021916905581600073ffffffffffffffffffffffffffffffffffffffff168273ffffffffffffffffffffffffffffffffffffffff167fddf252ad1be2c89b69c2b068fc378daa952ba7f163c4a11628f55a4df523b3ef60405160405180910390a46129ae81600084612890565b5050565b60006129d38473ffffffffffffffffffffffffffffffffffffffff16612cf6565b15612b3c578373ffffffffffffffffffffffffffffffffffffffff1663150b7a026129fc611b4f565b8786866040518563ffffffff1660e01b8152600401612a1e949392919061375d565b602060405180830381600087803b158015612a3857600080fd5b505af1925050508015612a6957506040513d601f19601f82011682018060405250810190612a669190613162565b60015b612aec573d8060008114612a99576040519150601f19603f3d011682016040523d82523d6000602084013e612a9e565b606091505b50600081511415612ae4576040517f08c379a0000000000000000000000000000000000000000000000000000000008152600401612adb90613828565b60405180910390fd5b805181602001fd5b63150b7a0260e01b7bffffffffffffffffffffffffffffffffffffffffffffffffffffffff1916817bffffffffffffffffffffffffffffffffffffffffffffffffffffffff191614915050612b41565b600190505b949350505050565b60606000821415612b91576040518060400160405280600181526020017f30000000000000000000000000000000000000000000000000000000000000008152509050612cf1565b600082905060005b60008214612bc3578080612bac90613d2c565b915050600a82612bbc9190613b9c565b9150612b99565b60008167ffffffffffffffff811115612c05577f4e487b7100000000000000000000000000000000000000000000000000000000600052604160045260246000fd5b6040519080825280601f01601f191660200182016040528015612c375781602001600182028036833780820191505090505b5090505b60008514612cea57600182612c509190613bcd565b9150600a85612c5f9190613d75565b6030612c6b9190613b46565b60f81b818381518110612ca7577f4e487b7100000000000000000000000000000000000000000000000000000000600052603260045260246000fd5b60200101907effffffffffffffffffffffffffffffffffffffffffffffffffffffffffffff1916908160001a905350600a85612ce39190613b9c565b9450612c3b565b8093505050505b919050565b6000808273ffffffffffffffffffffffffffffffffffffffff163b119050919050565b6040518060a0016040528060008152602001600073ffffffffffffffffffffffffffffffffffffffff168152602001600073ffffffffffffffffffffffffffffffffffffffff168152602001600081526020016000151581525090565b828054612d8290613cc9565b90600052602060002090601f016020900481019282612da45760008555612deb565b82601f10612dbd57805160ff1916838001178555612deb565b82800160010185558215612deb579182015b82811115612dea578251825591602001919060010190612dcf565b5b509050612df89190612e3c565b5090565b508054612e0890613cc9565b6000825580601f10612e1a5750612e39565b601f016020900490600052602060002090810190612e389190612e3c565b5b50565b5b80821115612e55576000816000905550600101612e3d565b5090565b6000612e6c612e6784613a68565b613a43565b905082815260208101848484011115612e8457600080fd5b612e8f848285613c87565b509392505050565b6000612eaa612ea584613a99565b613a43565b905082815260208101848484011115612ec257600080fd5b612ecd848285613c87565b509392505050565b600081359050612ee48161431a565b92915050565b600081359050612ef981614331565b92915050565b600081359050612f0e81614348565b92915050565b600081519050612f2381614348565b92915050565b600082601f830112612f3a57600080fd5b8135612f4a848260208601612e59565b91505092915050565b600082601f830112612f6457600080fd5b8135612f74848260208601612e97565b91505092915050565b600081359050612f8c8161435f565b92915050565b600060208284031215612fa457600080fd5b6000612fb284828501612ed5565b91505092915050565b60008060408385031215612fce57600080fd5b6000612fdc85828601612ed5565b9250506020612fed85828601612ed5565b9150509250929050565b60008060006060848603121561300c57600080fd5b600061301a86828701612ed5565b935050602061302b86828701612ed5565b925050604061303c86828701612f7d565b9150509250925092565b6000806000806080858703121561305c57600080fd5b600061306a87828801612ed5565b945050602061307b87828801612ed5565b935050604061308c87828801612f7d565b925050606085013567ffffffffffffffff8111156130a957600080fd5b6130b587828801612f29565b91505092959194509250565b600080604083850312156130d457600080fd5b60006130e285828601612ed5565b92505060206130f385828601612eea565b9150509250929050565b6000806040838503121561311057600080fd5b600061311e85828601612ed5565b925050602061312f85828601612f7d565b9150509250929050565b60006020828403121561314b57600080fd5b600061315984828501612eff565b91505092915050565b60006020828403121561317457600080fd5b600061318284828501612f14565b91505092915050565b6000806040838503121561319e57600080fd5b600083013567ffffffffffffffff8111156131b857600080fd5b6131c485828601612f53565b92505060206131d585828601612f7d565b9150509250929050565b6000602082840312156131f157600080fd5b60006131ff84828501612f7d565b91505092915050565b60008060006060848603121561321d57600080fd5b600061322b86828701612f7d565b935050602084013567ffffffffffffffff81111561324857600080fd5b61325486828701612f53565b925050604061326586828701612f7d565b9150509250925092565b6000806040838503121561328257600080fd5b600061329085828601612f7d565b92505060206132a185828601612f7d565b9150509250929050565b60006132b78383613653565b60a08301905092915050565b6132cc81613c13565b82525050565b6132db81613c01565b82525050565b60006132ec82613ada565b6132f68185613b08565b935061330183613aca565b8060005b8381101561333257815161331988826132ab565b975061332483613afb565b925050600181019050613305565b5085935050505092915050565b61334881613c25565b82525050565b61335781613c25565b82525050565b600061336882613ae5565b6133728185613b19565b9350613382818560208601613c96565b61338b81613e62565b840191505092915050565b60006133a182613af0565b6133ab8185613b2a565b93506133bb818560208601613c96565b6133c481613e62565b840191505092915050565b60006133da82613af0565b6133e48185613b3b565b93506133f4818560208601613c96565b80840191505092915050565b600061340d601b83613b2a565b915061341882613e73565b602082019050919050565b6000613430603283613b2a565b915061343b82613e9c565b604082019050919050565b6000613453602583613b2a565b915061345e82613eeb565b604082019050919050565b6000613476601c83613b2a565b915061348182613f3a565b602082019050919050565b6000613499602483613b2a565b91506134a482613f63565b604082019050919050565b60006134bc601983613b2a565b91506134c782613fb2565b602082019050919050565b60006134df602c83613b2a565b91506134ea82613fdb565b604082019050919050565b6000613502603883613b2a565b915061350d8261402a565b604082019050919050565b6000613525602a83613b2a565b915061353082614079565b604082019050919050565b6000613548602983613b2a565b9150613553826140c8565b604082019050919050565b600061356b602e83613b2a565b915061357682614117565b604082019050919050565b600061358e602083613b2a565b915061359982614166565b602082019050919050565b60006135b1603183613b2a565b91506135bc8261418f565b604082019050919050565b60006135d4602c83613b2a565b91506135df826141de565b604082019050919050565b60006135f7602f83613b2a565b91506136028261422d565b604082019050919050565b600061361a602183613b2a565b91506136258261427c565b604082019050919050565b600061363d603183613b2a565b9150613648826142cb565b604082019050919050565b60a08201600082015161366960008501826136bb565b50602082015161367c60208501826132c3565b50604082015161368f60408501826132c3565b5060608201516136a260608501826136bb565b5060808201516136b5608085018261333f565b50505050565b6136c481613c7d565b82525050565b6136d381613c7d565b82525050565b60006136e582856133cf565b91506136f182846133cf565b91508190509392505050565b600060208201905061371260008301846132d2565b92915050565b600060808201905061372d60008301876132d2565b61373a60208301866132d2565b61374760408301856136ca565b613754606083018461334e565b95945050505050565b600060808201905061377260008301876132d2565b61377f60208301866132d2565b61378c60408301856136ca565b818103606083015261379e818461335d565b905095945050505050565b600060208201905081810360008301526137c381846132e1565b905092915050565b60006020820190506137e0600083018461334e565b92915050565b600060208201905081810360008301526138008184613396565b905092915050565b6000602082019050818103600083015261382181613400565b9050919050565b6000602082019050818103600083015261384181613423565b9050919050565b6000602082019050818103600083015261386181613446565b9050919050565b6000602082019050818103600083015261388181613469565b9050919050565b600060208201905081810360008301526138a18161348c565b9050919050565b600060208201905081810360008301526138c1816134af565b9050919050565b600060208201905081810360008301526138e1816134d2565b9050919050565b60006020820190508181036000830152613901816134f5565b9050919050565b6000602082019050818103600083015261392181613518565b9050919050565b600060208201905081810360008301526139418161353b565b9050919050565b600060208201905081810360008301526139618161355e565b9050919050565b6000602082019050818103600083015261398181613581565b9050919050565b600060208201905081810360008301526139a1816135a4565b9050919050565b600060208201905081810360008301526139c1816135c7565b9050919050565b600060208201905081810360008301526139e1816135ea565b9050919050565b60006020820190508181036000830152613a018161360d565b9050919050565b60006020820190508181036000830152613a2181613630565b9050919050565b6000602082019050613a3d60008301846136ca565b92915050565b6000613a4d613a5e565b9050613a598282613cfb565b919050565b6000604051905090565b600067ffffffffffffffff821115613a8357613a82613e33565b5b613a8c82613e62565b9050602081019050919050565b600067ffffffffffffffff821115613ab457613ab3613e33565b5b613abd82613e62565b9050602081019050919050565b6000819050602082019050919050565b600081519050919050565b600081519050919050565b600081519050919050565b6000602082019050919050565b600082825260208201905092915050565b600082825260208201905092915050565b600082825260208201905092915050565b600081905092915050565b6000613b5182613c7d565b9150613b5c83613c7d565b9250827fffffffffffffffffffffffffffffffffffffffffffffffffffffffffffffffff03821115613b9157613b90613da6565b5b828201905092915050565b6000613ba782613c7d565b9150613bb283613c7d565b925082613bc257613bc1613dd5565b5b828204905092915050565b6000613bd882613c7d565b9150613be383613c7d565b925082821015613bf657613bf5613da6565b5b828203905092915050565b6000613c0c82613c5d565b9050919050565b6000613c1e82613c5d565b9050919050565b60008115159050919050565b60007fffffffff0000000000000000000000000000000000000000000000000000000082169050919050565b600073ffffffffffffffffffffffffffffffffffffffff82169050919050565b6000819050919050565b82818337600083830152505050565b60005b83811015613cb4578082015181840152602081019050613c99565b83811115613cc3576000848401525b50505050565b60006002820490506001821680613ce157607f821691505b60208210811415613cf557613cf4613e04565b5b50919050565b613d0482613e62565b810181811067ffffffffffffffff82111715613d2357613d22613e33565b5b80604052505050565b6000613d3782613c7d565b91507fffffffffffffffffffffffffffffffffffffffffffffffffffffffffffffffff821415613d6a57613d69613da6565b5b600182019050919050565b6000613d8082613c7d565b9150613d8b83613c7d565b925082613d9b57613d9a613dd5565b5b828206905092915050565b7f4e487b7100000000000000000000000000000000000000000000000000000000600052601160045260246000fd5b7f4e487b7100000000000000000000000000000000000000000000000000000000600052601260045260246000fd5b7f4e487b7100000000000000000000000000000000000000000000000000000000600052602260045260246000fd5b7f4e487b7100000000000000000000000000000000000000000000000000000000600052604160045260246000fd5b6000601f19601f8301169050919050565b7f436f756e7465723a2064656372656d656e74206f766572666c6f770000000000600082015250565b7f4552433732313a207472616e7366657220746f206e6f6e20455243373231526560008201527f63656976657220696d706c656d656e7465720000000000000000000000000000602082015250565b7f4552433732313a207472616e736665722066726f6d20696e636f72726563742060008201527f6f776e6572000000000000000000000000000000000000000000000000000000602082015250565b7f4552433732313a20746f6b656e20616c7265616479206d696e74656400000000600082015250565b7f4552433732313a207472616e7366657220746f20746865207a65726f2061646460008201527f7265737300000000000000000000000000000000000000000000000000000000602082015250565b7f4552433732313a20617070726f766520746f2063616c6c657200000000000000600082015250565b7f4552433732313a206f70657261746f7220717565727920666f72206e6f6e657860008201527f697374656e7420746f6b656e0000000000000000000000000000000000000000602082015250565b7f4552433732313a20617070726f76652063616c6c6572206973206e6f74206f7760008201527f6e6572206e6f7220617070726f76656420666f7220616c6c0000000000000000602082015250565b7f4552433732313a2062616c616e636520717565727920666f7220746865207a6560008201527f726f206164647265737300000000000000000000000000000000000000000000602082015250565b7f4552433732313a206f776e657220717565727920666f72206e6f6e657869737460008201527f656e7420746f6b656e0000000000000000000000000000000000000000000000602082015250565b7f45524337323155524953746f726167653a2055524920736574206f66206e6f6e60008201527f6578697374656e7420746f6b656e000000000000000000000000000000000000602082015250565b7f4552433732313a206d696e7420746f20746865207a65726f2061646472657373600082015250565b7f45524337323155524953746f726167653a2055524920717565727920666f722060008201527f6e6f6e6578697374656e7420746f6b656e000000000000000000000000000000602082015250565b7f4552433732313a20617070726f76656420717565727920666f72206e6f6e657860008201527f697374656e7420746f6b656e0000000000000000000000000000000000000000602082015250565b7f4552433732314d657461646174613a2055524920717565727920666f72206e6f60008201527f6e6578697374656e7420746f6b656e0000000000000000000000000000000000602082015250565b7f4552433732313a20617070726f76616c20746f2063757272656e74206f776e6560008201527f7200000000000000000000000000000000000000000000000000000000000000602082015250565b7f4552433732313a207472616e736665722063616c6c6572206973206e6f74206f60008201527f776e6572206e6f7220617070726f766564000000000000000000000000000000602082015250565b61432381613c01565b811461432e57600080fd5b50565b61433a81613c25565b811461434557600080fd5b50565b61435181613c31565b811461435c57600080fd5b50565b61436881613c7d565b811461437357600080fd5b5056fea2646970667358221220d8aa9d9064796c2cfdc10c20eaa369e2da20ada860c38c2366bb7695b33f5cf964736f6c63430008040033",
  "linkReferences": {},
  "deployedLinkReferences": {}
}