{
  "_format": "hh-sol-artifact-1",
  "contractName": "RealEstateMarketplace",
  "sourceName": "contracts/RealEstateMarketplace.sol",
  "abi": [
    {
      "inputs": [],
      "stateMutability": "nonpayable",
      "type": "constructor"
    },
    {
      "anonymous": false,
      "inputs": [
        {
          "indexed": true,
          "internalType": "address",
          "name": "owner",
          "type": "address"
        },
        {
          "indexed": true,
          "internalType": "address",
          "name": "approved",
          "type": "address"
        },
        {
          "indexed": true,
          "internalType": "uint256",
          "name": "tokenId",
          "type": "uint256"
        }
      ],
      "name": "Approval",
      "type": "event"
    },
    {
      "anonymous": false,
      "inputs": [
        {
          "indexed": true,
          "internalType": "address",
          "name": "owner",
          "type": "address"
        },
        {
          "indexed": true,
          "internalType": "address",
          "name": "operator",
          "type": "address"
        },
        {
          "indexed": false,
          "internalType": "bool",
          "name": "approved",
          "type": "bool"
        }
      ],
      "name": "ApprovalForAll",
      "type": "event"
    },
    {
      "anonymous": false,
      "inputs": [
        {
          "indexed": true,
          "internalType": "uint256",
          "name": "tokenId",
          "type": "uint256"
        },
        {
          "indexed": false,
          "internalType": "address",
          "name": "seller",
          "type": "address"
        },
        {
          "indexed": false,
          "internalType": "address",
          "name": "owner",
          "type": "address"
        },
        {
          "indexed": false,
          "internalType": "uint256",
          "name": "price",
          "type": "uint256"
        },
        {
          "indexed": false,
          "internalType": "bool",
          "name": "sold",
          "type": "bool"
        }
      ],
      "name": "PropertyListed",
      "type": "event"
    },
    {
      "anonymous": false,
      "inputs": [
        {
          "indexed": true,
          "internalType": "address",
          "name": "from",
          "type": "address"
        },
        {
          "indexed": true,
          "internalType": "address",
          "name": "to",
          "type": "address"
        },
        {
          "indexed": true,
          "internalType": "uint256",
          "name": "tokenId",
          "type": "uint256"
        }
      ],
      "name": "Transfer",
      "type": "event"
    },
    {
      "inputs": [
        {
          "internalType": "address",
          "name": "to",
          "type": "address"
        },
        {
          "internalType": "uint256",
          "name": "tokenId",
          "type": "uint256"
        }
      ],
      "name": "approve",
      "outputs": [],
      "stateMutability": "nonpayable",
      "type": "function"
    },
    {
      "inputs": [
        {
          "internalType": "address",
          "name": "owner",
          "type": "address"
        }
      ],
      "name": "balanceOf",
      "outputs": [
        {
          "internalType": "uint256",
          "name": "",
          "type": "uint256"
        }
      ],
      "stateMutability": "view",
      "type": "function"
    },
    {
      "inputs": [
        {
          "internalType": "uint256",
          "name": "tokenId",
          "type": "uint256"
        }
      ],
      "name": "createPropertySale",
      "outputs": [],
      "stateMutability": "payable",
      "type": "function"
    },
    {
      "inputs": [
        {
          "internalType": "string",
          "name": "tokenURI",
          "type": "string"
        },
        {
          "internalType": "uint256",
          "name": "price",
          "type": "uint256"
        }
      ],
      "name": "createToken",
      "outputs": [
        {
          "internalType": "uint256",
          "name": "",
          "type": "uint256"
        }
      ],
      "stateMutability": "payable",
      "type": "function"
    },
    {
      "inputs": [
        {
          "internalType": "uint256",
          "name": "tokenId",
          "type": "uint256"
        }
      ],
      "name": "delistProperty",
      "outputs": [],
      "stateMutability": "nonpayable",
      "type": "function"
    },
    {
      "inputs": [],
      "name": "fetchMyListedProperties",
      "outputs": [
        {
          "components": [
            {
              "internalType": "uint256",
              "name": "tokenId",
              "type": "uint256"
            },
            {
              "internalType": "address payable",
              "name": "seller",
              "type": "address"
            },
            {
              "internalType": "address payable",
              "name": "owner",
              "type": "address"
            },
            {
              "internalType": "uint256",
              "name": "price",
              "type": "uint256"
            },
            {
              "internalType": "bool",
              "name": "sold",
              "type": "bool"
            }
          ],
          "internalType": "struct RealEstateMarketplace.Property[]",
          "name": "",
          "type": "tuple[]"
        }
      ],
      "stateMutability": "view",
      "type": "function"
    },
    {
      "inputs": [],
      "name": "fetchMyPurchasedProperties",
      "outputs": [
        {
          "components": [
            {
              "internalType": "uint256",
              "name": "tokenId",
              "type": "uint256"
            },
            {
              "internalType": "address payable",
              "name": "seller",
              "type": "address"
            },
            {
              "internalType": "address payable",
              "name": "owner",
              "type": "address"
            },
            {
              "internalType": "uint256",
              "name": "price",
              "type": "uint256"
            },
            {
              "internalType": "bool",
              "name": "sold",
              "type": "bool"
            }
          ],
          "internalType": "struct RealEstateMarketplace.Property[]",
          "name": "",
          "type": "tuple[]"
        }
      ],
      "stateMutability": "view",
      "type": "function"
    },
    {
      "inputs": [],
      "name": "fetchUnsoldProperties",
      "outputs": [
        {
          "components": [
            {
              "internalType": "uint256",
              "name": "tokenId",
              "type": "uint256"
            },
            {
              "internalType": "address payable",
              "name": "seller",
              "type": "address"
            },
            {
              "internalType": "address payable",
              "name": "owner",
              "type": "address"
            },
            {
              "internalType": "uint256",
              "name": "price",
              "type": "uint256"
            },
            {
              "internalType": "bool",
              "name": "sold",
              "type": "bool"
            }
          ],
          "internalType": "struct RealEstateMarketplace.Property[]",
          "name": "",
          "type": "tuple[]"
        }
      ],
      "stateMutability": "view",
      "type": "function"
    },
    {
      "inputs": [
        {
          "internalType": "uint256",
          "name": "tokenId",
          "type": "uint256"
        }
      ],
      "name": "getApproved",
      "outputs": [
        {
          "internalType": "address",
          "name": "",
          "type": "address"
        }
      ],
      "stateMutability": "view",
      "type": "function"
    },
    {
      "inputs": [],
      "name": "getListingPrice",
      "outputs": [
        {
          "internalType": "uint256",
          "name": "",
          "type": "uint256"
        }
      ],
      "stateMutability": "view",
      "type": "function"
    },
    {
      "inputs": [],
      "name": "getOwner",
      "outputs": [
        {
          "internalType": "address",
          "name": "",
          "type": "address"
        }
      ],
      "stateMutability": "view",
      "type": "function"
    },
    {
      "inputs": [
        {
          "internalType": "address",
          "name": "owner",
          "type": "address"
        },
        {
          "internalType": "address",
          "name": "operator",
          "type": "address"
        }
      ],
      "name": "isApprovedForAll",
      "outputs": [
        {
          "internalType": "bool",
          "name": "",
          "type": "bool"
        }
      ],
      "stateMutability": "view",
      "type": "function"
    },
    {
      "inputs": [],
      "name": "name",
      "outputs": [
        {
          "internalType": "string",
          "name": "",
          "type": "string"
        }
      ],
      "stateMutability": "view",
      "type": "function"
    },
    {
      "inputs": [
        {
          "internalType": "uint256",
          "name": "tokenId",
          "type": "uint256"
        }
      ],
      "name": "ownerOf",
      "outputs": [
        {
          "internalType": "address",
          "name": "",
          "type": "address"
        }
      ],
      "stateMutability": "view",
      "type": "function"
    },
    {
      "inputs": [
        {
          "internalType": "uint256",
          "name": "tokenId",
          "type": "uint256"
        },
        {
          "internalType": "string",
          "name": "tokenURI",
          "type": "string"
        },
        {
          "internalType": "uint256",
          "name": "price",
          "type": "uint256"
        }
      ],
      "name": "relistProperty",
      "outputs": [
        {
          "internalType": "uint256",
          "name": "",
          "type": "uint256"
        }
      ],
      "stateMutability": "payable",
      "type": "function"
    },
    {
      "inputs": [
        {
          "internalType": "uint256",
          "name": "tokenId",
          "type": "uint256"
        },
        {
          "internalType": "uint256",
          "name": "price",
          "type": "uint256"
        }
      ],
      "name": "resellToken",
      "outputs": [],
      "stateMutability": "payable",
      "type": "function"
    },
    {
      "inputs": [
        {
          "internalType": "address",
          "name": "from",
          "type": "address"
        },
        {
          "internalType": "address",
          "name": "to",
          "type": "address"
        },
        {
          "internalType": "uint256",
          "name": "tokenId",
          "type": "uint256"
        }
      ],
      "name": "safeTransferFrom",
      "outputs": [],
      "stateMutability": "nonpayable",
      "type": "function"
    },
    {
      "inputs": [
        {
          "internalType": "address",
          "name": "from",
          "type": "address"
        },
        {
          "internalType": "address",
          "name": "to",
          "type": "address"
        },
        {
          "internalType": "uint256",
          "name": "tokenId",
          "type": "uint256"
        },
        {
          "internalType": "bytes",
          "name": "_data",
          "type": "bytes"
        }
      ],
      "name": "safeTransferFrom",
      "outputs": [],
      "stateMutability": "nonpayable",
      "type": "function"
    },
    {
      "inputs": [
        {
          "internalType": "address",
          "name": "operator",
          "type": "address"
        },
        {
          "internalType": "bool",
          "name": "approved",
          "type": "bool"
        }
      ],
      "name": "setApprovalForAll",
      "outputs": [],
      "stateMutability": "nonpayable",
      "type": "function"
    },
    {
      "inputs": [
        {
          "internalType": "bytes4",
          "name": "interfaceId",
          "type": "bytes4"
        }
      ],
      "name": "supportsInterface",
      "outputs": [
        {
          "internalType": "bool",
          "name": "",
          "type": "bool"
        }
      ],
      "stateMutability": "view",
      "type": "function"
    },
    {
      "inputs": [],
      "name": "symbol",
      "outputs": [
        {
          "internalType": "string",
          "name": "",
          "type": "string"
        }
      ],
      "stateMutability": "view",
      "type": "function"
    },
    {
      "inputs": [
        {
          "internalType": "uint256",
          "name": "tokenId",
          "type": "uint256"
        }
      ],
      "name": "tokenURI",
      "outputs": [
        {
          "internalType": "string",
          "name": "",
          "type": "string"
        }
      ],
      "stateMutability": "view",
      "type": "function"
    },
    {
      "inputs": [
        {
          "internalType": "address",
          "name": "from",
          "type": "address"
        },
        {
          "internalType": "address",
          "name": "to",
          "type": "address"
        },
        {
          "internalType": "uint256",
          "name": "tokenId",
          "type": "uint256"
        }
      ],
      "name": "transferFrom",
      "outputs": [],
      "stateMutability": "nonpayable",
      "type": "function"
    },
    {
      "inputs": [
        {
          "internalType": "uint256",
          "name": "_listingPrice",
          "type": "uint256"
        }
      ],
      "name": "updateListingPrice",
      "outputs": [],
      "stateMutability": "payable",
      "type": "function"
    }
  ],
  "bytecode": "0x60806040526658d15e176280006009553480156200001c57600080fd5b506040518060400160405280600b81526020017f4e465420457374617465730000000000000000000000000000000000000000008152506040518060400160405280600481526020017f4e455354000000000000000000000000000000000000000000000000000000008152508160009080519060200190620000a192919062000104565b508060019080519060200190620000ba92919062000104565b50505033600a60006101000a81548173ffffffffffffffffffffffffffffffffffffffff021916908373ffffffffffffffffffffffffffffffffffffffff16021790555062000219565b8280546200011290620001b4565b90600052602060002090601f01602090048101928262000136576000855562000182565b82601f106200015157805160ff191683800117855562000182565b8280016001018555821562000182579182015b828111156200018157825182559160200191906001019062000164565b5b50905062000191919062000195565b5090565b5b80821115620001b057600081600090555060010162000196565b5090565b60006002820490506001821680620001cd57607f821691505b60208210811415620001e457620001e3620001ea565b5b50919050565b7f4e487b7100000000000000000000000000000000000000000000000000000000600052602260045260246000fd5b6144d280620002296000396000f3fe60806040526004361061014b5760003560e01c806395bd9569116100b6578063b88d4fde1161006f578063b88d4fde1461048f578063c87b56dd146104b8578063d15b4f13146104f5578063d193535d14610520578063e219fc751461053c578063e985e9c5146105585761014b565b806395bd95691461039957806395d89b41146103c9578063a22cb465146103f4578063a7683a711461041d578063ad6fa0a414610448578063ae677aa3146104735761014b565b806323b872dd1161010857806323b872dd1461027257806342842e0e1461029b5780636352211e146102c457806370a082311461030157806372b3b6201461033e578063893d20e81461036e5761014b565b806301ffc9a71461015057806306fdde031461018d578063081812fc146101b8578063095ea7b3146101f557806312e855851461021e5780631cc2ea7a14610249575b600080fd5b34801561015c57600080fd5b506101776004803603810190610172919061325f565b610595565b60405161018491906138f1565b60405180910390f35b34801561019957600080fd5b506101a2610677565b6040516101af919061390c565b60405180910390f35b3480156101c457600080fd5b506101df60048036038101906101da9190613305565b610709565b6040516101ec9190613823565b60405180910390f35b34801561020157600080fd5b5061021c60048036038101906102179190613223565b61078e565b005b34801561022a57600080fd5b506102336108a6565b6040516102409190613b4e565b60405180910390f35b34801561025557600080fd5b50610270600480360381019061026b9190613305565b6108b0565b005b34801561027e57600080fd5b506102996004803603810190610294919061311d565b6109a2565b005b3480156102a757600080fd5b506102c260048036038101906102bd919061311d565b610a02565b005b3480156102d057600080fd5b506102eb60048036038101906102e69190613305565b610a22565b6040516102f89190613823565b60405180910390f35b34801561030d57600080fd5b50610328600480360381019061032391906130b8565b610ad4565b6040516103359190613b4e565b60405180910390f35b610358600480360381019061035391906132b1565b610b8c565b6040516103659190613b4e565b60405180910390f35b34801561037a57600080fd5b50610383610bce565b6040516103909190613823565b60405180910390f35b6103b360048036038101906103ae919061332e565b610bf8565b6040516103c09190613b4e565b60405180910390f35b3480156103d557600080fd5b506103de610c1b565b6040516103eb919061390c565b60405180910390f35b34801561040057600080fd5b5061041b600480360381019061041691906131e7565b610cad565b005b34801561042957600080fd5b50610432610cc3565b60405161043f91906138cf565b60405180910390f35b34801561045457600080fd5b5061045d610f3b565b60405161046a91906138cf565b60405180910390f35b61048d60048036038101906104889190613305565b6111e6565b005b34801561049b57600080fd5b506104b660048036038101906104b1919061316c565b611279565b005b3480156104c457600080fd5b506104df60048036038101906104da9190613305565b6112db565b6040516104ec919061390c565b60405180910390f35b34801561050157600080fd5b5061050a61142d565b60405161051791906138cf565b60405180910390f35b61053a60048036038101906105359190613305565b6116c1565b005b61055660048036038101906105519190613395565b6118ec565b005b34801561056457600080fd5b5061057f600480360381019061057a91906130e1565b611b0b565b60405161058c91906138f1565b60405180910390f35b60007f80ac58cd000000000000000000000000000000000000000000000000000000007bffffffffffffffffffffffffffffffffffffffffffffffffffffffff1916827bffffffffffffffffffffffffffffffffffffffffffffffffffffffff1916148061066057507f5b5e139f000000000000000000000000000000000000000000000000000000007bffffffffffffffffffffffffffffffffffffffffffffffffffffffff1916827bffffffffffffffffffffffffffffffffffffffffffffffffffffffff1916145b80610670575061066f82611b9f565b5b9050919050565b60606000805461068690613def565b80601f01602080910402602001604051908101604052809291908181526020018280546106b290613def565b80156106ff5780601f106106d4576101008083540402835291602001916106ff565b820191906000526020600020905b8154815290600101906020018083116106e257829003601f168201915b5050505050905090565b600061071482611c09565b610753576040517f08c379a000000000000000000000000000000000000000000000000000000000815260040161074a90613ace565b60405180910390fd5b6004600083815260200190815260200160002060009054906101000a900473ffffffffffffffffffffffffffffffffffffffff169050919050565b600061079982610a22565b90508073ffffffffffffffffffffffffffffffffffffffff168373ffffffffffffffffffffffffffffffffffffffff16141561080a576040517f08c379a000000000000000000000000000000000000000000000000000000000815260040161080190613b0e565b60405180910390fd5b8073ffffffffffffffffffffffffffffffffffffffff16610829611c75565b73ffffffffffffffffffffffffffffffffffffffff161480610858575061085781610852611c75565b611b0b565b5b610897576040517f08c379a000000000000000000000000000000000000000000000000000000000815260040161088e90613a0e565b60405180910390fd5b6108a18383611c7d565b505050565b6000600954905090565b33600b600083815260200190815260200160002060020160006101000a81548173ffffffffffffffffffffffffffffffffffffffff021916908373ffffffffffffffffffffffffffffffffffffffff1602179055506000600b600083815260200190815260200160002060010160006101000a81548173ffffffffffffffffffffffffffffffffffffffff021916908373ffffffffffffffffffffffffffffffffffffffff1602179055506001600b600083815260200190815260200160002060040160006101000a81548160ff0219169083151502179055506109946008611d36565b61099f303383611d4c565b50565b6109b36109ad611c75565b82611fb3565b6109f2576040517f08c379a00000000000000000000000000000000000000000000000000000000081526004016109e990613b2e565b60405180910390fd5b6109fd838383611d4c565b505050565b610a1d83838360405180602001604052806000815250611279565b505050565b6000806002600084815260200190815260200160002060009054906101000a900473ffffffffffffffffffffffffffffffffffffffff169050600073ffffffffffffffffffffffffffffffffffffffff168173ffffffffffffffffffffffffffffffffffffffff161415610acb576040517f08c379a0000000000000000000000000000000000000000000000000000000008152600401610ac290613a4e565b60405180910390fd5b80915050919050565b60008073ffffffffffffffffffffffffffffffffffffffff168273ffffffffffffffffffffffffffffffffffffffff161415610b45576040517f08c379a0000000000000000000000000000000000000000000000000000000008152600401610b3c90613a2e565b60405180910390fd5b600360008373ffffffffffffffffffffffffffffffffffffffff1673ffffffffffffffffffffffffffffffffffffffff168152602001908152602001600020549050919050565b6000610b986007611d36565b6000610ba46007612091565b9050610bb0338261209f565b610bba8185612279565b610bc481846122ed565b8091505092915050565b6000600a60009054906101000a900473ffffffffffffffffffffffffffffffffffffffff16905090565b600080610c058484610b8c565b9050610c10856124e0565b809150509392505050565b606060018054610c2a90613def565b80601f0160208091040260200160405190810160405280929190818152602001828054610c5690613def565b8015610ca35780601f10610c7857610100808354040283529160200191610ca3565b820191906000526020600020905b815481529060010190602001808311610c8657829003601f168201915b5050505050905090565b610cbf610cb8611c75565b8383612533565b5050565b60606000610cd16007612091565b9050600080610cde6126a0565b67ffffffffffffffff811115610d1d577f4e487b7100000000000000000000000000000000000000000000000000000000600052604160045260246000fd5b604051908082528060200260200182016040528015610d5657816020015b610d43612e3f565b815260200190600190039081610d3b5790505b5090506000600190505b838111610f31573373ffffffffffffffffffffffffffffffffffffffff16600b600083815260200190815260200160002060010160009054906101000a900473ffffffffffffffffffffffffffffffffffffffff1673ffffffffffffffffffffffffffffffffffffffff161415610f1e57600b60008281526020019081526020016000206040518060a0016040529081600082015481526020016001820160009054906101000a900473ffffffffffffffffffffffffffffffffffffffff1673ffffffffffffffffffffffffffffffffffffffff1673ffffffffffffffffffffffffffffffffffffffff1681526020016002820160009054906101000a900473ffffffffffffffffffffffffffffffffffffffff1673ffffffffffffffffffffffffffffffffffffffff1673ffffffffffffffffffffffffffffffffffffffff168152602001600382015481526020016004820160009054906101000a900460ff161515151581525050828481518110610f03577f4e487b7100000000000000000000000000000000000000000000000000000000600052603260045260246000fd5b6020026020010181905250600183610f1b9190613c6c565b92505b8080610f2990613e52565b915050610d60565b5080935050505090565b60606000610f496007612091565b9050600080610f56612754565b67ffffffffffffffff811115610f95577f4e487b7100000000000000000000000000000000000000000000000000000000600052604160045260246000fd5b604051908082528060200260200182016040528015610fce57816020015b610fbb612e3f565b815260200190600190039081610fb35790505b5090506000600190505b8381116111dc573373ffffffffffffffffffffffffffffffffffffffff16600b600083815260200190815260200160002060020160009054906101000a900473ffffffffffffffffffffffffffffffffffffffff1673ffffffffffffffffffffffffffffffffffffffff16148015611077575060011515600b600083815260200190815260200160002060040160009054906101000a900460ff161515145b156111c957600b60008281526020019081526020016000206040518060a0016040529081600082015481526020016001820160009054906101000a900473ffffffffffffffffffffffffffffffffffffffff1673ffffffffffffffffffffffffffffffffffffffff1673ffffffffffffffffffffffffffffffffffffffff1681526020016002820160009054906101000a900473ffffffffffffffffffffffffffffffffffffffff1673ffffffffffffffffffffffffffffffffffffffff1673ffffffffffffffffffffffffffffffffffffffff168152602001600382015481526020016004820160009054906101000a900460ff1615151515815250508284815181106111ae577f4e487b7100000000000000000000000000000000000000000000000000000000600052603260045260246000fd5b60200260200101819052506001836111c69190613c6c565b92505b80806111d490613e52565b915050610fd8565b5080935050505090565b338073ffffffffffffffffffffffffffffffffffffffff16600a60009054906101000a900473ffffffffffffffffffffffffffffffffffffffff1673ffffffffffffffffffffffffffffffffffffffff161461126e576040517f0713223200000000000000000000000000000000000000000000000000000000815260040160405180910390fd5b816009819055505050565b61128a611284611c75565b83611fb3565b6112c9576040517f08c379a00000000000000000000000000000000000000000000000000000000081526004016112c090613b2e565b60405180910390fd5b6112d58484848461283b565b50505050565b60606112e682611c09565b611325576040517f08c379a000000000000000000000000000000000000000000000000000000000815260040161131c90613aae565b60405180910390fd5b600060066000848152602001908152602001600020805461134590613def565b80601f016020809104026020016040519081016040528092919081815260200182805461137190613def565b80156113be5780601f10611393576101008083540402835291602001916113be565b820191906000526020600020905b8154815290600101906020018083116113a157829003601f168201915b5050505050905060006113cf612897565b90506000815114156113e5578192505050611428565b60008251111561141a5780826040516020016114029291906137ff565b60405160208183030381529060405292505050611428565b611423846128ae565b925050505b919050565b6060600061143b6007612091565b905060006114496008612091565b6114536007612091565b61145d9190613cf3565b90506000808267ffffffffffffffff8111156114a2577f4e487b7100000000000000000000000000000000000000000000000000000000600052604160045260246000fd5b6040519080825280602002602001820160405280156114db57816020015b6114c8612e3f565b8152602001906001900390816114c05790505b5090506000600190505b8481116116b6573073ffffffffffffffffffffffffffffffffffffffff16600b600083815260200190815260200160002060020160009054906101000a900473ffffffffffffffffffffffffffffffffffffffff1673ffffffffffffffffffffffffffffffffffffffff1614156116a357600b60008281526020019081526020016000206040518060a0016040529081600082015481526020016001820160009054906101000a900473ffffffffffffffffffffffffffffffffffffffff1673ffffffffffffffffffffffffffffffffffffffff1673ffffffffffffffffffffffffffffffffffffffff1681526020016002820160009054906101000a900473ffffffffffffffffffffffffffffffffffffffff1673ffffffffffffffffffffffffffffffffffffffff1673ffffffffffffffffffffffffffffffffffffffff168152602001600382015481526020016004820160009054906101000a900460ff161515151581525050828481518110611688577f4e487b7100000000000000000000000000000000000000000000000000000000600052603260045260246000fd5b60200260200101819052506001836116a09190613c6c565b92505b80806116ae90613e52565b9150506114e5565b508094505050505090565b600b600082815260200190815260200160002060030154803414611711576040517f6cf09b4d00000000000000000000000000000000000000000000000000000000815260040160405180910390fd5b33600b600084815260200190815260200160002060020160006101000a81548173ffffffffffffffffffffffffffffffffffffffff021916908373ffffffffffffffffffffffffffffffffffffffff1602179055506000600b600084815260200190815260200160002060010160006101000a81548173ffffffffffffffffffffffffffffffffffffffff021916908373ffffffffffffffffffffffffffffffffffffffff1602179055506001600b600084815260200190815260200160002060040160006101000a81548160ff0219169083151502179055506117f56008611d36565b611800303384611d4c565b600a60009054906101000a900473ffffffffffffffffffffffffffffffffffffffff1673ffffffffffffffffffffffffffffffffffffffff166108fc6009549081150290604051600060405180830381858888f1935050505015801561186a573d6000803e3d6000fd5b50600b600083815260200190815260200160002060010160009054906101000a900473ffffffffffffffffffffffffffffffffffffffff1673ffffffffffffffffffffffffffffffffffffffff166108fc349081150290604051600060405180830381858888f193505050501580156118e7573d6000803e3d6000fd5b505050565b8060008111611927576040517fbff7dcf800000000000000000000000000000000000000000000000000000000815260040160405180910390fd5b6009543414611962576040517fce9f55b900000000000000000000000000000000000000000000000000000000815260040160405180910390fd5b3373ffffffffffffffffffffffffffffffffffffffff16600b600085815260200190815260200160002060020160009054906101000a900473ffffffffffffffffffffffffffffffffffffffff1673ffffffffffffffffffffffffffffffffffffffff16146119fd576040517f0713223200000000000000000000000000000000000000000000000000000000815260040160405180910390fd5b81600b60008581526020019081526020016000206003018190555033600b600085815260200190815260200160002060010160006101000a81548173ffffffffffffffffffffffffffffffffffffffff021916908373ffffffffffffffffffffffffffffffffffffffff16021790555030600b600085815260200190815260200160002060020160006101000a81548173ffffffffffffffffffffffffffffffffffffffff021916908373ffffffffffffffffffffffffffffffffffffffff1602179055506000600b600085815260200190815260200160002060040160006101000a81548160ff021916908315150217905550611afb6008612955565b611b06333085611d4c565b505050565b6000600560008473ffffffffffffffffffffffffffffffffffffffff1673ffffffffffffffffffffffffffffffffffffffff16815260200190815260200160002060008373ffffffffffffffffffffffffffffffffffffffff1673ffffffffffffffffffffffffffffffffffffffff16815260200190815260200160002060009054906101000a900460ff16905092915050565b60007f01ffc9a7000000000000000000000000000000000000000000000000000000007bffffffffffffffffffffffffffffffffffffffffffffffffffffffff1916827bffffffffffffffffffffffffffffffffffffffffffffffffffffffff1916149050919050565b60008073ffffffffffffffffffffffffffffffffffffffff166002600084815260200190815260200160002060009054906101000a900473ffffffffffffffffffffffffffffffffffffffff1673ffffffffffffffffffffffffffffffffffffffff1614159050919050565b600033905090565b816004600083815260200190815260200160002060006101000a81548173ffffffffffffffffffffffffffffffffffffffff021916908373ffffffffffffffffffffffffffffffffffffffff160217905550808273ffffffffffffffffffffffffffffffffffffffff16611cf083610a22565b73ffffffffffffffffffffffffffffffffffffffff167f8c5be1e5ebec7d5bd14f71427d1e84f3dd0314c0f7b2291e5b200ac8c7c3b92560405160405180910390a45050565b6001816000016000828254019250508190555050565b8273ffffffffffffffffffffffffffffffffffffffff16611d6c82610a22565b73ffffffffffffffffffffffffffffffffffffffff1614611dc2576040517f08c379a0000000000000000000000000000000000000000000000000000000008152600401611db99061396e565b60405180910390fd5b600073ffffffffffffffffffffffffffffffffffffffff168273ffffffffffffffffffffffffffffffffffffffff161415611e32576040517f08c379a0000000000000000000000000000000000000000000000000000000008152600401611e29906139ae565b60405180910390fd5b611e3d8383836129b1565b611e48600082611c7d565b6001600360008573ffffffffffffffffffffffffffffffffffffffff1673ffffffffffffffffffffffffffffffffffffffff1681526020019081526020016000206000828254611e989190613cf3565b925050819055506001600360008473ffffffffffffffffffffffffffffffffffffffff1673ffffffffffffffffffffffffffffffffffffffff1681526020019081526020016000206000828254611eef9190613c6c565b92505081905550816002600083815260200190815260200160002060006101000a81548173ffffffffffffffffffffffffffffffffffffffff021916908373ffffffffffffffffffffffffffffffffffffffff160217905550808273ffffffffffffffffffffffffffffffffffffffff168473ffffffffffffffffffffffffffffffffffffffff167fddf252ad1be2c89b69c2b068fc378daa952ba7f163c4a11628f55a4df523b3ef60405160405180910390a4611fae8383836129b6565b505050565b6000611fbe82611c09565b611ffd576040517f08c379a0000000000000000000000000000000000000000000000000000000008152600401611ff4906139ee565b60405180910390fd5b600061200883610a22565b90508073ffffffffffffffffffffffffffffffffffffffff168473ffffffffffffffffffffffffffffffffffffffff16148061207757508373ffffffffffffffffffffffffffffffffffffffff1661205f84610709565b73ffffffffffffffffffffffffffffffffffffffff16145b8061208857506120878185611b0b565b5b91505092915050565b600081600001549050919050565b600073ffffffffffffffffffffffffffffffffffffffff168273ffffffffffffffffffffffffffffffffffffffff16141561210f576040517f08c379a000000000000000000000000000000000000000000000000000000000815260040161210690613a8e565b60405180910390fd5b61211881611c09565b15612158576040517f08c379a000000000000000000000000000000000000000000000000000000000815260040161214f9061398e565b60405180910390fd5b612164600083836129b1565b6001600360008473ffffffffffffffffffffffffffffffffffffffff1673ffffffffffffffffffffffffffffffffffffffff16815260200190815260200160002060008282546121b49190613c6c565b92505081905550816002600083815260200190815260200160002060006101000a81548173ffffffffffffffffffffffffffffffffffffffff021916908373ffffffffffffffffffffffffffffffffffffffff160217905550808273ffffffffffffffffffffffffffffffffffffffff16600073ffffffffffffffffffffffffffffffffffffffff167fddf252ad1be2c89b69c2b068fc378daa952ba7f163c4a11628f55a4df523b3ef60405160405180910390a4612275600083836129b6565b5050565b61228282611c09565b6122c1576040517f08c379a00000000000000000000000000000000000000000000000000000000081526004016122b890613a6e565b60405180910390fd5b806006600084815260200190815260200160002090805190602001906122e8929190612e9c565b505050565b8060008111612328576040517fbff7dcf800000000000000000000000000000000000000000000000000000000815260040160405180910390fd5b6009543414612363576040517fce9f55b900000000000000000000000000000000000000000000000000000000815260040160405180910390fd5b6040518060a001604052808481526020013373ffffffffffffffffffffffffffffffffffffffff1681526020013073ffffffffffffffffffffffffffffffffffffffff16815260200183815260200160001515815250600b60008581526020019081526020016000206000820151816000015560208201518160010160006101000a81548173ffffffffffffffffffffffffffffffffffffffff021916908373ffffffffffffffffffffffffffffffffffffffff16021790555060408201518160020160006101000a81548173ffffffffffffffffffffffffffffffffffffffff021916908373ffffffffffffffffffffffffffffffffffffffff1602179055506060820151816003015560808201518160040160006101000a81548160ff02191690831515021790555090505061249c333085611d4c565b827fdeb96ac264826584ed864590b3f24bcb64ed3ce343c1e95abde59178508c66c133308560006040516124d3949392919061383e565b60405180910390a2505050565b6124e9816129bb565b600060066000838152602001908152602001600020805461250990613def565b9050146125305760066000828152602001908152602001600020600061252f9190612f22565b5b50565b8173ffffffffffffffffffffffffffffffffffffffff168373ffffffffffffffffffffffffffffffffffffffff1614156125a2576040517f08c379a0000000000000000000000000000000000000000000000000000000008152600401612599906139ce565b60405180910390fd5b80600560008573ffffffffffffffffffffffffffffffffffffffff1673ffffffffffffffffffffffffffffffffffffffff16815260200190815260200160002060008473ffffffffffffffffffffffffffffffffffffffff1673ffffffffffffffffffffffffffffffffffffffff16815260200190815260200160002060006101000a81548160ff0219169083151502179055508173ffffffffffffffffffffffffffffffffffffffff168373ffffffffffffffffffffffffffffffffffffffff167f17307eab39ab6107e8899845ad3d59bd9653f200f220920489ca2b5937696c318360405161269391906138f1565b60405180910390a3505050565b6000806126ad6007612091565b9050600080600190505b82811161274b573373ffffffffffffffffffffffffffffffffffffffff16600b600083815260200190815260200160002060010160009054906101000a900473ffffffffffffffffffffffffffffffffffffffff1673ffffffffffffffffffffffffffffffffffffffff161415612738576001826127359190613c6c565b91505b808061274390613e52565b9150506126b7565b50809250505090565b6000806127616007612091565b9050600080600190505b828111612832573373ffffffffffffffffffffffffffffffffffffffff16600b600083815260200190815260200160002060020160009054906101000a900473ffffffffffffffffffffffffffffffffffffffff1673ffffffffffffffffffffffffffffffffffffffff1614801561280a575060011515600b600083815260200190815260200160002060040160009054906101000a900460ff161515145b1561281f5760018261281c9190613c6c565b91505b808061282a90613e52565b91505061276b565b50809250505090565b612846848484611d4c565b61285284848484612ad8565b612891576040517f08c379a00000000000000000000000000000000000000000000000000000000081526004016128889061394e565b60405180910390fd5b50505050565b606060405180602001604052806000815250905090565b60606128b982611c09565b6128f8576040517f08c379a00000000000000000000000000000000000000000000000000000000081526004016128ef90613aee565b60405180910390fd5b6000612902612897565b90506000815111612922576040518060200160405280600081525061294d565b8061292c84612c6f565b60405160200161293d9291906137ff565b6040516020818303038152906040525b915050919050565b600081600001549050600081116129a1576040517f08c379a00000000000000000000000000000000000000000000000000000000081526004016129989061392e565b60405180910390fd5b6001810382600001819055505050565b505050565b505050565b60006129c682610a22565b90506129d4816000846129b1565b6129df600083611c7d565b6001600360008373ffffffffffffffffffffffffffffffffffffffff1673ffffffffffffffffffffffffffffffffffffffff1681526020019081526020016000206000828254612a2f9190613cf3565b925050819055506002600083815260200190815260200160002060006101000a81549073ffffffffffffffffffffffffffffffffffffffff021916905581600073ffffffffffffffffffffffffffffffffffffffff168273ffffffffffffffffffffffffffffffffffffffff167fddf252ad1be2c89b69c2b068fc378daa952ba7f163c4a11628f55a4df523b3ef60405160405180910390a4612ad4816000846129b6565b5050565b6000612af98473ffffffffffffffffffffffffffffffffffffffff16612e1c565b15612c62578373ffffffffffffffffffffffffffffffffffffffff1663150b7a02612b22611c75565b8786866040518563ffffffff1660e01b8152600401612b449493929190613883565b602060405180830381600087803b158015612b5e57600080fd5b505af1925050508015612b8f57506040513d601f19601f82011682018060405250810190612b8c9190613288565b60015b612c12573d8060008114612bbf576040519150601f19603f3d011682016040523d82523d6000602084013e612bc4565b606091505b50600081511415612c0a576040517f08c379a0000000000000000000000000000000000000000000000000000000008152600401612c019061394e565b60405180910390fd5b805181602001fd5b63150b7a0260e01b7bffffffffffffffffffffffffffffffffffffffffffffffffffffffff1916817bffffffffffffffffffffffffffffffffffffffffffffffffffffffff191614915050612c67565b600190505b949350505050565b60606000821415612cb7576040518060400160405280600181526020017f30000000000000000000000000000000000000000000000000000000000000008152509050612e17565b600082905060005b60008214612ce9578080612cd290613e52565b915050600a82612ce29190613cc2565b9150612cbf565b60008167ffffffffffffffff811115612d2b577f4e487b7100000000000000000000000000000000000000000000000000000000600052604160045260246000fd5b6040519080825280601f01601f191660200182016040528015612d5d5781602001600182028036833780820191505090505b5090505b60008514612e1057600182612d769190613cf3565b9150600a85612d859190613e9b565b6030612d919190613c6c565b60f81b818381518110612dcd577f4e487b7100000000000000000000000000000000000000000000000000000000600052603260045260246000fd5b60200101907effffffffffffffffffffffffffffffffffffffffffffffffffffffffffffff1916908160001a905350600a85612e099190613cc2565b9450612d61565b8093505050505b919050565b6000808273ffffffffffffffffffffffffffffffffffffffff163b119050919050565b6040518060a0016040528060008152602001600073ffffffffffffffffffffffffffffffffffffffff168152602001600073ffffffffffffffffffffffffffffffffffffffff168152602001600081526020016000151581525090565b828054612ea890613def565b90600052602060002090601f016020900481019282612eca5760008555612f11565b82601f10612ee357805160ff1916838001178555612f11565b82800160010185558215612f11579182015b82811115612f10578251825591602001919060010190612ef5565b5b509050612f1e9190612f62565b5090565b508054612f2e90613def565b6000825580601f10612f405750612f5f565b601f016020900490600052602060002090810190612f5e9190612f62565b5b50565b5b80821115612f7b576000816000905550600101612f63565b5090565b6000612f92612f8d84613b8e565b613b69565b905082815260208101848484011115612faa57600080fd5b612fb5848285613dad565b509392505050565b6000612fd0612fcb84613bbf565b613b69565b905082815260208101848484011115612fe857600080fd5b612ff3848285613dad565b509392505050565b60008135905061300a81614440565b92915050565b60008135905061301f81614457565b92915050565b6000813590506130348161446e565b92915050565b6000815190506130498161446e565b92915050565b600082601f83011261306057600080fd5b8135613070848260208601612f7f565b91505092915050565b600082601f83011261308a57600080fd5b813561309a848260208601612fbd565b91505092915050565b6000813590506130b281614485565b92915050565b6000602082840312156130ca57600080fd5b60006130d884828501612ffb565b91505092915050565b600080604083850312156130f457600080fd5b600061310285828601612ffb565b925050602061311385828601612ffb565b9150509250929050565b60008060006060848603121561313257600080fd5b600061314086828701612ffb565b935050602061315186828701612ffb565b9250506040613162868287016130a3565b9150509250925092565b6000806000806080858703121561318257600080fd5b600061319087828801612ffb565b94505060206131a187828801612ffb565b93505060406131b2878288016130a3565b925050606085013567ffffffffffffffff8111156131cf57600080fd5b6131db8782880161304f565b91505092959194509250565b600080604083850312156131fa57600080fd5b600061320885828601612ffb565b925050602061321985828601613010565b9150509250929050565b6000806040838503121561323657600080fd5b600061324485828601612ffb565b9250506020613255858286016130a3565b9150509250929050565b60006020828403121561327157600080fd5b600061327f84828501613025565b91505092915050565b60006020828403121561329a57600080fd5b60006132a88482850161303a565b91505092915050565b600080604083850312156132c457600080fd5b600083013567ffffffffffffffff8111156132de57600080fd5b6132ea85828601613079565b92505060206132fb858286016130a3565b9150509250929050565b60006020828403121561331757600080fd5b6000613325848285016130a3565b91505092915050565b60008060006060848603121561334357600080fd5b6000613351868287016130a3565b935050602084013567ffffffffffffffff81111561336e57600080fd5b61337a86828701613079565b925050604061338b868287016130a3565b9150509250925092565b600080604083850312156133a857600080fd5b60006133b6858286016130a3565b92505060206133c7858286016130a3565b9150509250929050565b60006133dd8383613779565b60a08301905092915050565b6133f281613d39565b82525050565b61340181613d27565b82525050565b600061341282613c00565b61341c8185613c2e565b935061342783613bf0565b8060005b8381101561345857815161343f88826133d1565b975061344a83613c21565b92505060018101905061342b565b5085935050505092915050565b61346e81613d4b565b82525050565b61347d81613d4b565b82525050565b600061348e82613c0b565b6134988185613c3f565b93506134a8818560208601613dbc565b6134b181613f88565b840191505092915050565b60006134c782613c16565b6134d18185613c50565b93506134e1818560208601613dbc565b6134ea81613f88565b840191505092915050565b600061350082613c16565b61350a8185613c61565b935061351a818560208601613dbc565b80840191505092915050565b6000613533601b83613c50565b915061353e82613f99565b602082019050919050565b6000613556603283613c50565b915061356182613fc2565b604082019050919050565b6000613579602583613c50565b915061358482614011565b604082019050919050565b600061359c601c83613c50565b91506135a782614060565b602082019050919050565b60006135bf602483613c50565b91506135ca82614089565b604082019050919050565b60006135e2601983613c50565b91506135ed826140d8565b602082019050919050565b6000613605602c83613c50565b915061361082614101565b604082019050919050565b6000613628603883613c50565b915061363382614150565b604082019050919050565b600061364b602a83613c50565b91506136568261419f565b604082019050919050565b600061366e602983613c50565b9150613679826141ee565b604082019050919050565b6000613691602e83613c50565b915061369c8261423d565b604082019050919050565b60006136b4602083613c50565b91506136bf8261428c565b602082019050919050565b60006136d7603183613c50565b91506136e2826142b5565b604082019050919050565b60006136fa602c83613c50565b915061370582614304565b604082019050919050565b600061371d602f83613c50565b915061372882614353565b604082019050919050565b6000613740602183613c50565b915061374b826143a2565b604082019050919050565b6000613763603183613c50565b915061376e826143f1565b604082019050919050565b60a08201600082015161378f60008501826137e1565b5060208201516137a260208501826133e9565b5060408201516137b560408501826133e9565b5060608201516137c860608501826137e1565b5060808201516137db6080850182613465565b50505050565b6137ea81613da3565b82525050565b6137f981613da3565b82525050565b600061380b82856134f5565b915061381782846134f5565b91508190509392505050565b600060208201905061383860008301846133f8565b92915050565b600060808201905061385360008301876133f8565b61386060208301866133f8565b61386d60408301856137f0565b61387a6060830184613474565b95945050505050565b600060808201905061389860008301876133f8565b6138a560208301866133f8565b6138b260408301856137f0565b81810360608301526138c48184613483565b905095945050505050565b600060208201905081810360008301526138e98184613407565b905092915050565b60006020820190506139066000830184613474565b92915050565b6000602082019050818103600083015261392681846134bc565b905092915050565b6000602082019050818103600083015261394781613526565b9050919050565b6000602082019050818103600083015261396781613549565b9050919050565b600060208201905081810360008301526139878161356c565b9050919050565b600060208201905081810360008301526139a78161358f565b9050919050565b600060208201905081810360008301526139c7816135b2565b9050919050565b600060208201905081810360008301526139e7816135d5565b9050919050565b60006020820190508181036000830152613a07816135f8565b9050919050565b60006020820190508181036000830152613a278161361b565b9050919050565b60006020820190508181036000830152613a478161363e565b9050919050565b60006020820190508181036000830152613a6781613661565b9050919050565b60006020820190508181036000830152613a8781613684565b9050919050565b60006020820190508181036000830152613aa7816136a7565b9050919050565b60006020820190508181036000830152613ac7816136ca565b9050919050565b60006020820190508181036000830152613ae7816136ed565b9050919050565b60006020820190508181036000830152613b0781613710565b9050919050565b60006020820190508181036000830152613b2781613733565b9050919050565b60006020820190508181036000830152613b4781613756565b9050919050565b6000602082019050613b6360008301846137f0565b92915050565b6000613b73613b84565b9050613b7f8282613e21565b919050565b6000604051905090565b600067ffffffffffffffff821115613ba957613ba8613f59565b5b613bb282613f88565b9050602081019050919050565b600067ffffffffffffffff821115613bda57613bd9613f59565b5b613be382613f88565b9050602081019050919050565b6000819050602082019050919050565b600081519050919050565b600081519050919050565b600081519050919050565b6000602082019050919050565b600082825260208201905092915050565b600082825260208201905092915050565b600082825260208201905092915050565b600081905092915050565b6000613c7782613da3565b9150613c8283613da3565b9250827fffffffffffffffffffffffffffffffffffffffffffffffffffffffffffffffff03821115613cb757613cb6613ecc565b5b828201905092915050565b6000613ccd82613da3565b9150613cd883613da3565b925082613ce857613ce7613efb565b5b828204905092915050565b6000613cfe82613da3565b9150613d0983613da3565b925082821015613d1c57613d1b613ecc565b5b828203905092915050565b6000613d3282613d83565b9050919050565b6000613d4482613d83565b9050919050565b60008115159050919050565b60007fffffffff0000000000000000000000000000000000000000000000000000000082169050919050565b600073ffffffffffffffffffffffffffffffffffffffff82169050919050565b6000819050919050565b82818337600083830152505050565b60005b83811015613dda578082015181840152602081019050613dbf565b83811115613de9576000848401525b50505050565b60006002820490506001821680613e0757607f821691505b60208210811415613e1b57613e1a613f2a565b5b50919050565b613e2a82613f88565b810181811067ffffffffffffffff82111715613e4957613e48613f59565b5b80604052505050565b6000613e5d82613da3565b91507fffffffffffffffffffffffffffffffffffffffffffffffffffffffffffffffff821415613e9057613e8f613ecc565b5b600182019050919050565b6000613ea682613da3565b9150613eb183613da3565b925082613ec157613ec0613efb565b5b828206905092915050565b7f4e487b7100000000000000000000000000000000000000000000000000000000600052601160045260246000fd5b7f4e487b7100000000000000000000000000000000000000000000000000000000600052601260045260246000fd5b7f4e487b7100000000000000000000000000000000000000000000000000000000600052602260045260246000fd5b7f4e487b7100000000000000000000000000000000000000000000000000000000600052604160045260246000fd5b6000601f19601f8301169050919050565b7f436f756e7465723a2064656372656d656e74206f766572666c6f770000000000600082015250565b7f4552433732313a207472616e7366657220746f206e6f6e20455243373231526560008201527f63656976657220696d706c656d656e7465720000000000000000000000000000602082015250565b7f4552433732313a207472616e736665722066726f6d20696e636f72726563742060008201527f6f776e6572000000000000000000000000000000000000000000000000000000602082015250565b7f4552433732313a20746f6b656e20616c7265616479206d696e74656400000000600082015250565b7f4552433732313a207472616e7366657220746f20746865207a65726f2061646460008201527f7265737300000000000000000000000000000000000000000000000000000000602082015250565b7f4552433732313a20617070726f766520746f2063616c6c657200000000000000600082015250565b7f4552433732313a206f70657261746f7220717565727920666f72206e6f6e657860008201527f697374656e7420746f6b656e0000000000000000000000000000000000000000602082015250565b7f4552433732313a20617070726f76652063616c6c6572206973206e6f74206f7760008201527f6e6572206e6f7220617070726f76656420666f7220616c6c0000000000000000602082015250565b7f4552433732313a2062616c616e636520717565727920666f7220746865207a6560008201527f726f206164647265737300000000000000000000000000000000000000000000602082015250565b7f4552433732313a206f776e657220717565727920666f72206e6f6e657869737460008201527f656e7420746f6b656e0000000000000000000000000000000000000000000000602082015250565b7f45524337323155524953746f726167653a2055524920736574206f66206e6f6e60008201527f6578697374656e7420746f6b656e000000000000000000000000000000000000602082015250565b7f4552433732313a206d696e7420746f20746865207a65726f2061646472657373600082015250565b7f45524337323155524953746f726167653a2055524920717565727920666f722060008201527f6e6f6e6578697374656e7420746f6b656e000000000000000000000000000000602082015250565b7f4552433732313a20617070726f76656420717565727920666f72206e6f6e657860008201527f697374656e7420746f6b656e0000000000000000000000000000000000000000602082015250565b7f4552433732314d657461646174613a2055524920717565727920666f72206e6f60008201527f6e6578697374656e7420746f6b656e0000000000000000000000000000000000602082015250565b7f4552433732313a20617070726f76616c20746f2063757272656e74206f776e6560008201527f7200000000000000000000000000000000000000000000000000000000000000602082015250565b7f4552433732313a207472616e736665722063616c6c6572206973206e6f74206f60008201527f776e6572206e6f7220617070726f766564000000000000000000000000000000602082015250565b61444981613d27565b811461445457600080fd5b50565b61446081613d4b565b811461446b57600080fd5b50565b61447781613d57565b811461448257600080fd5b50565b61448e81613da3565b811461449957600080fd5b5056fea264697066735822122053fbcd3755249adaf6d7da1b48c00f4944efbc406a252085893b901f09cea75e64736f6c63430008040033",
  "linkReferences": {},
  "deployedLinkReferences": {}
}