{
  "_format": "hh-sol-artifact-1",
  "contractName": "RealEstateMarketplace",
  "sourceName": "contracts/RealEstateMarketplace.sol",
  "abi": [
    {
      "inputs": [],
      "stateMutability": "nonpayable",
      "type": "constructor"
    },
    {
      "anonymous": false,
      "inputs": [
        {
          "indexed": true,
          "internalType": "address",
          "name": "owner",
          "type": "address"
        },
        {
          "indexed": true,
          "internalType": "address",
          "name": "approved",
          "type": "address"
        },
        {
          "indexed": true,
          "internalType": "uint256",
          "name": "tokenId",
          "type": "uint256"
        }
      ],
      "name": "Approval",
      "type": "event"
    },
    {
      "anonymous": false,
      "inputs": [
        {
          "indexed": true,
          "internalType": "address",
          "name": "owner",
          "type": "address"
        },
        {
          "indexed": true,
          "internalType": "address",
          "name": "operator",
          "type": "address"
        },
        {
          "indexed": false,
          "internalType": "bool",
          "name": "approved",
          "type": "bool"
        }
      ],
      "name": "ApprovalForAll",
      "type": "event"
    },
    {
      "anonymous": false,
      "inputs": [
        {
          "indexed": true,
          "internalType": "uint256",
          "name": "tokenId",
          "type": "uint256"
        },
        {
          "indexed": false,
          "internalType": "address",
          "name": "seller",
          "type": "address"
        },
        {
          "indexed": false,
          "internalType": "address",
          "name": "owner",
          "type": "address"
        },
        {
          "indexed": false,
          "internalType": "uint256",
          "name": "price",
          "type": "uint256"
        },
        {
          "indexed": false,
          "internalType": "bool",
          "name": "sold",
          "type": "bool"
        }
      ],
      "name": "PropertyListed",
      "type": "event"
    },
    {
      "anonymous": false,
      "inputs": [
        {
          "indexed": true,
          "internalType": "address",
          "name": "from",
          "type": "address"
        },
        {
          "indexed": true,
          "internalType": "address",
          "name": "to",
          "type": "address"
        },
        {
          "indexed": true,
          "internalType": "uint256",
          "name": "tokenId",
          "type": "uint256"
        }
      ],
      "name": "Transfer",
      "type": "event"
    },
    {
      "inputs": [
        {
          "internalType": "address",
          "name": "to",
          "type": "address"
        },
        {
          "internalType": "uint256",
          "name": "tokenId",
          "type": "uint256"
        }
      ],
      "name": "approve",
      "outputs": [],
      "stateMutability": "nonpayable",
      "type": "function"
    },
    {
      "inputs": [
        {
          "internalType": "address",
          "name": "owner",
          "type": "address"
        }
      ],
      "name": "balanceOf",
      "outputs": [
        {
          "internalType": "uint256",
          "name": "",
          "type": "uint256"
        }
      ],
      "stateMutability": "view",
      "type": "function"
    },
    {
      "inputs": [
        {
          "internalType": "uint256",
          "name": "tokenId",
          "type": "uint256"
        }
      ],
      "name": "createPropertySale",
      "outputs": [],
      "stateMutability": "payable",
      "type": "function"
    },
    {
      "inputs": [
        {
          "internalType": "string",
          "name": "tokenURI",
          "type": "string"
        },
        {
          "internalType": "uint256",
          "name": "price",
          "type": "uint256"
        }
      ],
      "name": "createToken",
      "outputs": [
        {
          "internalType": "uint256",
          "name": "",
          "type": "uint256"
        }
      ],
      "stateMutability": "payable",
      "type": "function"
    },
    {
      "inputs": [],
      "name": "fetchMyListedProperties",
      "outputs": [
        {
          "components": [
            {
              "internalType": "uint256",
              "name": "tokenId",
              "type": "uint256"
            },
            {
              "internalType": "address payable",
              "name": "seller",
              "type": "address"
            },
            {
              "internalType": "address payable",
              "name": "owner",
              "type": "address"
            },
            {
              "internalType": "uint256",
              "name": "price",
              "type": "uint256"
            },
            {
              "internalType": "bool",
              "name": "sold",
              "type": "bool"
            }
          ],
          "internalType": "struct RealEstateMarketplace.Property[]",
          "name": "",
          "type": "tuple[]"
        }
      ],
      "stateMutability": "view",
      "type": "function"
    },
    {
      "inputs": [],
      "name": "fetchMyPurchasedProperties",
      "outputs": [
        {
          "components": [
            {
              "internalType": "uint256",
              "name": "tokenId",
              "type": "uint256"
            },
            {
              "internalType": "address payable",
              "name": "seller",
              "type": "address"
            },
            {
              "internalType": "address payable",
              "name": "owner",
              "type": "address"
            },
            {
              "internalType": "uint256",
              "name": "price",
              "type": "uint256"
            },
            {
              "internalType": "bool",
              "name": "sold",
              "type": "bool"
            }
          ],
          "internalType": "struct RealEstateMarketplace.Property[]",
          "name": "",
          "type": "tuple[]"
        }
      ],
      "stateMutability": "view",
      "type": "function"
    },
    {
      "inputs": [],
      "name": "fetchUnsoldProperties",
      "outputs": [
        {
          "components": [
            {
              "internalType": "uint256",
              "name": "tokenId",
              "type": "uint256"
            },
            {
              "internalType": "address payable",
              "name": "seller",
              "type": "address"
            },
            {
              "internalType": "address payable",
              "name": "owner",
              "type": "address"
            },
            {
              "internalType": "uint256",
              "name": "price",
              "type": "uint256"
            },
            {
              "internalType": "bool",
              "name": "sold",
              "type": "bool"
            }
          ],
          "internalType": "struct RealEstateMarketplace.Property[]",
          "name": "",
          "type": "tuple[]"
        }
      ],
      "stateMutability": "view",
      "type": "function"
    },
    {
      "inputs": [
        {
          "internalType": "uint256",
          "name": "tokenId",
          "type": "uint256"
        }
      ],
      "name": "getApproved",
      "outputs": [
        {
          "internalType": "address",
          "name": "",
          "type": "address"
        }
      ],
      "stateMutability": "view",
      "type": "function"
    },
    {
      "inputs": [],
      "name": "getListingPrice",
      "outputs": [
        {
          "internalType": "uint256",
          "name": "",
          "type": "uint256"
        }
      ],
      "stateMutability": "view",
      "type": "function"
    },
    {
      "inputs": [],
      "name": "getOwner",
      "outputs": [
        {
          "internalType": "address",
          "name": "",
          "type": "address"
        }
      ],
      "stateMutability": "view",
      "type": "function"
    },
    {
      "inputs": [
        {
          "internalType": "address",
          "name": "owner",
          "type": "address"
        },
        {
          "internalType": "address",
          "name": "operator",
          "type": "address"
        }
      ],
      "name": "isApprovedForAll",
      "outputs": [
        {
          "internalType": "bool",
          "name": "",
          "type": "bool"
        }
      ],
      "stateMutability": "view",
      "type": "function"
    },
    {
      "inputs": [],
      "name": "name",
      "outputs": [
        {
          "internalType": "string",
          "name": "",
          "type": "string"
        }
      ],
      "stateMutability": "view",
      "type": "function"
    },
    {
      "inputs": [
        {
          "internalType": "uint256",
          "name": "tokenId",
          "type": "uint256"
        }
      ],
      "name": "ownerOf",
      "outputs": [
        {
          "internalType": "address",
          "name": "",
          "type": "address"
        }
      ],
      "stateMutability": "view",
      "type": "function"
    },
    {
      "inputs": [
        {
          "internalType": "uint256",
          "name": "tokenId",
          "type": "uint256"
        },
        {
          "internalType": "uint256",
          "name": "price",
          "type": "uint256"
        }
      ],
      "name": "resellToken",
      "outputs": [],
      "stateMutability": "payable",
      "type": "function"
    },
    {
      "inputs": [
        {
          "internalType": "address",
          "name": "from",
          "type": "address"
        },
        {
          "internalType": "address",
          "name": "to",
          "type": "address"
        },
        {
          "internalType": "uint256",
          "name": "tokenId",
          "type": "uint256"
        }
      ],
      "name": "safeTransferFrom",
      "outputs": [],
      "stateMutability": "nonpayable",
      "type": "function"
    },
    {
      "inputs": [
        {
          "internalType": "address",
          "name": "from",
          "type": "address"
        },
        {
          "internalType": "address",
          "name": "to",
          "type": "address"
        },
        {
          "internalType": "uint256",
          "name": "tokenId",
          "type": "uint256"
        },
        {
          "internalType": "bytes",
          "name": "_data",
          "type": "bytes"
        }
      ],
      "name": "safeTransferFrom",
      "outputs": [],
      "stateMutability": "nonpayable",
      "type": "function"
    },
    {
      "inputs": [
        {
          "internalType": "address",
          "name": "operator",
          "type": "address"
        },
        {
          "internalType": "bool",
          "name": "approved",
          "type": "bool"
        }
      ],
      "name": "setApprovalForAll",
      "outputs": [],
      "stateMutability": "nonpayable",
      "type": "function"
    },
    {
      "inputs": [
        {
          "internalType": "bytes4",
          "name": "interfaceId",
          "type": "bytes4"
        }
      ],
      "name": "supportsInterface",
      "outputs": [
        {
          "internalType": "bool",
          "name": "",
          "type": "bool"
        }
      ],
      "stateMutability": "view",
      "type": "function"
    },
    {
      "inputs": [],
      "name": "symbol",
      "outputs": [
        {
          "internalType": "string",
          "name": "",
          "type": "string"
        }
      ],
      "stateMutability": "view",
      "type": "function"
    },
    {
      "inputs": [
        {
          "internalType": "uint256",
          "name": "tokenId",
          "type": "uint256"
        }
      ],
      "name": "tokenURI",
      "outputs": [
        {
          "internalType": "string",
          "name": "",
          "type": "string"
        }
      ],
      "stateMutability": "view",
      "type": "function"
    },
    {
      "inputs": [
        {
          "internalType": "address",
          "name": "from",
          "type": "address"
        },
        {
          "internalType": "address",
          "name": "to",
          "type": "address"
        },
        {
          "internalType": "uint256",
          "name": "tokenId",
          "type": "uint256"
        }
      ],
      "name": "transferFrom",
      "outputs": [],
      "stateMutability": "nonpayable",
      "type": "function"
    },
    {
      "inputs": [
        {
          "internalType": "uint256",
          "name": "_listingPrice",
          "type": "uint256"
        }
      ],
      "name": "updateListingPrice",
      "outputs": [],
      "stateMutability": "payable",
      "type": "function"
    }
  ],
  "bytecode": "0x60806040526658d15e176280006009553480156200001c57600080fd5b506040518060400160405280600b81526020017f4e465420457374617465730000000000000000000000000000000000000000008152506040518060400160405280600481526020017f4e455354000000000000000000000000000000000000000000000000000000008152508160009080519060200190620000a192919062000104565b508060019080519060200190620000ba92919062000104565b50505033600a60006101000a81548173ffffffffffffffffffffffffffffffffffffffff021916908373ffffffffffffffffffffffffffffffffffffffff16021790555062000219565b8280546200011290620001b4565b90600052602060002090601f01602090048101928262000136576000855562000182565b82601f106200015157805160ff191683800117855562000182565b8280016001018555821562000182579182015b828111156200018157825182559160200191906001019062000164565b5b50905062000191919062000195565b5090565b5b80821115620001b057600081600090555060010162000196565b5090565b60006002820490506001821680620001cd57607f821691505b60208210811415620001e457620001e3620001ea565b5b50919050565b7f4e487b7100000000000000000000000000000000000000000000000000000000600052602260045260246000fd5b6140d180620002296000396000f3fe6080604052600436106101355760003560e01c806395d89b41116100ab578063b88d4fde1161006f578063b88d4fde14610420578063c87b56dd14610449578063d15b4f1314610486578063d193535d146104b1578063e219fc75146104cd578063e985e9c5146104e957610135565b806395d89b411461035a578063a22cb46514610385578063a7683a71146103ae578063ad6fa0a4146103d9578063ae677aa31461040457610135565b806323b872dd116100fd57806323b872dd1461023357806342842e0e1461025c5780636352211e1461028557806370a08231146102c257806372b3b620146102ff578063893d20e81461032f57610135565b806301ffc9a71461013a57806306fdde0314610177578063081812fc146101a2578063095ea7b3146101df57806312e8558514610208575b600080fd5b34801561014657600080fd5b50610161600480360381019061015c9190612ec5565b610526565b60405161016e91906134f0565b60405180910390f35b34801561018357600080fd5b5061018c610608565b604051610199919061350b565b60405180910390f35b3480156101ae57600080fd5b506101c960048036038101906101c49190612f6b565b61069a565b6040516101d69190613422565b60405180910390f35b3480156101eb57600080fd5b5061020660048036038101906102019190612e89565b61071f565b005b34801561021457600080fd5b5061021d610837565b60405161022a919061374d565b60405180910390f35b34801561023f57600080fd5b5061025a60048036038101906102559190612d83565b610841565b005b34801561026857600080fd5b50610283600480360381019061027e9190612d83565b6108a1565b005b34801561029157600080fd5b506102ac60048036038101906102a79190612f6b565b6108c1565b6040516102b99190613422565b60405180910390f35b3480156102ce57600080fd5b506102e960048036038101906102e49190612d1e565b610973565b6040516102f6919061374d565b60405180910390f35b61031960048036038101906103149190612f17565b610a2b565b604051610326919061374d565b60405180910390f35b34801561033b57600080fd5b50610344610a6d565b6040516103519190613422565b60405180910390f35b34801561036657600080fd5b5061036f610a97565b60405161037c919061350b565b60405180910390f35b34801561039157600080fd5b506103ac60048036038101906103a79190612e4d565b610b29565b005b3480156103ba57600080fd5b506103c3610b3f565b6040516103d091906134ce565b60405180910390f35b3480156103e557600080fd5b506103ee610db7565b6040516103fb91906134ce565b60405180910390f35b61041e60048036038101906104199190612f6b565b61102f565b005b34801561042c57600080fd5b5061044760048036038101906104429190612dd2565b6110c2565b005b34801561045557600080fd5b50610470600480360381019061046b9190612f6b565b611124565b60405161047d919061350b565b60405180910390f35b34801561049257600080fd5b5061049b611276565b6040516104a891906134ce565b60405180910390f35b6104cb60048036038101906104c69190612f6b565b61150a565b005b6104e760048036038101906104e29190612f94565b611735565b005b3480156104f557600080fd5b50610510600480360381019061050b9190612d47565b611954565b60405161051d91906134f0565b60405180910390f35b60007f80ac58cd000000000000000000000000000000000000000000000000000000007bffffffffffffffffffffffffffffffffffffffffffffffffffffffff1916827bffffffffffffffffffffffffffffffffffffffffffffffffffffffff191614806105f157507f5b5e139f000000000000000000000000000000000000000000000000000000007bffffffffffffffffffffffffffffffffffffffffffffffffffffffff1916827bffffffffffffffffffffffffffffffffffffffffffffffffffffffff1916145b806106015750610600826119e8565b5b9050919050565b606060008054610617906139ee565b80601f0160208091040260200160405190810160405280929190818152602001828054610643906139ee565b80156106905780601f1061066557610100808354040283529160200191610690565b820191906000526020600020905b81548152906001019060200180831161067357829003601f168201915b5050505050905090565b60006106a582611a52565b6106e4576040517f08c379a00000000000000000000000000000000000000000000000000000000081526004016106db906136cd565b60405180910390fd5b6004600083815260200190815260200160002060009054906101000a900473ffffffffffffffffffffffffffffffffffffffff169050919050565b600061072a826108c1565b90508073ffffffffffffffffffffffffffffffffffffffff168373ffffffffffffffffffffffffffffffffffffffff16141561079b576040517f08c379a00000000000000000000000000000000000000000000000000000000081526004016107929061370d565b60405180910390fd5b8073ffffffffffffffffffffffffffffffffffffffff166107ba611abe565b73ffffffffffffffffffffffffffffffffffffffff1614806107e957506107e8816107e3611abe565b611954565b5b610828576040517f08c379a000000000000000000000000000000000000000000000000000000000815260040161081f9061360d565b60405180910390fd5b6108328383611ac6565b505050565b6000600954905090565b61085261084c611abe565b82611b7f565b610891576040517f08c379a00000000000000000000000000000000000000000000000000000000081526004016108889061372d565b60405180910390fd5b61089c838383611c5d565b505050565b6108bc838383604051806020016040528060008152506110c2565b505050565b6000806002600084815260200190815260200160002060009054906101000a900473ffffffffffffffffffffffffffffffffffffffff169050600073ffffffffffffffffffffffffffffffffffffffff168173ffffffffffffffffffffffffffffffffffffffff16141561096a576040517f08c379a00000000000000000000000000000000000000000000000000000000081526004016109619061364d565b60405180910390fd5b80915050919050565b60008073ffffffffffffffffffffffffffffffffffffffff168273ffffffffffffffffffffffffffffffffffffffff1614156109e4576040517f08c379a00000000000000000000000000000000000000000000000000000000081526004016109db9061362d565b60405180910390fd5b600360008373ffffffffffffffffffffffffffffffffffffffff1673ffffffffffffffffffffffffffffffffffffffff168152602001908152602001600020549050919050565b6000610a376007611ec4565b6000610a436007611eda565b9050610a4f3382611ee8565b610a5981856120c2565b610a638184612136565b8091505092915050565b6000600a60009054906101000a900473ffffffffffffffffffffffffffffffffffffffff16905090565b606060018054610aa6906139ee565b80601f0160208091040260200160405190810160405280929190818152602001828054610ad2906139ee565b8015610b1f5780601f10610af457610100808354040283529160200191610b1f565b820191906000526020600020905b815481529060010190602001808311610b0257829003601f168201915b5050505050905090565b610b3b610b34611abe565b8383612329565b5050565b60606000610b4d6007611eda565b9050600080610b5a612496565b67ffffffffffffffff811115610b99577f4e487b7100000000000000000000000000000000000000000000000000000000600052604160045260246000fd5b604051908082528060200260200182016040528015610bd257816020015b610bbf612ae5565b815260200190600190039081610bb75790505b5090506000600190505b838111610dad573373ffffffffffffffffffffffffffffffffffffffff16600b600083815260200190815260200160002060010160009054906101000a900473ffffffffffffffffffffffffffffffffffffffff1673ffffffffffffffffffffffffffffffffffffffff161415610d9a57600b60008281526020019081526020016000206040518060a0016040529081600082015481526020016001820160009054906101000a900473ffffffffffffffffffffffffffffffffffffffff1673ffffffffffffffffffffffffffffffffffffffff1673ffffffffffffffffffffffffffffffffffffffff1681526020016002820160009054906101000a900473ffffffffffffffffffffffffffffffffffffffff1673ffffffffffffffffffffffffffffffffffffffff1673ffffffffffffffffffffffffffffffffffffffff168152602001600382015481526020016004820160009054906101000a900460ff161515151581525050828481518110610d7f577f4e487b7100000000000000000000000000000000000000000000000000000000600052603260045260246000fd5b6020026020010181905250600183610d97919061386b565b92505b8080610da590613a51565b915050610bdc565b5080935050505090565b60606000610dc56007611eda565b9050600080610dd261254a565b67ffffffffffffffff811115610e11577f4e487b7100000000000000000000000000000000000000000000000000000000600052604160045260246000fd5b604051908082528060200260200182016040528015610e4a57816020015b610e37612ae5565b815260200190600190039081610e2f5790505b5090506000600190505b838111611025573373ffffffffffffffffffffffffffffffffffffffff16600b600083815260200190815260200160002060020160009054906101000a900473ffffffffffffffffffffffffffffffffffffffff1673ffffffffffffffffffffffffffffffffffffffff16141561101257600b60008281526020019081526020016000206040518060a0016040529081600082015481526020016001820160009054906101000a900473ffffffffffffffffffffffffffffffffffffffff1673ffffffffffffffffffffffffffffffffffffffff1673ffffffffffffffffffffffffffffffffffffffff1681526020016002820160009054906101000a900473ffffffffffffffffffffffffffffffffffffffff1673ffffffffffffffffffffffffffffffffffffffff1673ffffffffffffffffffffffffffffffffffffffff168152602001600382015481526020016004820160009054906101000a900460ff161515151581525050828481518110610ff7577f4e487b7100000000000000000000000000000000000000000000000000000000600052603260045260246000fd5b602002602001018190525060018361100f919061386b565b92505b808061101d90613a51565b915050610e54565b5080935050505090565b338073ffffffffffffffffffffffffffffffffffffffff16600a60009054906101000a900473ffffffffffffffffffffffffffffffffffffffff1673ffffffffffffffffffffffffffffffffffffffff16146110b7576040517f0713223200000000000000000000000000000000000000000000000000000000815260040160405180910390fd5b816009819055505050565b6110d36110cd611abe565b83611b7f565b611112576040517f08c379a00000000000000000000000000000000000000000000000000000000081526004016111099061372d565b60405180910390fd5b61111e848484846125fe565b50505050565b606061112f82611a52565b61116e576040517f08c379a0000000000000000000000000000000000000000000000000000000008152600401611165906136ad565b60405180910390fd5b600060066000848152602001908152602001600020805461118e906139ee565b80601f01602080910402602001604051908101604052809291908181526020018280546111ba906139ee565b80156112075780601f106111dc57610100808354040283529160200191611207565b820191906000526020600020905b8154815290600101906020018083116111ea57829003601f168201915b50505050509050600061121861265a565b905060008151141561122e578192505050611271565b60008251111561126357808260405160200161124b9291906133fe565b60405160208183030381529060405292505050611271565b61126c84612671565b925050505b919050565b606060006112846007611eda565b905060006112926008611eda565b61129c6007611eda565b6112a691906138f2565b90506000808267ffffffffffffffff8111156112eb577f4e487b7100000000000000000000000000000000000000000000000000000000600052604160045260246000fd5b60405190808252806020026020018201604052801561132457816020015b611311612ae5565b8152602001906001900390816113095790505b5090506000600190505b8481116114ff573073ffffffffffffffffffffffffffffffffffffffff16600b600083815260200190815260200160002060020160009054906101000a900473ffffffffffffffffffffffffffffffffffffffff1673ffffffffffffffffffffffffffffffffffffffff1614156114ec57600b60008281526020019081526020016000206040518060a0016040529081600082015481526020016001820160009054906101000a900473ffffffffffffffffffffffffffffffffffffffff1673ffffffffffffffffffffffffffffffffffffffff1673ffffffffffffffffffffffffffffffffffffffff1681526020016002820160009054906101000a900473ffffffffffffffffffffffffffffffffffffffff1673ffffffffffffffffffffffffffffffffffffffff1673ffffffffffffffffffffffffffffffffffffffff168152602001600382015481526020016004820160009054906101000a900460ff1615151515815250508284815181106114d1577f4e487b7100000000000000000000000000000000000000000000000000000000600052603260045260246000fd5b60200260200101819052506001836114e9919061386b565b92505b80806114f790613a51565b91505061132e565b508094505050505090565b600b60008281526020019081526020016000206003015480341461155a576040517f6cf09b4d00000000000000000000000000000000000000000000000000000000815260040160405180910390fd5b33600b600084815260200190815260200160002060020160006101000a81548173ffffffffffffffffffffffffffffffffffffffff021916908373ffffffffffffffffffffffffffffffffffffffff1602179055506000600b600084815260200190815260200160002060010160006101000a81548173ffffffffffffffffffffffffffffffffffffffff021916908373ffffffffffffffffffffffffffffffffffffffff1602179055506001600b600084815260200190815260200160002060040160006101000a81548160ff02191690831515021790555061163e6008611ec4565b611649303384611c5d565b600a60009054906101000a900473ffffffffffffffffffffffffffffffffffffffff1673ffffffffffffffffffffffffffffffffffffffff166108fc6009549081150290604051600060405180830381858888f193505050501580156116b3573d6000803e3d6000fd5b50600b600083815260200190815260200160002060010160009054906101000a900473ffffffffffffffffffffffffffffffffffffffff1673ffffffffffffffffffffffffffffffffffffffff166108fc349081150290604051600060405180830381858888f19350505050158015611730573d6000803e3d6000fd5b505050565b8060008111611770576040517fbff7dcf800000000000000000000000000000000000000000000000000000000815260040160405180910390fd5b60095434146117ab576040517fce9f55b900000000000000000000000000000000000000000000000000000000815260040160405180910390fd5b3373ffffffffffffffffffffffffffffffffffffffff16600b600085815260200190815260200160002060020160009054906101000a900473ffffffffffffffffffffffffffffffffffffffff1673ffffffffffffffffffffffffffffffffffffffff1614611846576040517f0713223200000000000000000000000000000000000000000000000000000000815260040160405180910390fd5b81600b60008581526020019081526020016000206003018190555033600b600085815260200190815260200160002060010160006101000a81548173ffffffffffffffffffffffffffffffffffffffff021916908373ffffffffffffffffffffffffffffffffffffffff16021790555030600b600085815260200190815260200160002060020160006101000a81548173ffffffffffffffffffffffffffffffffffffffff021916908373ffffffffffffffffffffffffffffffffffffffff1602179055506000600b600085815260200190815260200160002060040160006101000a81548160ff0219169083151502179055506119446008612718565b61194f333085611c5d565b505050565b6000600560008473ffffffffffffffffffffffffffffffffffffffff1673ffffffffffffffffffffffffffffffffffffffff16815260200190815260200160002060008373ffffffffffffffffffffffffffffffffffffffff1673ffffffffffffffffffffffffffffffffffffffff16815260200190815260200160002060009054906101000a900460ff16905092915050565b60007f01ffc9a7000000000000000000000000000000000000000000000000000000007bffffffffffffffffffffffffffffffffffffffffffffffffffffffff1916827bffffffffffffffffffffffffffffffffffffffffffffffffffffffff1916149050919050565b60008073ffffffffffffffffffffffffffffffffffffffff166002600084815260200190815260200160002060009054906101000a900473ffffffffffffffffffffffffffffffffffffffff1673ffffffffffffffffffffffffffffffffffffffff1614159050919050565b600033905090565b816004600083815260200190815260200160002060006101000a81548173ffffffffffffffffffffffffffffffffffffffff021916908373ffffffffffffffffffffffffffffffffffffffff160217905550808273ffffffffffffffffffffffffffffffffffffffff16611b39836108c1565b73ffffffffffffffffffffffffffffffffffffffff167f8c5be1e5ebec7d5bd14f71427d1e84f3dd0314c0f7b2291e5b200ac8c7c3b92560405160405180910390a45050565b6000611b8a82611a52565b611bc9576040517f08c379a0000000000000000000000000000000000000000000000000000000008152600401611bc0906135ed565b60405180910390fd5b6000611bd4836108c1565b90508073ffffffffffffffffffffffffffffffffffffffff168473ffffffffffffffffffffffffffffffffffffffff161480611c4357508373ffffffffffffffffffffffffffffffffffffffff16611c2b8461069a565b73ffffffffffffffffffffffffffffffffffffffff16145b80611c545750611c538185611954565b5b91505092915050565b8273ffffffffffffffffffffffffffffffffffffffff16611c7d826108c1565b73ffffffffffffffffffffffffffffffffffffffff1614611cd3576040517f08c379a0000000000000000000000000000000000000000000000000000000008152600401611cca9061356d565b60405180910390fd5b600073ffffffffffffffffffffffffffffffffffffffff168273ffffffffffffffffffffffffffffffffffffffff161415611d43576040517f08c379a0000000000000000000000000000000000000000000000000000000008152600401611d3a906135ad565b60405180910390fd5b611d4e838383612774565b611d59600082611ac6565b6001600360008573ffffffffffffffffffffffffffffffffffffffff1673ffffffffffffffffffffffffffffffffffffffff1681526020019081526020016000206000828254611da991906138f2565b925050819055506001600360008473ffffffffffffffffffffffffffffffffffffffff1673ffffffffffffffffffffffffffffffffffffffff1681526020019081526020016000206000828254611e00919061386b565b92505081905550816002600083815260200190815260200160002060006101000a81548173ffffffffffffffffffffffffffffffffffffffff021916908373ffffffffffffffffffffffffffffffffffffffff160217905550808273ffffffffffffffffffffffffffffffffffffffff168473ffffffffffffffffffffffffffffffffffffffff167fddf252ad1be2c89b69c2b068fc378daa952ba7f163c4a11628f55a4df523b3ef60405160405180910390a4611ebf838383612779565b505050565b6001816000016000828254019250508190555050565b600081600001549050919050565b600073ffffffffffffffffffffffffffffffffffffffff168273ffffffffffffffffffffffffffffffffffffffff161415611f58576040517f08c379a0000000000000000000000000000000000000000000000000000000008152600401611f4f9061368d565b60405180910390fd5b611f6181611a52565b15611fa1576040517f08c379a0000000000000000000000000000000000000000000000000000000008152600401611f989061358d565b60405180910390fd5b611fad60008383612774565b6001600360008473ffffffffffffffffffffffffffffffffffffffff1673ffffffffffffffffffffffffffffffffffffffff1681526020019081526020016000206000828254611ffd919061386b565b92505081905550816002600083815260200190815260200160002060006101000a81548173ffffffffffffffffffffffffffffffffffffffff021916908373ffffffffffffffffffffffffffffffffffffffff160217905550808273ffffffffffffffffffffffffffffffffffffffff16600073ffffffffffffffffffffffffffffffffffffffff167fddf252ad1be2c89b69c2b068fc378daa952ba7f163c4a11628f55a4df523b3ef60405160405180910390a46120be60008383612779565b5050565b6120cb82611a52565b61210a576040517f08c379a00000000000000000000000000000000000000000000000000000000081526004016121019061366d565b60405180910390fd5b80600660008481526020019081526020016000209080519060200190612131929190612b42565b505050565b8060008111612171576040517fbff7dcf800000000000000000000000000000000000000000000000000000000815260040160405180910390fd5b60095434146121ac576040517fce9f55b900000000000000000000000000000000000000000000000000000000815260040160405180910390fd5b6040518060a001604052808481526020013373ffffffffffffffffffffffffffffffffffffffff1681526020013073ffffffffffffffffffffffffffffffffffffffff16815260200183815260200160001515815250600b60008581526020019081526020016000206000820151816000015560208201518160010160006101000a81548173ffffffffffffffffffffffffffffffffffffffff021916908373ffffffffffffffffffffffffffffffffffffffff16021790555060408201518160020160006101000a81548173ffffffffffffffffffffffffffffffffffffffff021916908373ffffffffffffffffffffffffffffffffffffffff1602179055506060820151816003015560808201518160040160006101000a81548160ff0219169083151502179055509050506122e5333085611c5d565b827fdeb96ac264826584ed864590b3f24bcb64ed3ce343c1e95abde59178508c66c1333085600060405161231c949392919061343d565b60405180910390a2505050565b8173ffffffffffffffffffffffffffffffffffffffff168373ffffffffffffffffffffffffffffffffffffffff161415612398576040517f08c379a000000000000000000000000000000000000000000000000000000000815260040161238f906135cd565b60405180910390fd5b80600560008573ffffffffffffffffffffffffffffffffffffffff1673ffffffffffffffffffffffffffffffffffffffff16815260200190815260200160002060008473ffffffffffffffffffffffffffffffffffffffff1673ffffffffffffffffffffffffffffffffffffffff16815260200190815260200160002060006101000a81548160ff0219169083151502179055508173ffffffffffffffffffffffffffffffffffffffff168373ffffffffffffffffffffffffffffffffffffffff167f17307eab39ab6107e8899845ad3d59bd9653f200f220920489ca2b5937696c318360405161248991906134f0565b60405180910390a3505050565b6000806124a36007611eda565b9050600080600190505b828111612541573373ffffffffffffffffffffffffffffffffffffffff16600b600083815260200190815260200160002060010160009054906101000a900473ffffffffffffffffffffffffffffffffffffffff1673ffffffffffffffffffffffffffffffffffffffff16141561252e5760018261252b919061386b565b91505b808061253990613a51565b9150506124ad565b50809250505090565b6000806125576007611eda565b9050600080600190505b8281116125f5573373ffffffffffffffffffffffffffffffffffffffff16600b600083815260200190815260200160002060020160009054906101000a900473ffffffffffffffffffffffffffffffffffffffff1673ffffffffffffffffffffffffffffffffffffffff1614156125e2576001826125df919061386b565b91505b80806125ed90613a51565b915050612561565b50809250505090565b612609848484611c5d565b6126158484848461277e565b612654576040517f08c379a000000000000000000000000000000000000000000000000000000000815260040161264b9061354d565b60405180910390fd5b50505050565b606060405180602001604052806000815250905090565b606061267c82611a52565b6126bb576040517f08c379a00000000000000000000000000000000000000000000000000000000081526004016126b2906136ed565b60405180910390fd5b60006126c561265a565b905060008151116126e55760405180602001604052806000815250612710565b806126ef84612915565b6040516020016127009291906133fe565b6040516020818303038152906040525b915050919050565b60008160000154905060008111612764576040517f08c379a000000000000000000000000000000000000000000000000000000000815260040161275b9061352d565b60405180910390fd5b6001810382600001819055505050565b505050565b505050565b600061279f8473ffffffffffffffffffffffffffffffffffffffff16612ac2565b15612908578373ffffffffffffffffffffffffffffffffffffffff1663150b7a026127c8611abe565b8786866040518563ffffffff1660e01b81526004016127ea9493929190613482565b602060405180830381600087803b15801561280457600080fd5b505af192505050801561283557506040513d601f19601f820116820180604052508101906128329190612eee565b60015b6128b8573d8060008114612865576040519150601f19603f3d011682016040523d82523d6000602084013e61286a565b606091505b506000815114156128b0576040517f08c379a00000000000000000000000000000000000000000000000000000000081526004016128a79061354d565b60405180910390fd5b805181602001fd5b63150b7a0260e01b7bffffffffffffffffffffffffffffffffffffffffffffffffffffffff1916817bffffffffffffffffffffffffffffffffffffffffffffffffffffffff19161491505061290d565b600190505b949350505050565b6060600082141561295d576040518060400160405280600181526020017f30000000000000000000000000000000000000000000000000000000000000008152509050612abd565b600082905060005b6000821461298f57808061297890613a51565b915050600a8261298891906138c1565b9150612965565b60008167ffffffffffffffff8111156129d1577f4e487b7100000000000000000000000000000000000000000000000000000000600052604160045260246000fd5b6040519080825280601f01601f191660200182016040528015612a035781602001600182028036833780820191505090505b5090505b60008514612ab657600182612a1c91906138f2565b9150600a85612a2b9190613a9a565b6030612a37919061386b565b60f81b818381518110612a73577f4e487b7100000000000000000000000000000000000000000000000000000000600052603260045260246000fd5b60200101907effffffffffffffffffffffffffffffffffffffffffffffffffffffffffffff1916908160001a905350600a85612aaf91906138c1565b9450612a07565b8093505050505b919050565b6000808273ffffffffffffffffffffffffffffffffffffffff163b119050919050565b6040518060a0016040528060008152602001600073ffffffffffffffffffffffffffffffffffffffff168152602001600073ffffffffffffffffffffffffffffffffffffffff168152602001600081526020016000151581525090565b828054612b4e906139ee565b90600052602060002090601f016020900481019282612b705760008555612bb7565b82601f10612b8957805160ff1916838001178555612bb7565b82800160010185558215612bb7579182015b82811115612bb6578251825591602001919060010190612b9b565b5b509050612bc49190612bc8565b5090565b5b80821115612be1576000816000905550600101612bc9565b5090565b6000612bf8612bf38461378d565b613768565b905082815260208101848484011115612c1057600080fd5b612c1b8482856139ac565b509392505050565b6000612c36612c31846137be565b613768565b905082815260208101848484011115612c4e57600080fd5b612c598482856139ac565b509392505050565b600081359050612c708161403f565b92915050565b600081359050612c8581614056565b92915050565b600081359050612c9a8161406d565b92915050565b600081519050612caf8161406d565b92915050565b600082601f830112612cc657600080fd5b8135612cd6848260208601612be5565b91505092915050565b600082601f830112612cf057600080fd5b8135612d00848260208601612c23565b91505092915050565b600081359050612d1881614084565b92915050565b600060208284031215612d3057600080fd5b6000612d3e84828501612c61565b91505092915050565b60008060408385031215612d5a57600080fd5b6000612d6885828601612c61565b9250506020612d7985828601612c61565b9150509250929050565b600080600060608486031215612d9857600080fd5b6000612da686828701612c61565b9350506020612db786828701612c61565b9250506040612dc886828701612d09565b9150509250925092565b60008060008060808587031215612de857600080fd5b6000612df687828801612c61565b9450506020612e0787828801612c61565b9350506040612e1887828801612d09565b925050606085013567ffffffffffffffff811115612e3557600080fd5b612e4187828801612cb5565b91505092959194509250565b60008060408385031215612e6057600080fd5b6000612e6e85828601612c61565b9250506020612e7f85828601612c76565b9150509250929050565b60008060408385031215612e9c57600080fd5b6000612eaa85828601612c61565b9250506020612ebb85828601612d09565b9150509250929050565b600060208284031215612ed757600080fd5b6000612ee584828501612c8b565b91505092915050565b600060208284031215612f0057600080fd5b6000612f0e84828501612ca0565b91505092915050565b60008060408385031215612f2a57600080fd5b600083013567ffffffffffffffff811115612f4457600080fd5b612f5085828601612cdf565b9250506020612f6185828601612d09565b9150509250929050565b600060208284031215612f7d57600080fd5b6000612f8b84828501612d09565b91505092915050565b60008060408385031215612fa757600080fd5b6000612fb585828601612d09565b9250506020612fc685828601612d09565b9150509250929050565b6000612fdc8383613378565b60a08301905092915050565b612ff181613938565b82525050565b61300081613926565b82525050565b6000613011826137ff565b61301b818561382d565b9350613026836137ef565b8060005b8381101561305757815161303e8882612fd0565b975061304983613820565b92505060018101905061302a565b5085935050505092915050565b61306d8161394a565b82525050565b61307c8161394a565b82525050565b600061308d8261380a565b613097818561383e565b93506130a78185602086016139bb565b6130b081613b87565b840191505092915050565b60006130c682613815565b6130d0818561384f565b93506130e08185602086016139bb565b6130e981613b87565b840191505092915050565b60006130ff82613815565b6131098185613860565b93506131198185602086016139bb565b80840191505092915050565b6000613132601b8361384f565b915061313d82613b98565b602082019050919050565b600061315560328361384f565b915061316082613bc1565b604082019050919050565b600061317860258361384f565b915061318382613c10565b604082019050919050565b600061319b601c8361384f565b91506131a682613c5f565b602082019050919050565b60006131be60248361384f565b91506131c982613c88565b604082019050919050565b60006131e160198361384f565b91506131ec82613cd7565b602082019050919050565b6000613204602c8361384f565b915061320f82613d00565b604082019050919050565b600061322760388361384f565b915061323282613d4f565b604082019050919050565b600061324a602a8361384f565b915061325582613d9e565b604082019050919050565b600061326d60298361384f565b915061327882613ded565b604082019050919050565b6000613290602e8361384f565b915061329b82613e3c565b604082019050919050565b60006132b360208361384f565b91506132be82613e8b565b602082019050919050565b60006132d660318361384f565b91506132e182613eb4565b604082019050919050565b60006132f9602c8361384f565b915061330482613f03565b604082019050919050565b600061331c602f8361384f565b915061332782613f52565b604082019050919050565b600061333f60218361384f565b915061334a82613fa1565b604082019050919050565b600061336260318361384f565b915061336d82613ff0565b604082019050919050565b60a08201600082015161338e60008501826133e0565b5060208201516133a16020850182612fe8565b5060408201516133b46040850182612fe8565b5060608201516133c760608501826133e0565b5060808201516133da6080850182613064565b50505050565b6133e9816139a2565b82525050565b6133f8816139a2565b82525050565b600061340a82856130f4565b915061341682846130f4565b91508190509392505050565b60006020820190506134376000830184612ff7565b92915050565b60006080820190506134526000830187612ff7565b61345f6020830186612ff7565b61346c60408301856133ef565b6134796060830184613073565b95945050505050565b60006080820190506134976000830187612ff7565b6134a46020830186612ff7565b6134b160408301856133ef565b81810360608301526134c38184613082565b905095945050505050565b600060208201905081810360008301526134e88184613006565b905092915050565b60006020820190506135056000830184613073565b92915050565b6000602082019050818103600083015261352581846130bb565b905092915050565b6000602082019050818103600083015261354681613125565b9050919050565b6000602082019050818103600083015261356681613148565b9050919050565b600060208201905081810360008301526135868161316b565b9050919050565b600060208201905081810360008301526135a68161318e565b9050919050565b600060208201905081810360008301526135c6816131b1565b9050919050565b600060208201905081810360008301526135e6816131d4565b9050919050565b60006020820190508181036000830152613606816131f7565b9050919050565b600060208201905081810360008301526136268161321a565b9050919050565b600060208201905081810360008301526136468161323d565b9050919050565b6000602082019050818103600083015261366681613260565b9050919050565b6000602082019050818103600083015261368681613283565b9050919050565b600060208201905081810360008301526136a6816132a6565b9050919050565b600060208201905081810360008301526136c6816132c9565b9050919050565b600060208201905081810360008301526136e6816132ec565b9050919050565b600060208201905081810360008301526137068161330f565b9050919050565b6000602082019050818103600083015261372681613332565b9050919050565b6000602082019050818103600083015261374681613355565b9050919050565b600060208201905061376260008301846133ef565b92915050565b6000613772613783565b905061377e8282613a20565b919050565b6000604051905090565b600067ffffffffffffffff8211156137a8576137a7613b58565b5b6137b182613b87565b9050602081019050919050565b600067ffffffffffffffff8211156137d9576137d8613b58565b5b6137e282613b87565b9050602081019050919050565b6000819050602082019050919050565b600081519050919050565b600081519050919050565b600081519050919050565b6000602082019050919050565b600082825260208201905092915050565b600082825260208201905092915050565b600082825260208201905092915050565b600081905092915050565b6000613876826139a2565b9150613881836139a2565b9250827fffffffffffffffffffffffffffffffffffffffffffffffffffffffffffffffff038211156138b6576138b5613acb565b5b828201905092915050565b60006138cc826139a2565b91506138d7836139a2565b9250826138e7576138e6613afa565b5b828204905092915050565b60006138fd826139a2565b9150613908836139a2565b92508282101561391b5761391a613acb565b5b828203905092915050565b600061393182613982565b9050919050565b600061394382613982565b9050919050565b60008115159050919050565b60007fffffffff0000000000000000000000000000000000000000000000000000000082169050919050565b600073ffffffffffffffffffffffffffffffffffffffff82169050919050565b6000819050919050565b82818337600083830152505050565b60005b838110156139d95780820151818401526020810190506139be565b838111156139e8576000848401525b50505050565b60006002820490506001821680613a0657607f821691505b60208210811415613a1a57613a19613b29565b5b50919050565b613a2982613b87565b810181811067ffffffffffffffff82111715613a4857613a47613b58565b5b80604052505050565b6000613a5c826139a2565b91507fffffffffffffffffffffffffffffffffffffffffffffffffffffffffffffffff821415613a8f57613a8e613acb565b5b600182019050919050565b6000613aa5826139a2565b9150613ab0836139a2565b925082613ac057613abf613afa565b5b828206905092915050565b7f4e487b7100000000000000000000000000000000000000000000000000000000600052601160045260246000fd5b7f4e487b7100000000000000000000000000000000000000000000000000000000600052601260045260246000fd5b7f4e487b7100000000000000000000000000000000000000000000000000000000600052602260045260246000fd5b7f4e487b7100000000000000000000000000000000000000000000000000000000600052604160045260246000fd5b6000601f19601f8301169050919050565b7f436f756e7465723a2064656372656d656e74206f766572666c6f770000000000600082015250565b7f4552433732313a207472616e7366657220746f206e6f6e20455243373231526560008201527f63656976657220696d706c656d656e7465720000000000000000000000000000602082015250565b7f4552433732313a207472616e736665722066726f6d20696e636f72726563742060008201527f6f776e6572000000000000000000000000000000000000000000000000000000602082015250565b7f4552433732313a20746f6b656e20616c7265616479206d696e74656400000000600082015250565b7f4552433732313a207472616e7366657220746f20746865207a65726f2061646460008201527f7265737300000000000000000000000000000000000000000000000000000000602082015250565b7f4552433732313a20617070726f766520746f2063616c6c657200000000000000600082015250565b7f4552433732313a206f70657261746f7220717565727920666f72206e6f6e657860008201527f697374656e7420746f6b656e0000000000000000000000000000000000000000602082015250565b7f4552433732313a20617070726f76652063616c6c6572206973206e6f74206f7760008201527f6e6572206e6f7220617070726f76656420666f7220616c6c0000000000000000602082015250565b7f4552433732313a2062616c616e636520717565727920666f7220746865207a6560008201527f726f206164647265737300000000000000000000000000000000000000000000602082015250565b7f4552433732313a206f776e657220717565727920666f72206e6f6e657869737460008201527f656e7420746f6b656e0000000000000000000000000000000000000000000000602082015250565b7f45524337323155524953746f726167653a2055524920736574206f66206e6f6e60008201527f6578697374656e7420746f6b656e000000000000000000000000000000000000602082015250565b7f4552433732313a206d696e7420746f20746865207a65726f2061646472657373600082015250565b7f45524337323155524953746f726167653a2055524920717565727920666f722060008201527f6e6f6e6578697374656e7420746f6b656e000000000000000000000000000000602082015250565b7f4552433732313a20617070726f76656420717565727920666f72206e6f6e657860008201527f697374656e7420746f6b656e0000000000000000000000000000000000000000602082015250565b7f4552433732314d657461646174613a2055524920717565727920666f72206e6f60008201527f6e6578697374656e7420746f6b656e0000000000000000000000000000000000602082015250565b7f4552433732313a20617070726f76616c20746f2063757272656e74206f776e6560008201527f7200000000000000000000000000000000000000000000000000000000000000602082015250565b7f4552433732313a207472616e736665722063616c6c6572206973206e6f74206f60008201527f776e6572206e6f7220617070726f766564000000000000000000000000000000602082015250565b61404881613926565b811461405357600080fd5b50565b61405f8161394a565b811461406a57600080fd5b50565b61407681613956565b811461408157600080fd5b50565b61408d816139a2565b811461409857600080fd5b5056fea2646970667358221220e5c8a24bf7bb6a2b2d07df5fc2ab1a1b157ccfe65a92ab73e5520db76a97194264736f6c63430008040033",
  "linkReferences": {},
  "deployedLinkReferences": {}
}