{
  "_format": "hh-sol-artifact-1",
  "contractName": "RealEstateMarketplace",
  "sourceName": "contracts/RealEstateMarketplace.sol",
  "abi": [
    {
      "inputs": [],
      "stateMutability": "nonpayable",
      "type": "constructor"
    },
    {
      "anonymous": false,
      "inputs": [
        {
          "indexed": true,
          "internalType": "address",
          "name": "owner",
          "type": "address"
        },
        {
          "indexed": true,
          "internalType": "address",
          "name": "approved",
          "type": "address"
        },
        {
          "indexed": true,
          "internalType": "uint256",
          "name": "tokenId",
          "type": "uint256"
        }
      ],
      "name": "Approval",
      "type": "event"
    },
    {
      "anonymous": false,
      "inputs": [
        {
          "indexed": true,
          "internalType": "address",
          "name": "owner",
          "type": "address"
        },
        {
          "indexed": true,
          "internalType": "address",
          "name": "operator",
          "type": "address"
        },
        {
          "indexed": false,
          "internalType": "bool",
          "name": "approved",
          "type": "bool"
        }
      ],
      "name": "ApprovalForAll",
      "type": "event"
    },
    {
      "anonymous": false,
      "inputs": [
        {
          "indexed": true,
          "internalType": "uint256",
          "name": "tokenId",
          "type": "uint256"
        },
        {
          "indexed": false,
          "internalType": "address",
          "name": "seller",
          "type": "address"
        },
        {
          "indexed": false,
          "internalType": "address",
          "name": "owner",
          "type": "address"
        },
        {
          "indexed": false,
          "internalType": "uint256",
          "name": "price",
          "type": "uint256"
        },
        {
          "indexed": false,
          "internalType": "bool",
          "name": "sold",
          "type": "bool"
        }
      ],
      "name": "PropertyListed",
      "type": "event"
    },
    {
      "anonymous": false,
      "inputs": [
        {
          "indexed": true,
          "internalType": "address",
          "name": "from",
          "type": "address"
        },
        {
          "indexed": true,
          "internalType": "address",
          "name": "to",
          "type": "address"
        },
        {
          "indexed": true,
          "internalType": "uint256",
          "name": "tokenId",
          "type": "uint256"
        }
      ],
      "name": "Transfer",
      "type": "event"
    },
    {
      "inputs": [
        {
          "internalType": "address",
          "name": "to",
          "type": "address"
        },
        {
          "internalType": "uint256",
          "name": "tokenId",
          "type": "uint256"
        }
      ],
      "name": "approve",
      "outputs": [],
      "stateMutability": "nonpayable",
      "type": "function"
    },
    {
      "inputs": [
        {
          "internalType": "address",
          "name": "owner",
          "type": "address"
        }
      ],
      "name": "balanceOf",
      "outputs": [
        {
          "internalType": "uint256",
          "name": "",
          "type": "uint256"
        }
      ],
      "stateMutability": "view",
      "type": "function"
    },
    {
      "inputs": [
        {
          "internalType": "uint256",
          "name": "tokenId",
          "type": "uint256"
        }
      ],
      "name": "createPropertySale",
      "outputs": [],
      "stateMutability": "payable",
      "type": "function"
    },
    {
      "inputs": [
        {
          "internalType": "string",
          "name": "tokenURI",
          "type": "string"
        },
        {
          "internalType": "uint256",
          "name": "price",
          "type": "uint256"
        }
      ],
      "name": "createToken",
      "outputs": [
        {
          "internalType": "uint256",
          "name": "",
          "type": "uint256"
        }
      ],
      "stateMutability": "payable",
      "type": "function"
    },
    {
      "inputs": [],
      "name": "fetchMyListedProperties",
      "outputs": [
        {
          "components": [
            {
              "internalType": "uint256",
              "name": "tokenId",
              "type": "uint256"
            },
            {
              "internalType": "address payable",
              "name": "seller",
              "type": "address"
            },
            {
              "internalType": "address payable",
              "name": "owner",
              "type": "address"
            },
            {
              "internalType": "uint256",
              "name": "price",
              "type": "uint256"
            },
            {
              "internalType": "bool",
              "name": "sold",
              "type": "bool"
            }
          ],
          "internalType": "struct RealEstateMarketplace.Property[]",
          "name": "",
          "type": "tuple[]"
        }
      ],
      "stateMutability": "view",
      "type": "function"
    },
    {
      "inputs": [],
      "name": "fetchMyProperties",
      "outputs": [
        {
          "components": [
            {
              "internalType": "uint256",
              "name": "tokenId",
              "type": "uint256"
            },
            {
              "internalType": "address payable",
              "name": "seller",
              "type": "address"
            },
            {
              "internalType": "address payable",
              "name": "owner",
              "type": "address"
            },
            {
              "internalType": "uint256",
              "name": "price",
              "type": "uint256"
            },
            {
              "internalType": "bool",
              "name": "sold",
              "type": "bool"
            }
          ],
          "internalType": "struct RealEstateMarketplace.Property[]",
          "name": "",
          "type": "tuple[]"
        }
      ],
      "stateMutability": "view",
      "type": "function"
    },
    {
      "inputs": [],
      "name": "fetchUnsoldProperties",
      "outputs": [
        {
          "components": [
            {
              "internalType": "uint256",
              "name": "tokenId",
              "type": "uint256"
            },
            {
              "internalType": "address payable",
              "name": "seller",
              "type": "address"
            },
            {
              "internalType": "address payable",
              "name": "owner",
              "type": "address"
            },
            {
              "internalType": "uint256",
              "name": "price",
              "type": "uint256"
            },
            {
              "internalType": "bool",
              "name": "sold",
              "type": "bool"
            }
          ],
          "internalType": "struct RealEstateMarketplace.Property[]",
          "name": "",
          "type": "tuple[]"
        }
      ],
      "stateMutability": "view",
      "type": "function"
    },
    {
      "inputs": [
        {
          "internalType": "uint256",
          "name": "tokenId",
          "type": "uint256"
        }
      ],
      "name": "getApproved",
      "outputs": [
        {
          "internalType": "address",
          "name": "",
          "type": "address"
        }
      ],
      "stateMutability": "view",
      "type": "function"
    },
    {
      "inputs": [],
      "name": "getListingPrice",
      "outputs": [
        {
          "internalType": "uint256",
          "name": "",
          "type": "uint256"
        }
      ],
      "stateMutability": "view",
      "type": "function"
    },
    {
      "inputs": [
        {
          "internalType": "address",
          "name": "owner",
          "type": "address"
        },
        {
          "internalType": "address",
          "name": "operator",
          "type": "address"
        }
      ],
      "name": "isApprovedForAll",
      "outputs": [
        {
          "internalType": "bool",
          "name": "",
          "type": "bool"
        }
      ],
      "stateMutability": "view",
      "type": "function"
    },
    {
      "inputs": [],
      "name": "name",
      "outputs": [
        {
          "internalType": "string",
          "name": "",
          "type": "string"
        }
      ],
      "stateMutability": "view",
      "type": "function"
    },
    {
      "inputs": [
        {
          "internalType": "uint256",
          "name": "tokenId",
          "type": "uint256"
        }
      ],
      "name": "ownerOf",
      "outputs": [
        {
          "internalType": "address",
          "name": "",
          "type": "address"
        }
      ],
      "stateMutability": "view",
      "type": "function"
    },
    {
      "inputs": [
        {
          "internalType": "uint256",
          "name": "tokenId",
          "type": "uint256"
        },
        {
          "internalType": "uint256",
          "name": "price",
          "type": "uint256"
        }
      ],
      "name": "resellToken",
      "outputs": [],
      "stateMutability": "payable",
      "type": "function"
    },
    {
      "inputs": [
        {
          "internalType": "address",
          "name": "from",
          "type": "address"
        },
        {
          "internalType": "address",
          "name": "to",
          "type": "address"
        },
        {
          "internalType": "uint256",
          "name": "tokenId",
          "type": "uint256"
        }
      ],
      "name": "safeTransferFrom",
      "outputs": [],
      "stateMutability": "nonpayable",
      "type": "function"
    },
    {
      "inputs": [
        {
          "internalType": "address",
          "name": "from",
          "type": "address"
        },
        {
          "internalType": "address",
          "name": "to",
          "type": "address"
        },
        {
          "internalType": "uint256",
          "name": "tokenId",
          "type": "uint256"
        },
        {
          "internalType": "bytes",
          "name": "_data",
          "type": "bytes"
        }
      ],
      "name": "safeTransferFrom",
      "outputs": [],
      "stateMutability": "nonpayable",
      "type": "function"
    },
    {
      "inputs": [
        {
          "internalType": "address",
          "name": "operator",
          "type": "address"
        },
        {
          "internalType": "bool",
          "name": "approved",
          "type": "bool"
        }
      ],
      "name": "setApprovalForAll",
      "outputs": [],
      "stateMutability": "nonpayable",
      "type": "function"
    },
    {
      "inputs": [
        {
          "internalType": "bytes4",
          "name": "interfaceId",
          "type": "bytes4"
        }
      ],
      "name": "supportsInterface",
      "outputs": [
        {
          "internalType": "bool",
          "name": "",
          "type": "bool"
        }
      ],
      "stateMutability": "view",
      "type": "function"
    },
    {
      "inputs": [],
      "name": "symbol",
      "outputs": [
        {
          "internalType": "string",
          "name": "",
          "type": "string"
        }
      ],
      "stateMutability": "view",
      "type": "function"
    },
    {
      "inputs": [
        {
          "internalType": "uint256",
          "name": "tokenId",
          "type": "uint256"
        }
      ],
      "name": "tokenURI",
      "outputs": [
        {
          "internalType": "string",
          "name": "",
          "type": "string"
        }
      ],
      "stateMutability": "view",
      "type": "function"
    },
    {
      "inputs": [
        {
          "internalType": "address",
          "name": "from",
          "type": "address"
        },
        {
          "internalType": "address",
          "name": "to",
          "type": "address"
        },
        {
          "internalType": "uint256",
          "name": "tokenId",
          "type": "uint256"
        }
      ],
      "name": "transferFrom",
      "outputs": [],
      "stateMutability": "nonpayable",
      "type": "function"
    },
    {
      "inputs": [
        {
          "internalType": "uint256",
          "name": "_listingPrice",
          "type": "uint256"
        }
      ],
      "name": "updateListingPrice",
      "outputs": [],
      "stateMutability": "payable",
      "type": "function"
    }
  ],
  "bytecode": "0x60806040526658d15e176280006009553480156200001c57600080fd5b506040518060400160405280600b81526020017f4e465420457374617465730000000000000000000000000000000000000000008152506040518060400160405280600481526020017f4e455354000000000000000000000000000000000000000000000000000000008152508160009080519060200190620000a192919062000104565b508060019080519060200190620000ba92919062000104565b50505033600a60006101000a81548173ffffffffffffffffffffffffffffffffffffffff021916908373ffffffffffffffffffffffffffffffffffffffff16021790555062000219565b8280546200011290620001b4565b90600052602060002090601f01602090048101928262000136576000855562000182565b82601f106200015157805160ff191683800117855562000182565b8280016001018555821562000182579182015b828111156200018157825182559160200191906001019062000164565b5b50905062000191919062000195565b5090565b5b80821115620001b057600081600090555060010162000196565b5090565b60006002820490506001821680620001cd57607f821691505b60208210811415620001e457620001e3620001ea565b5b50919050565b7f4e487b7100000000000000000000000000000000000000000000000000000000600052602260045260246000fd5b61407180620002296000396000f3fe60806040526004361061012a5760003560e01c806395d89b41116100ab578063c87b56dd1161006f578063c87b56dd146103e8578063d15b4f1314610425578063d193535d14610450578063e219fc751461046c578063e409f7e814610488578063e985e9c5146104b35761012a565b806395d89b4114610324578063a22cb4651461034f578063a7683a7114610378578063ae677aa3146103a3578063b88d4fde146103bf5761012a565b806323b872dd116100f257806323b872dd1461022857806342842e0e146102515780636352211e1461027a57806370a08231146102b757806372b3b620146102f45761012a565b806301ffc9a71461012f57806306fdde031461016c578063081812fc14610197578063095ea7b3146101d457806312e85585146101fd575b600080fd5b34801561013b57600080fd5b5061015660048036038101906101519190612e65565b6104f0565b6040516101639190613490565b60405180910390f35b34801561017857600080fd5b506101816105d2565b60405161018e91906134ab565b60405180910390f35b3480156101a357600080fd5b506101be60048036038101906101b99190612f0b565b610664565b6040516101cb91906133c2565b60405180910390f35b3480156101e057600080fd5b506101fb60048036038101906101f69190612e29565b6106e9565b005b34801561020957600080fd5b50610212610801565b60405161021f91906136ed565b60405180910390f35b34801561023457600080fd5b5061024f600480360381019061024a9190612d23565b61080b565b005b34801561025d57600080fd5b5061027860048036038101906102739190612d23565b61086b565b005b34801561028657600080fd5b506102a1600480360381019061029c9190612f0b565b61088b565b6040516102ae91906133c2565b60405180910390f35b3480156102c357600080fd5b506102de60048036038101906102d99190612cbe565b61093d565b6040516102eb91906136ed565b60405180910390f35b61030e60048036038101906103099190612eb7565b6109f5565b60405161031b91906136ed565b60405180910390f35b34801561033057600080fd5b50610339610a37565b60405161034691906134ab565b60405180910390f35b34801561035b57600080fd5b5061037660048036038101906103719190612ded565b610ac9565b005b34801561038457600080fd5b5061038d610adf565b60405161039a919061346e565b60405180910390f35b6103bd60048036038101906103b89190612f0b565b610d57565b005b3480156103cb57600080fd5b506103e660048036038101906103e19190612d72565b610dea565b005b3480156103f457600080fd5b5061040f600480360381019061040a9190612f0b565b610e4c565b60405161041c91906134ab565b60405180910390f35b34801561043157600080fd5b5061043a610f9e565b604051610447919061346e565b60405180910390f35b61046a60048036038101906104659190612f0b565b611232565b005b61048660048036038101906104819190612f34565b61145d565b005b34801561049457600080fd5b5061049d61167c565b6040516104aa919061346e565b60405180910390f35b3480156104bf57600080fd5b506104da60048036038101906104d59190612ce7565b6118f4565b6040516104e79190613490565b60405180910390f35b60007f80ac58cd000000000000000000000000000000000000000000000000000000007bffffffffffffffffffffffffffffffffffffffffffffffffffffffff1916827bffffffffffffffffffffffffffffffffffffffffffffffffffffffff191614806105bb57507f5b5e139f000000000000000000000000000000000000000000000000000000007bffffffffffffffffffffffffffffffffffffffffffffffffffffffff1916827bffffffffffffffffffffffffffffffffffffffffffffffffffffffff1916145b806105cb57506105ca82611988565b5b9050919050565b6060600080546105e19061398e565b80601f016020809104026020016040519081016040528092919081815260200182805461060d9061398e565b801561065a5780601f1061062f5761010080835404028352916020019161065a565b820191906000526020600020905b81548152906001019060200180831161063d57829003601f168201915b5050505050905090565b600061066f826119f2565b6106ae576040517f08c379a00000000000000000000000000000000000000000000000000000000081526004016106a59061366d565b60405180910390fd5b6004600083815260200190815260200160002060009054906101000a900473ffffffffffffffffffffffffffffffffffffffff169050919050565b60006106f48261088b565b90508073ffffffffffffffffffffffffffffffffffffffff168373ffffffffffffffffffffffffffffffffffffffff161415610765576040517f08c379a000000000000000000000000000000000000000000000000000000000815260040161075c906136ad565b60405180910390fd5b8073ffffffffffffffffffffffffffffffffffffffff16610784611a5e565b73ffffffffffffffffffffffffffffffffffffffff1614806107b357506107b2816107ad611a5e565b6118f4565b5b6107f2576040517f08c379a00000000000000000000000000000000000000000000000000000000081526004016107e9906135ad565b60405180910390fd5b6107fc8383611a66565b505050565b6000600954905090565b61081c610816611a5e565b82611b1f565b61085b576040517f08c379a0000000000000000000000000000000000000000000000000000000008152600401610852906136cd565b60405180910390fd5b610866838383611bfd565b505050565b61088683838360405180602001604052806000815250610dea565b505050565b6000806002600084815260200190815260200160002060009054906101000a900473ffffffffffffffffffffffffffffffffffffffff169050600073ffffffffffffffffffffffffffffffffffffffff168173ffffffffffffffffffffffffffffffffffffffff161415610934576040517f08c379a000000000000000000000000000000000000000000000000000000000815260040161092b906135ed565b60405180910390fd5b80915050919050565b60008073ffffffffffffffffffffffffffffffffffffffff168273ffffffffffffffffffffffffffffffffffffffff1614156109ae576040517f08c379a00000000000000000000000000000000000000000000000000000000081526004016109a5906135cd565b60405180910390fd5b600360008373ffffffffffffffffffffffffffffffffffffffff1673ffffffffffffffffffffffffffffffffffffffff168152602001908152602001600020549050919050565b6000610a016007611e64565b6000610a0d6007611e7a565b9050610a193382611e88565b610a238185612062565b610a2d81846120d6565b8091505092915050565b606060018054610a469061398e565b80601f0160208091040260200160405190810160405280929190818152602001828054610a729061398e565b8015610abf5780601f10610a9457610100808354040283529160200191610abf565b820191906000526020600020905b815481529060010190602001808311610aa257829003601f168201915b5050505050905090565b610adb610ad4611a5e565b83836122c9565b5050565b60606000610aed6007611e7a565b9050600080610afa612436565b67ffffffffffffffff811115610b39577f4e487b7100000000000000000000000000000000000000000000000000000000600052604160045260246000fd5b604051908082528060200260200182016040528015610b7257816020015b610b5f612a85565b815260200190600190039081610b575790505b5090506000600190505b838111610d4d573373ffffffffffffffffffffffffffffffffffffffff16600b600083815260200190815260200160002060010160009054906101000a900473ffffffffffffffffffffffffffffffffffffffff1673ffffffffffffffffffffffffffffffffffffffff161415610d3a57600b60008281526020019081526020016000206040518060a0016040529081600082015481526020016001820160009054906101000a900473ffffffffffffffffffffffffffffffffffffffff1673ffffffffffffffffffffffffffffffffffffffff1673ffffffffffffffffffffffffffffffffffffffff1681526020016002820160009054906101000a900473ffffffffffffffffffffffffffffffffffffffff1673ffffffffffffffffffffffffffffffffffffffff1673ffffffffffffffffffffffffffffffffffffffff168152602001600382015481526020016004820160009054906101000a900460ff161515151581525050828481518110610d1f577f4e487b7100000000000000000000000000000000000000000000000000000000600052603260045260246000fd5b6020026020010181905250600183610d37919061380b565b92505b8080610d45906139f1565b915050610b7c565b5080935050505090565b338073ffffffffffffffffffffffffffffffffffffffff16600a60009054906101000a900473ffffffffffffffffffffffffffffffffffffffff1673ffffffffffffffffffffffffffffffffffffffff1614610ddf576040517f0713223200000000000000000000000000000000000000000000000000000000815260040160405180910390fd5b816009819055505050565b610dfb610df5611a5e565b83611b1f565b610e3a576040517f08c379a0000000000000000000000000000000000000000000000000000000008152600401610e31906136cd565b60405180910390fd5b610e46848484846124ea565b50505050565b6060610e57826119f2565b610e96576040517f08c379a0000000000000000000000000000000000000000000000000000000008152600401610e8d9061364d565b60405180910390fd5b6000600660008481526020019081526020016000208054610eb69061398e565b80601f0160208091040260200160405190810160405280929190818152602001828054610ee29061398e565b8015610f2f5780601f10610f0457610100808354040283529160200191610f2f565b820191906000526020600020905b815481529060010190602001808311610f1257829003601f168201915b505050505090506000610f40612546565b9050600081511415610f56578192505050610f99565b600082511115610f8b578082604051602001610f7392919061339e565b60405160208183030381529060405292505050610f99565b610f948461255d565b925050505b919050565b60606000610fac6007611e7a565b90506000610fba6008611e7a565b610fc46007611e7a565b610fce9190613892565b90506000808267ffffffffffffffff811115611013577f4e487b7100000000000000000000000000000000000000000000000000000000600052604160045260246000fd5b60405190808252806020026020018201604052801561104c57816020015b611039612a85565b8152602001906001900390816110315790505b5090506000600190505b848111611227573073ffffffffffffffffffffffffffffffffffffffff16600b600083815260200190815260200160002060020160009054906101000a900473ffffffffffffffffffffffffffffffffffffffff1673ffffffffffffffffffffffffffffffffffffffff16141561121457600b60008281526020019081526020016000206040518060a0016040529081600082015481526020016001820160009054906101000a900473ffffffffffffffffffffffffffffffffffffffff1673ffffffffffffffffffffffffffffffffffffffff1673ffffffffffffffffffffffffffffffffffffffff1681526020016002820160009054906101000a900473ffffffffffffffffffffffffffffffffffffffff1673ffffffffffffffffffffffffffffffffffffffff1673ffffffffffffffffffffffffffffffffffffffff168152602001600382015481526020016004820160009054906101000a900460ff1615151515815250508284815181106111f9577f4e487b7100000000000000000000000000000000000000000000000000000000600052603260045260246000fd5b6020026020010181905250600183611211919061380b565b92505b808061121f906139f1565b915050611056565b508094505050505090565b600b600082815260200190815260200160002060030154803414611282576040517f6cf09b4d00000000000000000000000000000000000000000000000000000000815260040160405180910390fd5b33600b600084815260200190815260200160002060020160006101000a81548173ffffffffffffffffffffffffffffffffffffffff021916908373ffffffffffffffffffffffffffffffffffffffff1602179055506000600b600084815260200190815260200160002060010160006101000a81548173ffffffffffffffffffffffffffffffffffffffff021916908373ffffffffffffffffffffffffffffffffffffffff1602179055506001600b600084815260200190815260200160002060040160006101000a81548160ff0219169083151502179055506113666008611e64565b611371303384611bfd565b600a60009054906101000a900473ffffffffffffffffffffffffffffffffffffffff1673ffffffffffffffffffffffffffffffffffffffff166108fc6009549081150290604051600060405180830381858888f193505050501580156113db573d6000803e3d6000fd5b50600b600083815260200190815260200160002060010160009054906101000a900473ffffffffffffffffffffffffffffffffffffffff1673ffffffffffffffffffffffffffffffffffffffff166108fc349081150290604051600060405180830381858888f19350505050158015611458573d6000803e3d6000fd5b505050565b8060008111611498576040517fbff7dcf800000000000000000000000000000000000000000000000000000000815260040160405180910390fd5b60095434146114d3576040517fce9f55b900000000000000000000000000000000000000000000000000000000815260040160405180910390fd5b3373ffffffffffffffffffffffffffffffffffffffff16600b600085815260200190815260200160002060020160009054906101000a900473ffffffffffffffffffffffffffffffffffffffff1673ffffffffffffffffffffffffffffffffffffffff161461156e576040517f0713223200000000000000000000000000000000000000000000000000000000815260040160405180910390fd5b81600b60008581526020019081526020016000206003018190555033600b600085815260200190815260200160002060010160006101000a81548173ffffffffffffffffffffffffffffffffffffffff021916908373ffffffffffffffffffffffffffffffffffffffff16021790555030600b600085815260200190815260200160002060020160006101000a81548173ffffffffffffffffffffffffffffffffffffffff021916908373ffffffffffffffffffffffffffffffffffffffff1602179055506000600b600085815260200190815260200160002060040160006101000a81548160ff02191690831515021790555061166c6008612604565b611677333085611bfd565b505050565b6060600061168a6007611e7a565b9050600080611697612660565b67ffffffffffffffff8111156116d6577f4e487b7100000000000000000000000000000000000000000000000000000000600052604160045260246000fd5b60405190808252806020026020018201604052801561170f57816020015b6116fc612a85565b8152602001906001900390816116f45790505b5090506000600190505b8381116118ea573373ffffffffffffffffffffffffffffffffffffffff16600b600083815260200190815260200160002060020160009054906101000a900473ffffffffffffffffffffffffffffffffffffffff1673ffffffffffffffffffffffffffffffffffffffff1614156118d757600b60008281526020019081526020016000206040518060a0016040529081600082015481526020016001820160009054906101000a900473ffffffffffffffffffffffffffffffffffffffff1673ffffffffffffffffffffffffffffffffffffffff1673ffffffffffffffffffffffffffffffffffffffff1681526020016002820160009054906101000a900473ffffffffffffffffffffffffffffffffffffffff1673ffffffffffffffffffffffffffffffffffffffff1673ffffffffffffffffffffffffffffffffffffffff168152602001600382015481526020016004820160009054906101000a900460ff1615151515815250508284815181106118bc577f4e487b7100000000000000000000000000000000000000000000000000000000600052603260045260246000fd5b60200260200101819052506001836118d4919061380b565b92505b80806118e2906139f1565b915050611719565b5080935050505090565b6000600560008473ffffffffffffffffffffffffffffffffffffffff1673ffffffffffffffffffffffffffffffffffffffff16815260200190815260200160002060008373ffffffffffffffffffffffffffffffffffffffff1673ffffffffffffffffffffffffffffffffffffffff16815260200190815260200160002060009054906101000a900460ff16905092915050565b60007f01ffc9a7000000000000000000000000000000000000000000000000000000007bffffffffffffffffffffffffffffffffffffffffffffffffffffffff1916827bffffffffffffffffffffffffffffffffffffffffffffffffffffffff1916149050919050565b60008073ffffffffffffffffffffffffffffffffffffffff166002600084815260200190815260200160002060009054906101000a900473ffffffffffffffffffffffffffffffffffffffff1673ffffffffffffffffffffffffffffffffffffffff1614159050919050565b600033905090565b816004600083815260200190815260200160002060006101000a81548173ffffffffffffffffffffffffffffffffffffffff021916908373ffffffffffffffffffffffffffffffffffffffff160217905550808273ffffffffffffffffffffffffffffffffffffffff16611ad98361088b565b73ffffffffffffffffffffffffffffffffffffffff167f8c5be1e5ebec7d5bd14f71427d1e84f3dd0314c0f7b2291e5b200ac8c7c3b92560405160405180910390a45050565b6000611b2a826119f2565b611b69576040517f08c379a0000000000000000000000000000000000000000000000000000000008152600401611b609061358d565b60405180910390fd5b6000611b748361088b565b90508073ffffffffffffffffffffffffffffffffffffffff168473ffffffffffffffffffffffffffffffffffffffff161480611be357508373ffffffffffffffffffffffffffffffffffffffff16611bcb84610664565b73ffffffffffffffffffffffffffffffffffffffff16145b80611bf45750611bf381856118f4565b5b91505092915050565b8273ffffffffffffffffffffffffffffffffffffffff16611c1d8261088b565b73ffffffffffffffffffffffffffffffffffffffff1614611c73576040517f08c379a0000000000000000000000000000000000000000000000000000000008152600401611c6a9061350d565b60405180910390fd5b600073ffffffffffffffffffffffffffffffffffffffff168273ffffffffffffffffffffffffffffffffffffffff161415611ce3576040517f08c379a0000000000000000000000000000000000000000000000000000000008152600401611cda9061354d565b60405180910390fd5b611cee838383612714565b611cf9600082611a66565b6001600360008573ffffffffffffffffffffffffffffffffffffffff1673ffffffffffffffffffffffffffffffffffffffff1681526020019081526020016000206000828254611d499190613892565b925050819055506001600360008473ffffffffffffffffffffffffffffffffffffffff1673ffffffffffffffffffffffffffffffffffffffff1681526020019081526020016000206000828254611da0919061380b565b92505081905550816002600083815260200190815260200160002060006101000a81548173ffffffffffffffffffffffffffffffffffffffff021916908373ffffffffffffffffffffffffffffffffffffffff160217905550808273ffffffffffffffffffffffffffffffffffffffff168473ffffffffffffffffffffffffffffffffffffffff167fddf252ad1be2c89b69c2b068fc378daa952ba7f163c4a11628f55a4df523b3ef60405160405180910390a4611e5f838383612719565b505050565b6001816000016000828254019250508190555050565b600081600001549050919050565b600073ffffffffffffffffffffffffffffffffffffffff168273ffffffffffffffffffffffffffffffffffffffff161415611ef8576040517f08c379a0000000000000000000000000000000000000000000000000000000008152600401611eef9061362d565b60405180910390fd5b611f01816119f2565b15611f41576040517f08c379a0000000000000000000000000000000000000000000000000000000008152600401611f389061352d565b60405180910390fd5b611f4d60008383612714565b6001600360008473ffffffffffffffffffffffffffffffffffffffff1673ffffffffffffffffffffffffffffffffffffffff1681526020019081526020016000206000828254611f9d919061380b565b92505081905550816002600083815260200190815260200160002060006101000a81548173ffffffffffffffffffffffffffffffffffffffff021916908373ffffffffffffffffffffffffffffffffffffffff160217905550808273ffffffffffffffffffffffffffffffffffffffff16600073ffffffffffffffffffffffffffffffffffffffff167fddf252ad1be2c89b69c2b068fc378daa952ba7f163c4a11628f55a4df523b3ef60405160405180910390a461205e60008383612719565b5050565b61206b826119f2565b6120aa576040517f08c379a00000000000000000000000000000000000000000000000000000000081526004016120a19061360d565b60405180910390fd5b806006600084815260200190815260200160002090805190602001906120d1929190612ae2565b505050565b8060008111612111576040517fbff7dcf800000000000000000000000000000000000000000000000000000000815260040160405180910390fd5b600954341461214c576040517fce9f55b900000000000000000000000000000000000000000000000000000000815260040160405180910390fd5b6040518060a001604052808481526020013373ffffffffffffffffffffffffffffffffffffffff1681526020013073ffffffffffffffffffffffffffffffffffffffff16815260200183815260200160001515815250600b60008581526020019081526020016000206000820151816000015560208201518160010160006101000a81548173ffffffffffffffffffffffffffffffffffffffff021916908373ffffffffffffffffffffffffffffffffffffffff16021790555060408201518160020160006101000a81548173ffffffffffffffffffffffffffffffffffffffff021916908373ffffffffffffffffffffffffffffffffffffffff1602179055506060820151816003015560808201518160040160006101000a81548160ff021916908315150217905550905050612285333085611bfd565b827fdeb96ac264826584ed864590b3f24bcb64ed3ce343c1e95abde59178508c66c133308560006040516122bc94939291906133dd565b60405180910390a2505050565b8173ffffffffffffffffffffffffffffffffffffffff168373ffffffffffffffffffffffffffffffffffffffff161415612338576040517f08c379a000000000000000000000000000000000000000000000000000000000815260040161232f9061356d565b60405180910390fd5b80600560008573ffffffffffffffffffffffffffffffffffffffff1673ffffffffffffffffffffffffffffffffffffffff16815260200190815260200160002060008473ffffffffffffffffffffffffffffffffffffffff1673ffffffffffffffffffffffffffffffffffffffff16815260200190815260200160002060006101000a81548160ff0219169083151502179055508173ffffffffffffffffffffffffffffffffffffffff168373ffffffffffffffffffffffffffffffffffffffff167f17307eab39ab6107e8899845ad3d59bd9653f200f220920489ca2b5937696c31836040516124299190613490565b60405180910390a3505050565b6000806124436007611e7a565b9050600080600190505b8281116124e1573373ffffffffffffffffffffffffffffffffffffffff16600b600083815260200190815260200160002060010160009054906101000a900473ffffffffffffffffffffffffffffffffffffffff1673ffffffffffffffffffffffffffffffffffffffff1614156124ce576001826124cb919061380b565b91505b80806124d9906139f1565b91505061244d565b50809250505090565b6124f5848484611bfd565b6125018484848461271e565b612540576040517f08c379a0000000000000000000000000000000000000000000000000000000008152600401612537906134ed565b60405180910390fd5b50505050565b606060405180602001604052806000815250905090565b6060612568826119f2565b6125a7576040517f08c379a000000000000000000000000000000000000000000000000000000000815260040161259e9061368d565b60405180910390fd5b60006125b1612546565b905060008151116125d157604051806020016040528060008152506125fc565b806125db846128b5565b6040516020016125ec92919061339e565b6040516020818303038152906040525b915050919050565b60008160000154905060008111612650576040517f08c379a0000000000000000000000000000000000000000000000000000000008152600401612647906134cd565b60405180910390fd5b6001810382600001819055505050565b60008061266d6007611e7a565b9050600080600190505b82811161270b573373ffffffffffffffffffffffffffffffffffffffff16600b600083815260200190815260200160002060020160009054906101000a900473ffffffffffffffffffffffffffffffffffffffff1673ffffffffffffffffffffffffffffffffffffffff1614156126f8576001826126f5919061380b565b91505b8080612703906139f1565b915050612677565b50809250505090565b505050565b505050565b600061273f8473ffffffffffffffffffffffffffffffffffffffff16612a62565b156128a8578373ffffffffffffffffffffffffffffffffffffffff1663150b7a02612768611a5e565b8786866040518563ffffffff1660e01b815260040161278a9493929190613422565b602060405180830381600087803b1580156127a457600080fd5b505af19250505080156127d557506040513d601f19601f820116820180604052508101906127d29190612e8e565b60015b612858573d8060008114612805576040519150601f19603f3d011682016040523d82523d6000602084013e61280a565b606091505b50600081511415612850576040517f08c379a0000000000000000000000000000000000000000000000000000000008152600401612847906134ed565b60405180910390fd5b805181602001fd5b63150b7a0260e01b7bffffffffffffffffffffffffffffffffffffffffffffffffffffffff1916817bffffffffffffffffffffffffffffffffffffffffffffffffffffffff1916149150506128ad565b600190505b949350505050565b606060008214156128fd576040518060400160405280600181526020017f30000000000000000000000000000000000000000000000000000000000000008152509050612a5d565b600082905060005b6000821461292f578080612918906139f1565b915050600a826129289190613861565b9150612905565b60008167ffffffffffffffff811115612971577f4e487b7100000000000000000000000000000000000000000000000000000000600052604160045260246000fd5b6040519080825280601f01601f1916602001820160405280156129a35781602001600182028036833780820191505090505b5090505b60008514612a56576001826129bc9190613892565b9150600a856129cb9190613a3a565b60306129d7919061380b565b60f81b818381518110612a13577f4e487b7100000000000000000000000000000000000000000000000000000000600052603260045260246000fd5b60200101907effffffffffffffffffffffffffffffffffffffffffffffffffffffffffffff1916908160001a905350600a85612a4f9190613861565b94506129a7565b8093505050505b919050565b6000808273ffffffffffffffffffffffffffffffffffffffff163b119050919050565b6040518060a0016040528060008152602001600073ffffffffffffffffffffffffffffffffffffffff168152602001600073ffffffffffffffffffffffffffffffffffffffff168152602001600081526020016000151581525090565b828054612aee9061398e565b90600052602060002090601f016020900481019282612b105760008555612b57565b82601f10612b2957805160ff1916838001178555612b57565b82800160010185558215612b57579182015b82811115612b56578251825591602001919060010190612b3b565b5b509050612b649190612b68565b5090565b5b80821115612b81576000816000905550600101612b69565b5090565b6000612b98612b938461372d565b613708565b905082815260208101848484011115612bb057600080fd5b612bbb84828561394c565b509392505050565b6000612bd6612bd18461375e565b613708565b905082815260208101848484011115612bee57600080fd5b612bf984828561394c565b509392505050565b600081359050612c1081613fdf565b92915050565b600081359050612c2581613ff6565b92915050565b600081359050612c3a8161400d565b92915050565b600081519050612c4f8161400d565b92915050565b600082601f830112612c6657600080fd5b8135612c76848260208601612b85565b91505092915050565b600082601f830112612c9057600080fd5b8135612ca0848260208601612bc3565b91505092915050565b600081359050612cb881614024565b92915050565b600060208284031215612cd057600080fd5b6000612cde84828501612c01565b91505092915050565b60008060408385031215612cfa57600080fd5b6000612d0885828601612c01565b9250506020612d1985828601612c01565b9150509250929050565b600080600060608486031215612d3857600080fd5b6000612d4686828701612c01565b9350506020612d5786828701612c01565b9250506040612d6886828701612ca9565b9150509250925092565b60008060008060808587031215612d8857600080fd5b6000612d9687828801612c01565b9450506020612da787828801612c01565b9350506040612db887828801612ca9565b925050606085013567ffffffffffffffff811115612dd557600080fd5b612de187828801612c55565b91505092959194509250565b60008060408385031215612e0057600080fd5b6000612e0e85828601612c01565b9250506020612e1f85828601612c16565b9150509250929050565b60008060408385031215612e3c57600080fd5b6000612e4a85828601612c01565b9250506020612e5b85828601612ca9565b9150509250929050565b600060208284031215612e7757600080fd5b6000612e8584828501612c2b565b91505092915050565b600060208284031215612ea057600080fd5b6000612eae84828501612c40565b91505092915050565b60008060408385031215612eca57600080fd5b600083013567ffffffffffffffff811115612ee457600080fd5b612ef085828601612c7f565b9250506020612f0185828601612ca9565b9150509250929050565b600060208284031215612f1d57600080fd5b6000612f2b84828501612ca9565b91505092915050565b60008060408385031215612f4757600080fd5b6000612f5585828601612ca9565b9250506020612f6685828601612ca9565b9150509250929050565b6000612f7c8383613318565b60a08301905092915050565b612f91816138d8565b82525050565b612fa0816138c6565b82525050565b6000612fb18261379f565b612fbb81856137cd565b9350612fc68361378f565b8060005b83811015612ff7578151612fde8882612f70565b9750612fe9836137c0565b925050600181019050612fca565b5085935050505092915050565b61300d816138ea565b82525050565b61301c816138ea565b82525050565b600061302d826137aa565b61303781856137de565b935061304781856020860161395b565b61305081613b27565b840191505092915050565b6000613066826137b5565b61307081856137ef565b935061308081856020860161395b565b61308981613b27565b840191505092915050565b600061309f826137b5565b6130a98185613800565b93506130b981856020860161395b565b80840191505092915050565b60006130d2601b836137ef565b91506130dd82613b38565b602082019050919050565b60006130f56032836137ef565b915061310082613b61565b604082019050919050565b60006131186025836137ef565b915061312382613bb0565b604082019050919050565b600061313b601c836137ef565b915061314682613bff565b602082019050919050565b600061315e6024836137ef565b915061316982613c28565b604082019050919050565b60006131816019836137ef565b915061318c82613c77565b602082019050919050565b60006131a4602c836137ef565b91506131af82613ca0565b604082019050919050565b60006131c76038836137ef565b91506131d282613cef565b604082019050919050565b60006131ea602a836137ef565b91506131f582613d3e565b604082019050919050565b600061320d6029836137ef565b915061321882613d8d565b604082019050919050565b6000613230602e836137ef565b915061323b82613ddc565b604082019050919050565b60006132536020836137ef565b915061325e82613e2b565b602082019050919050565b60006132766031836137ef565b915061328182613e54565b604082019050919050565b6000613299602c836137ef565b91506132a482613ea3565b604082019050919050565b60006132bc602f836137ef565b91506132c782613ef2565b604082019050919050565b60006132df6021836137ef565b91506132ea82613f41565b604082019050919050565b60006133026031836137ef565b915061330d82613f90565b604082019050919050565b60a08201600082015161332e6000850182613380565b5060208201516133416020850182612f88565b5060408201516133546040850182612f88565b5060608201516133676060850182613380565b50608082015161337a6080850182613004565b50505050565b61338981613942565b82525050565b61339881613942565b82525050565b60006133aa8285613094565b91506133b68284613094565b91508190509392505050565b60006020820190506133d76000830184612f97565b92915050565b60006080820190506133f26000830187612f97565b6133ff6020830186612f97565b61340c604083018561338f565b6134196060830184613013565b95945050505050565b60006080820190506134376000830187612f97565b6134446020830186612f97565b613451604083018561338f565b81810360608301526134638184613022565b905095945050505050565b600060208201905081810360008301526134888184612fa6565b905092915050565b60006020820190506134a56000830184613013565b92915050565b600060208201905081810360008301526134c5818461305b565b905092915050565b600060208201905081810360008301526134e6816130c5565b9050919050565b60006020820190508181036000830152613506816130e8565b9050919050565b600060208201905081810360008301526135268161310b565b9050919050565b600060208201905081810360008301526135468161312e565b9050919050565b6000602082019050818103600083015261356681613151565b9050919050565b6000602082019050818103600083015261358681613174565b9050919050565b600060208201905081810360008301526135a681613197565b9050919050565b600060208201905081810360008301526135c6816131ba565b9050919050565b600060208201905081810360008301526135e6816131dd565b9050919050565b6000602082019050818103600083015261360681613200565b9050919050565b6000602082019050818103600083015261362681613223565b9050919050565b6000602082019050818103600083015261364681613246565b9050919050565b6000602082019050818103600083015261366681613269565b9050919050565b600060208201905081810360008301526136868161328c565b9050919050565b600060208201905081810360008301526136a6816132af565b9050919050565b600060208201905081810360008301526136c6816132d2565b9050919050565b600060208201905081810360008301526136e6816132f5565b9050919050565b6000602082019050613702600083018461338f565b92915050565b6000613712613723565b905061371e82826139c0565b919050565b6000604051905090565b600067ffffffffffffffff82111561374857613747613af8565b5b61375182613b27565b9050602081019050919050565b600067ffffffffffffffff82111561377957613778613af8565b5b61378282613b27565b9050602081019050919050565b6000819050602082019050919050565b600081519050919050565b600081519050919050565b600081519050919050565b6000602082019050919050565b600082825260208201905092915050565b600082825260208201905092915050565b600082825260208201905092915050565b600081905092915050565b600061381682613942565b915061382183613942565b9250827fffffffffffffffffffffffffffffffffffffffffffffffffffffffffffffffff0382111561385657613855613a6b565b5b828201905092915050565b600061386c82613942565b915061387783613942565b92508261388757613886613a9a565b5b828204905092915050565b600061389d82613942565b91506138a883613942565b9250828210156138bb576138ba613a6b565b5b828203905092915050565b60006138d182613922565b9050919050565b60006138e382613922565b9050919050565b60008115159050919050565b60007fffffffff0000000000000000000000000000000000000000000000000000000082169050919050565b600073ffffffffffffffffffffffffffffffffffffffff82169050919050565b6000819050919050565b82818337600083830152505050565b60005b8381101561397957808201518184015260208101905061395e565b83811115613988576000848401525b50505050565b600060028204905060018216806139a657607f821691505b602082108114156139ba576139b9613ac9565b5b50919050565b6139c982613b27565b810181811067ffffffffffffffff821117156139e8576139e7613af8565b5b80604052505050565b60006139fc82613942565b91507fffffffffffffffffffffffffffffffffffffffffffffffffffffffffffffffff821415613a2f57613a2e613a6b565b5b600182019050919050565b6000613a4582613942565b9150613a5083613942565b925082613a6057613a5f613a9a565b5b828206905092915050565b7f4e487b7100000000000000000000000000000000000000000000000000000000600052601160045260246000fd5b7f4e487b7100000000000000000000000000000000000000000000000000000000600052601260045260246000fd5b7f4e487b7100000000000000000000000000000000000000000000000000000000600052602260045260246000fd5b7f4e487b7100000000000000000000000000000000000000000000000000000000600052604160045260246000fd5b6000601f19601f8301169050919050565b7f436f756e7465723a2064656372656d656e74206f766572666c6f770000000000600082015250565b7f4552433732313a207472616e7366657220746f206e6f6e20455243373231526560008201527f63656976657220696d706c656d656e7465720000000000000000000000000000602082015250565b7f4552433732313a207472616e736665722066726f6d20696e636f72726563742060008201527f6f776e6572000000000000000000000000000000000000000000000000000000602082015250565b7f4552433732313a20746f6b656e20616c7265616479206d696e74656400000000600082015250565b7f4552433732313a207472616e7366657220746f20746865207a65726f2061646460008201527f7265737300000000000000000000000000000000000000000000000000000000602082015250565b7f4552433732313a20617070726f766520746f2063616c6c657200000000000000600082015250565b7f4552433732313a206f70657261746f7220717565727920666f72206e6f6e657860008201527f697374656e7420746f6b656e0000000000000000000000000000000000000000602082015250565b7f4552433732313a20617070726f76652063616c6c6572206973206e6f74206f7760008201527f6e6572206e6f7220617070726f76656420666f7220616c6c0000000000000000602082015250565b7f4552433732313a2062616c616e636520717565727920666f7220746865207a6560008201527f726f206164647265737300000000000000000000000000000000000000000000602082015250565b7f4552433732313a206f776e657220717565727920666f72206e6f6e657869737460008201527f656e7420746f6b656e0000000000000000000000000000000000000000000000602082015250565b7f45524337323155524953746f726167653a2055524920736574206f66206e6f6e60008201527f6578697374656e7420746f6b656e000000000000000000000000000000000000602082015250565b7f4552433732313a206d696e7420746f20746865207a65726f2061646472657373600082015250565b7f45524337323155524953746f726167653a2055524920717565727920666f722060008201527f6e6f6e6578697374656e7420746f6b656e000000000000000000000000000000602082015250565b7f4552433732313a20617070726f76656420717565727920666f72206e6f6e657860008201527f697374656e7420746f6b656e0000000000000000000000000000000000000000602082015250565b7f4552433732314d657461646174613a2055524920717565727920666f72206e6f60008201527f6e6578697374656e7420746f6b656e0000000000000000000000000000000000602082015250565b7f4552433732313a20617070726f76616c20746f2063757272656e74206f776e6560008201527f7200000000000000000000000000000000000000000000000000000000000000602082015250565b7f4552433732313a207472616e736665722063616c6c6572206973206e6f74206f60008201527f776e6572206e6f7220617070726f766564000000000000000000000000000000602082015250565b613fe8816138c6565b8114613ff357600080fd5b50565b613fff816138ea565b811461400a57600080fd5b50565b614016816138f6565b811461402157600080fd5b50565b61402d81613942565b811461403857600080fd5b5056fea264697066735822122048e5f8d5ae3a587ef740c05c486e5f4f67f86ac264a73ef9848143517fb7f5c564736f6c63430008040033",
  "linkReferences": {},
  "deployedLinkReferences": {}
}