{
  "_format": "hh-sol-artifact-1",
  "contractName": "RealEstateMarketplace",
  "sourceName": "contracts/RealEstateMarketplace.sol",
  "abi": [
    {
      "inputs": [],
      "stateMutability": "nonpayable",
      "type": "constructor"
    },
    {
      "anonymous": false,
      "inputs": [
        {
          "indexed": true,
          "internalType": "address",
          "name": "owner",
          "type": "address"
        },
        {
          "indexed": true,
          "internalType": "address",
          "name": "approved",
          "type": "address"
        },
        {
          "indexed": true,
          "internalType": "uint256",
          "name": "tokenId",
          "type": "uint256"
        }
      ],
      "name": "Approval",
      "type": "event"
    },
    {
      "anonymous": false,
      "inputs": [
        {
          "indexed": true,
          "internalType": "address",
          "name": "owner",
          "type": "address"
        },
        {
          "indexed": true,
          "internalType": "address",
          "name": "operator",
          "type": "address"
        },
        {
          "indexed": false,
          "internalType": "bool",
          "name": "approved",
          "type": "bool"
        }
      ],
      "name": "ApprovalForAll",
      "type": "event"
    },
    {
      "anonymous": false,
      "inputs": [
        {
          "indexed": true,
          "internalType": "uint256",
          "name": "tokenId",
          "type": "uint256"
        },
        {
          "indexed": false,
          "internalType": "address",
          "name": "seller",
          "type": "address"
        },
        {
          "indexed": false,
          "internalType": "address",
          "name": "owner",
          "type": "address"
        },
        {
          "indexed": false,
          "internalType": "uint256",
          "name": "price",
          "type": "uint256"
        },
        {
          "indexed": false,
          "internalType": "bool",
          "name": "sold",
          "type": "bool"
        }
      ],
      "name": "PropertyListed",
      "type": "event"
    },
    {
      "anonymous": false,
      "inputs": [
        {
          "indexed": true,
          "internalType": "address",
          "name": "from",
          "type": "address"
        },
        {
          "indexed": true,
          "internalType": "address",
          "name": "to",
          "type": "address"
        },
        {
          "indexed": true,
          "internalType": "uint256",
          "name": "tokenId",
          "type": "uint256"
        }
      ],
      "name": "Transfer",
      "type": "event"
    },
    {
      "inputs": [
        {
          "internalType": "address",
          "name": "to",
          "type": "address"
        },
        {
          "internalType": "uint256",
          "name": "tokenId",
          "type": "uint256"
        }
      ],
      "name": "approve",
      "outputs": [],
      "stateMutability": "nonpayable",
      "type": "function"
    },
    {
      "inputs": [
        {
          "internalType": "address",
          "name": "owner",
          "type": "address"
        }
      ],
      "name": "balanceOf",
      "outputs": [
        {
          "internalType": "uint256",
          "name": "",
          "type": "uint256"
        }
      ],
      "stateMutability": "view",
      "type": "function"
    },
    {
      "inputs": [
        {
          "internalType": "uint256",
          "name": "tokenId",
          "type": "uint256"
        }
      ],
      "name": "createPropertySale",
      "outputs": [],
      "stateMutability": "payable",
      "type": "function"
    },
    {
      "inputs": [
        {
          "internalType": "string",
          "name": "tokenURI",
          "type": "string"
        },
        {
          "internalType": "uint256",
          "name": "price",
          "type": "uint256"
        }
      ],
      "name": "createToken",
      "outputs": [
        {
          "internalType": "uint256",
          "name": "",
          "type": "uint256"
        }
      ],
      "stateMutability": "payable",
      "type": "function"
    },
    {
      "inputs": [
        {
          "internalType": "uint256",
          "name": "tokenId",
          "type": "uint256"
        }
      ],
      "name": "delistProperty",
      "outputs": [],
      "stateMutability": "nonpayable",
      "type": "function"
    },
    {
      "inputs": [],
      "name": "fetchMyListedProperties",
      "outputs": [
        {
          "components": [
            {
              "internalType": "uint256",
              "name": "tokenId",
              "type": "uint256"
            },
            {
              "internalType": "address payable",
              "name": "seller",
              "type": "address"
            },
            {
              "internalType": "address payable",
              "name": "owner",
              "type": "address"
            },
            {
              "internalType": "uint256",
              "name": "price",
              "type": "uint256"
            },
            {
              "internalType": "bool",
              "name": "sold",
              "type": "bool"
            }
          ],
          "internalType": "struct RealEstateMarketplace.Property[]",
          "name": "",
          "type": "tuple[]"
        }
      ],
      "stateMutability": "view",
      "type": "function"
    },
    {
      "inputs": [],
      "name": "fetchMyPurchasedProperties",
      "outputs": [
        {
          "components": [
            {
              "internalType": "uint256",
              "name": "tokenId",
              "type": "uint256"
            },
            {
              "internalType": "address payable",
              "name": "seller",
              "type": "address"
            },
            {
              "internalType": "address payable",
              "name": "owner",
              "type": "address"
            },
            {
              "internalType": "uint256",
              "name": "price",
              "type": "uint256"
            },
            {
              "internalType": "bool",
              "name": "sold",
              "type": "bool"
            }
          ],
          "internalType": "struct RealEstateMarketplace.Property[]",
          "name": "",
          "type": "tuple[]"
        }
      ],
      "stateMutability": "view",
      "type": "function"
    },
    {
      "inputs": [],
      "name": "fetchUnsoldProperties",
      "outputs": [
        {
          "components": [
            {
              "internalType": "uint256",
              "name": "tokenId",
              "type": "uint256"
            },
            {
              "internalType": "address payable",
              "name": "seller",
              "type": "address"
            },
            {
              "internalType": "address payable",
              "name": "owner",
              "type": "address"
            },
            {
              "internalType": "uint256",
              "name": "price",
              "type": "uint256"
            },
            {
              "internalType": "bool",
              "name": "sold",
              "type": "bool"
            }
          ],
          "internalType": "struct RealEstateMarketplace.Property[]",
          "name": "",
          "type": "tuple[]"
        }
      ],
      "stateMutability": "view",
      "type": "function"
    },
    {
      "inputs": [
        {
          "internalType": "uint256",
          "name": "tokenId",
          "type": "uint256"
        }
      ],
      "name": "getApproved",
      "outputs": [
        {
          "internalType": "address",
          "name": "",
          "type": "address"
        }
      ],
      "stateMutability": "view",
      "type": "function"
    },
    {
      "inputs": [],
      "name": "getListingPrice",
      "outputs": [
        {
          "internalType": "uint256",
          "name": "",
          "type": "uint256"
        }
      ],
      "stateMutability": "view",
      "type": "function"
    },
    {
      "inputs": [],
      "name": "getOwner",
      "outputs": [
        {
          "internalType": "address",
          "name": "",
          "type": "address"
        }
      ],
      "stateMutability": "view",
      "type": "function"
    },
    {
      "inputs": [
        {
          "internalType": "uint256",
          "name": "tokenId",
          "type": "uint256"
        }
      ],
      "name": "getTokenOwner",
      "outputs": [
        {
          "internalType": "address",
          "name": "",
          "type": "address"
        }
      ],
      "stateMutability": "view",
      "type": "function"
    },
    {
      "inputs": [
        {
          "internalType": "address",
          "name": "owner",
          "type": "address"
        },
        {
          "internalType": "address",
          "name": "operator",
          "type": "address"
        }
      ],
      "name": "isApprovedForAll",
      "outputs": [
        {
          "internalType": "bool",
          "name": "",
          "type": "bool"
        }
      ],
      "stateMutability": "view",
      "type": "function"
    },
    {
      "inputs": [],
      "name": "name",
      "outputs": [
        {
          "internalType": "string",
          "name": "",
          "type": "string"
        }
      ],
      "stateMutability": "view",
      "type": "function"
    },
    {
      "inputs": [
        {
          "internalType": "uint256",
          "name": "tokenId",
          "type": "uint256"
        }
      ],
      "name": "ownerOf",
      "outputs": [
        {
          "internalType": "address",
          "name": "",
          "type": "address"
        }
      ],
      "stateMutability": "view",
      "type": "function"
    },
    {
      "inputs": [
        {
          "internalType": "uint256",
          "name": "tokenId",
          "type": "uint256"
        },
        {
          "internalType": "string",
          "name": "tokenURI",
          "type": "string"
        },
        {
          "internalType": "uint256",
          "name": "price",
          "type": "uint256"
        }
      ],
      "name": "relistProperty",
      "outputs": [
        {
          "internalType": "uint256",
          "name": "",
          "type": "uint256"
        }
      ],
      "stateMutability": "payable",
      "type": "function"
    },
    {
      "inputs": [
        {
          "internalType": "uint256",
          "name": "tokenId",
          "type": "uint256"
        },
        {
          "internalType": "uint256",
          "name": "price",
          "type": "uint256"
        }
      ],
      "name": "resellToken",
      "outputs": [],
      "stateMutability": "payable",
      "type": "function"
    },
    {
      "inputs": [
        {
          "internalType": "address",
          "name": "from",
          "type": "address"
        },
        {
          "internalType": "address",
          "name": "to",
          "type": "address"
        },
        {
          "internalType": "uint256",
          "name": "tokenId",
          "type": "uint256"
        }
      ],
      "name": "safeTransferFrom",
      "outputs": [],
      "stateMutability": "nonpayable",
      "type": "function"
    },
    {
      "inputs": [
        {
          "internalType": "address",
          "name": "from",
          "type": "address"
        },
        {
          "internalType": "address",
          "name": "to",
          "type": "address"
        },
        {
          "internalType": "uint256",
          "name": "tokenId",
          "type": "uint256"
        },
        {
          "internalType": "bytes",
          "name": "_data",
          "type": "bytes"
        }
      ],
      "name": "safeTransferFrom",
      "outputs": [],
      "stateMutability": "nonpayable",
      "type": "function"
    },
    {
      "inputs": [
        {
          "internalType": "address",
          "name": "operator",
          "type": "address"
        },
        {
          "internalType": "bool",
          "name": "approved",
          "type": "bool"
        }
      ],
      "name": "setApprovalForAll",
      "outputs": [],
      "stateMutability": "nonpayable",
      "type": "function"
    },
    {
      "inputs": [
        {
          "internalType": "bytes4",
          "name": "interfaceId",
          "type": "bytes4"
        }
      ],
      "name": "supportsInterface",
      "outputs": [
        {
          "internalType": "bool",
          "name": "",
          "type": "bool"
        }
      ],
      "stateMutability": "view",
      "type": "function"
    },
    {
      "inputs": [],
      "name": "symbol",
      "outputs": [
        {
          "internalType": "string",
          "name": "",
          "type": "string"
        }
      ],
      "stateMutability": "view",
      "type": "function"
    },
    {
      "inputs": [
        {
          "internalType": "uint256",
          "name": "tokenId",
          "type": "uint256"
        }
      ],
      "name": "tokenURI",
      "outputs": [
        {
          "internalType": "string",
          "name": "",
          "type": "string"
        }
      ],
      "stateMutability": "view",
      "type": "function"
    },
    {
      "inputs": [
        {
          "internalType": "address",
          "name": "from",
          "type": "address"
        },
        {
          "internalType": "address",
          "name": "to",
          "type": "address"
        },
        {
          "internalType": "uint256",
          "name": "tokenId",
          "type": "uint256"
        }
      ],
      "name": "transferFrom",
      "outputs": [],
      "stateMutability": "nonpayable",
      "type": "function"
    },
    {
      "inputs": [
        {
          "internalType": "uint256",
          "name": "_listingPrice",
          "type": "uint256"
        }
      ],
      "name": "updateListingPrice",
      "outputs": [],
      "stateMutability": "payable",
      "type": "function"
    }
  ],
  "bytecode": "0x60806040526658d15e176280006009553480156200001c57600080fd5b506040518060400160405280600b81526020017f4e465420457374617465730000000000000000000000000000000000000000008152506040518060400160405280600481526020017f4e455354000000000000000000000000000000000000000000000000000000008152508160009080519060200190620000a192919062000104565b508060019080519060200190620000ba92919062000104565b50505033600a60006101000a81548173ffffffffffffffffffffffffffffffffffffffff021916908373ffffffffffffffffffffffffffffffffffffffff16021790555062000219565b8280546200011290620001b4565b90600052602060002090601f01602090048101928262000136576000855562000182565b82601f106200015157805160ff191683800117855562000182565b8280016001018555821562000182579182015b828111156200018157825182559160200191906001019062000164565b5b50905062000191919062000195565b5090565b5b80821115620001b057600081600090555060010162000196565b5090565b60006002820490506001821680620001cd57607f821691505b60208210811415620001e457620001e3620001ea565b5b50919050565b7f4e487b7100000000000000000000000000000000000000000000000000000000600052602260045260246000fd5b61453a80620002296000396000f3fe6080604052600436106101665760003560e01c806395bd9569116100d1578063ae677aa31161008a578063d15b4f1311610064578063d15b4f131461054d578063d193535d14610578578063e219fc7514610594578063e985e9c5146105b057610166565b8063ae677aa3146104cb578063b88d4fde146104e7578063c87b56dd1461051057610166565b806395bd9569146103b457806395d89b41146103e4578063a22cb4651461040f578063a5cd761f14610438578063a7683a7114610475578063ad6fa0a4146104a057610166565b806323b872dd1161012357806323b872dd1461028d57806342842e0e146102b65780636352211e146102df57806370a082311461031c57806372b3b62014610359578063893d20e81461038957610166565b806301ffc9a71461016b57806306fdde03146101a8578063081812fc146101d3578063095ea7b31461021057806312e85585146102395780631cc2ea7a14610264575b600080fd5b34801561017757600080fd5b50610192600480360381019061018d919061329e565b6105ed565b60405161019f9190613930565b60405180910390f35b3480156101b457600080fd5b506101bd6106cf565b6040516101ca919061394b565b60405180910390f35b3480156101df57600080fd5b506101fa60048036038101906101f59190613344565b610761565b6040516102079190613862565b60405180910390f35b34801561021c57600080fd5b5061023760048036038101906102329190613262565b6107e6565b005b34801561024557600080fd5b5061024e6108fe565b60405161025b9190613b8d565b60405180910390f35b34801561027057600080fd5b5061028b60048036038101906102869190613344565b610908565b005b34801561029957600080fd5b506102b460048036038101906102af919061315c565b6109fa565b005b3480156102c257600080fd5b506102dd60048036038101906102d8919061315c565b610a5a565b005b3480156102eb57600080fd5b5061030660048036038101906103019190613344565b610a7a565b6040516103139190613862565b60405180910390f35b34801561032857600080fd5b50610343600480360381019061033e91906130f7565b610b2c565b6040516103509190613b8d565b60405180910390f35b610373600480360381019061036e91906132f0565b610be4565b6040516103809190613b8d565b60405180910390f35b34801561039557600080fd5b5061039e610c26565b6040516103ab9190613862565b60405180910390f35b6103ce60048036038101906103c9919061336d565b610c50565b6040516103db9190613b8d565b60405180910390f35b3480156103f057600080fd5b506103f9610c73565b604051610406919061394b565b60405180910390f35b34801561041b57600080fd5b5061043660048036038101906104319190613226565b610d05565b005b34801561044457600080fd5b5061045f600480360381019061045a9190613344565b610d1b565b60405161046c9190613862565b60405180910390f35b34801561048157600080fd5b5061048a610d5b565b604051610497919061390e565b60405180910390f35b3480156104ac57600080fd5b506104b5610fd3565b6040516104c2919061390e565b60405180910390f35b6104e560048036038101906104e09190613344565b61124b565b005b3480156104f357600080fd5b5061050e600480360381019061050991906131ab565b6112de565b005b34801561051c57600080fd5b5061053760048036038101906105329190613344565b611340565b604051610544919061394b565b60405180910390f35b34801561055957600080fd5b50610562611492565b60405161056f919061390e565b60405180910390f35b610592600480360381019061058d9190613344565b611726565b005b6105ae60048036038101906105a991906133d4565b61195e565b005b3480156105bc57600080fd5b506105d760048036038101906105d29190613120565b611b7d565b6040516105e49190613930565b60405180910390f35b60007f80ac58cd000000000000000000000000000000000000000000000000000000007bffffffffffffffffffffffffffffffffffffffffffffffffffffffff1916827bffffffffffffffffffffffffffffffffffffffffffffffffffffffff191614806106b857507f5b5e139f000000000000000000000000000000000000000000000000000000007bffffffffffffffffffffffffffffffffffffffffffffffffffffffff1916827bffffffffffffffffffffffffffffffffffffffffffffffffffffffff1916145b806106c857506106c782611c11565b5b9050919050565b6060600080546106de90613e57565b80601f016020809104026020016040519081016040528092919081815260200182805461070a90613e57565b80156107575780601f1061072c57610100808354040283529160200191610757565b820191906000526020600020905b81548152906001019060200180831161073a57829003601f168201915b5050505050905090565b600061076c82611c7b565b6107ab576040517f08c379a00000000000000000000000000000000000000000000000000000000081526004016107a290613b0d565b60405180910390fd5b6004600083815260200190815260200160002060009054906101000a900473ffffffffffffffffffffffffffffffffffffffff169050919050565b60006107f182610a7a565b90508073ffffffffffffffffffffffffffffffffffffffff168373ffffffffffffffffffffffffffffffffffffffff161415610862576040517f08c379a000000000000000000000000000000000000000000000000000000000815260040161085990613b4d565b60405180910390fd5b8073ffffffffffffffffffffffffffffffffffffffff16610881611ce7565b73ffffffffffffffffffffffffffffffffffffffff1614806108b057506108af816108aa611ce7565b611b7d565b5b6108ef576040517f08c379a00000000000000000000000000000000000000000000000000000000081526004016108e690613a4d565b60405180910390fd5b6108f98383611cef565b505050565b6000600954905090565b33600b600083815260200190815260200160002060020160006101000a81548173ffffffffffffffffffffffffffffffffffffffff021916908373ffffffffffffffffffffffffffffffffffffffff1602179055506000600b600083815260200190815260200160002060010160006101000a81548173ffffffffffffffffffffffffffffffffffffffff021916908373ffffffffffffffffffffffffffffffffffffffff1602179055506001600b600083815260200190815260200160002060040160006101000a81548160ff0219169083151502179055506109ec6008611da8565b6109f7303383611dbe565b50565b610a0b610a05611ce7565b82612025565b610a4a576040517f08c379a0000000000000000000000000000000000000000000000000000000008152600401610a4190613b6d565b60405180910390fd5b610a55838383611dbe565b505050565b610a75838383604051806020016040528060008152506112de565b505050565b6000806002600084815260200190815260200160002060009054906101000a900473ffffffffffffffffffffffffffffffffffffffff169050600073ffffffffffffffffffffffffffffffffffffffff168173ffffffffffffffffffffffffffffffffffffffff161415610b23576040517f08c379a0000000000000000000000000000000000000000000000000000000008152600401610b1a90613a8d565b60405180910390fd5b80915050919050565b60008073ffffffffffffffffffffffffffffffffffffffff168273ffffffffffffffffffffffffffffffffffffffff161415610b9d576040517f08c379a0000000000000000000000000000000000000000000000000000000008152600401610b9490613a6d565b60405180910390fd5b600360008373ffffffffffffffffffffffffffffffffffffffff1673ffffffffffffffffffffffffffffffffffffffff168152602001908152602001600020549050919050565b6000610bf06007611da8565b6000610bfc6007612103565b9050610c083382612111565b610c1281856122eb565b610c1c818461235f565b8091505092915050565b6000600a60009054906101000a900473ffffffffffffffffffffffffffffffffffffffff16905090565b600080610c5d8484610be4565b9050610c6885612552565b809150509392505050565b606060018054610c8290613e57565b80601f0160208091040260200160405190810160405280929190818152602001828054610cae90613e57565b8015610cfb5780601f10610cd057610100808354040283529160200191610cfb565b820191906000526020600020905b815481529060010190602001808311610cde57829003601f168201915b5050505050905090565b610d17610d10611ce7565b83836125a5565b5050565b6000600b600083815260200190815260200160002060020160009054906101000a900473ffffffffffffffffffffffffffffffffffffffff169050919050565b60606000610d696007612103565b9050600080610d76612712565b67ffffffffffffffff811115610db5577f4e487b7100000000000000000000000000000000000000000000000000000000600052604160045260246000fd5b604051908082528060200260200182016040528015610dee57816020015b610ddb612e7e565b815260200190600190039081610dd35790505b5090506000600190505b838111610fc9573373ffffffffffffffffffffffffffffffffffffffff16600b600083815260200190815260200160002060010160009054906101000a900473ffffffffffffffffffffffffffffffffffffffff1673ffffffffffffffffffffffffffffffffffffffff161415610fb657600b60008281526020019081526020016000206040518060a0016040529081600082015481526020016001820160009054906101000a900473ffffffffffffffffffffffffffffffffffffffff1673ffffffffffffffffffffffffffffffffffffffff1673ffffffffffffffffffffffffffffffffffffffff1681526020016002820160009054906101000a900473ffffffffffffffffffffffffffffffffffffffff1673ffffffffffffffffffffffffffffffffffffffff1673ffffffffffffffffffffffffffffffffffffffff168152602001600382015481526020016004820160009054906101000a900460ff161515151581525050828481518110610f9b577f4e487b7100000000000000000000000000000000000000000000000000000000600052603260045260246000fd5b6020026020010181905250600183610fb39190613cd4565b92505b8080610fc190613eba565b915050610df8565b5080935050505090565b60606000610fe16007612103565b9050600080610fee6127c6565b67ffffffffffffffff81111561102d577f4e487b7100000000000000000000000000000000000000000000000000000000600052604160045260246000fd5b60405190808252806020026020018201604052801561106657816020015b611053612e7e565b81526020019060019003908161104b5790505b5090506000600190505b838111611241573373ffffffffffffffffffffffffffffffffffffffff16600b600083815260200190815260200160002060020160009054906101000a900473ffffffffffffffffffffffffffffffffffffffff1673ffffffffffffffffffffffffffffffffffffffff16141561122e57600b60008281526020019081526020016000206040518060a0016040529081600082015481526020016001820160009054906101000a900473ffffffffffffffffffffffffffffffffffffffff1673ffffffffffffffffffffffffffffffffffffffff1673ffffffffffffffffffffffffffffffffffffffff1681526020016002820160009054906101000a900473ffffffffffffffffffffffffffffffffffffffff1673ffffffffffffffffffffffffffffffffffffffff1673ffffffffffffffffffffffffffffffffffffffff168152602001600382015481526020016004820160009054906101000a900460ff161515151581525050828481518110611213577f4e487b7100000000000000000000000000000000000000000000000000000000600052603260045260246000fd5b602002602001018190525060018361122b9190613cd4565b92505b808061123990613eba565b915050611070565b5080935050505090565b338073ffffffffffffffffffffffffffffffffffffffff16600a60009054906101000a900473ffffffffffffffffffffffffffffffffffffffff1673ffffffffffffffffffffffffffffffffffffffff16146112d3576040517f0713223200000000000000000000000000000000000000000000000000000000815260040160405180910390fd5b816009819055505050565b6112ef6112e9611ce7565b83612025565b61132e576040517f08c379a000000000000000000000000000000000000000000000000000000000815260040161132590613b6d565b60405180910390fd5b61133a8484848461287a565b50505050565b606061134b82611c7b565b61138a576040517f08c379a000000000000000000000000000000000000000000000000000000000815260040161138190613aed565b60405180910390fd5b60006006600084815260200190815260200160002080546113aa90613e57565b80601f01602080910402602001604051908101604052809291908181526020018280546113d690613e57565b80156114235780601f106113f857610100808354040283529160200191611423565b820191906000526020600020905b81548152906001019060200180831161140657829003601f168201915b5050505050905060006114346128d6565b905060008151141561144a57819250505061148d565b60008251111561147f57808260405160200161146792919061383e565b6040516020818303038152906040529250505061148d565b611488846128ed565b925050505b919050565b606060006114a06007612103565b905060006114ae6008612103565b6114b86007612103565b6114c29190613d5b565b90506000808267ffffffffffffffff811115611507577f4e487b7100000000000000000000000000000000000000000000000000000000600052604160045260246000fd5b60405190808252806020026020018201604052801561154057816020015b61152d612e7e565b8152602001906001900390816115255790505b5090506000600190505b84811161171b573073ffffffffffffffffffffffffffffffffffffffff16600b600083815260200190815260200160002060020160009054906101000a900473ffffffffffffffffffffffffffffffffffffffff1673ffffffffffffffffffffffffffffffffffffffff16141561170857600b60008281526020019081526020016000206040518060a0016040529081600082015481526020016001820160009054906101000a900473ffffffffffffffffffffffffffffffffffffffff1673ffffffffffffffffffffffffffffffffffffffff1673ffffffffffffffffffffffffffffffffffffffff1681526020016002820160009054906101000a900473ffffffffffffffffffffffffffffffffffffffff1673ffffffffffffffffffffffffffffffffffffffff1673ffffffffffffffffffffffffffffffffffffffff168152602001600382015481526020016004820160009054906101000a900460ff1615151515815250508284815181106116ed577f4e487b7100000000000000000000000000000000000000000000000000000000600052603260045260246000fd5b60200260200101819052506001836117059190613cd4565b92505b808061171390613eba565b91505061154a565b508094505050505090565b600b6000828152602001908152602001600020600301548034146117835734816040517f4da4bab100000000000000000000000000000000000000000000000000000000815260040161177a929190613ba8565b60405180910390fd5b600b600083815260200190815260200160002060010160009054906101000a900473ffffffffffffffffffffffffffffffffffffffff1673ffffffffffffffffffffffffffffffffffffffff166108fc349081150290604051600060405180830381858888f193505050501580156117ff573d6000803e3d6000fd5b50600a60009054906101000a900473ffffffffffffffffffffffffffffffffffffffff1673ffffffffffffffffffffffffffffffffffffffff166108fc6009549081150290604051600060405180830381858888f1935050505015801561186a573d6000803e3d6000fd5b50611876303384611dbe565b33600b600084815260200190815260200160002060020160006101000a81548173ffffffffffffffffffffffffffffffffffffffff021916908373ffffffffffffffffffffffffffffffffffffffff1602179055506000600b600084815260200190815260200160002060010160006101000a81548173ffffffffffffffffffffffffffffffffffffffff021916908373ffffffffffffffffffffffffffffffffffffffff1602179055506001600b600084815260200190815260200160002060040160006101000a81548160ff02191690831515021790555061195a6008611da8565b5050565b8060008111611999576040517fbff7dcf800000000000000000000000000000000000000000000000000000000815260040160405180910390fd5b60095434146119d4576040517fce9f55b900000000000000000000000000000000000000000000000000000000815260040160405180910390fd5b3373ffffffffffffffffffffffffffffffffffffffff16600b600085815260200190815260200160002060020160009054906101000a900473ffffffffffffffffffffffffffffffffffffffff1673ffffffffffffffffffffffffffffffffffffffff1614611a6f576040517f0713223200000000000000000000000000000000000000000000000000000000815260040160405180910390fd5b81600b60008581526020019081526020016000206003018190555033600b600085815260200190815260200160002060010160006101000a81548173ffffffffffffffffffffffffffffffffffffffff021916908373ffffffffffffffffffffffffffffffffffffffff16021790555030600b600085815260200190815260200160002060020160006101000a81548173ffffffffffffffffffffffffffffffffffffffff021916908373ffffffffffffffffffffffffffffffffffffffff1602179055506000600b600085815260200190815260200160002060040160006101000a81548160ff021916908315150217905550611b6d6008612994565b611b78333085611dbe565b505050565b6000600560008473ffffffffffffffffffffffffffffffffffffffff1673ffffffffffffffffffffffffffffffffffffffff16815260200190815260200160002060008373ffffffffffffffffffffffffffffffffffffffff1673ffffffffffffffffffffffffffffffffffffffff16815260200190815260200160002060009054906101000a900460ff16905092915050565b60007f01ffc9a7000000000000000000000000000000000000000000000000000000007bffffffffffffffffffffffffffffffffffffffffffffffffffffffff1916827bffffffffffffffffffffffffffffffffffffffffffffffffffffffff1916149050919050565b60008073ffffffffffffffffffffffffffffffffffffffff166002600084815260200190815260200160002060009054906101000a900473ffffffffffffffffffffffffffffffffffffffff1673ffffffffffffffffffffffffffffffffffffffff1614159050919050565b600033905090565b816004600083815260200190815260200160002060006101000a81548173ffffffffffffffffffffffffffffffffffffffff021916908373ffffffffffffffffffffffffffffffffffffffff160217905550808273ffffffffffffffffffffffffffffffffffffffff16611d6283610a7a565b73ffffffffffffffffffffffffffffffffffffffff167f8c5be1e5ebec7d5bd14f71427d1e84f3dd0314c0f7b2291e5b200ac8c7c3b92560405160405180910390a45050565b6001816000016000828254019250508190555050565b8273ffffffffffffffffffffffffffffffffffffffff16611dde82610a7a565b73ffffffffffffffffffffffffffffffffffffffff1614611e34576040517f08c379a0000000000000000000000000000000000000000000000000000000008152600401611e2b906139ad565b60405180910390fd5b600073ffffffffffffffffffffffffffffffffffffffff168273ffffffffffffffffffffffffffffffffffffffff161415611ea4576040517f08c379a0000000000000000000000000000000000000000000000000000000008152600401611e9b906139ed565b60405180910390fd5b611eaf8383836129f0565b611eba600082611cef565b6001600360008573ffffffffffffffffffffffffffffffffffffffff1673ffffffffffffffffffffffffffffffffffffffff1681526020019081526020016000206000828254611f0a9190613d5b565b925050819055506001600360008473ffffffffffffffffffffffffffffffffffffffff1673ffffffffffffffffffffffffffffffffffffffff1681526020019081526020016000206000828254611f619190613cd4565b92505081905550816002600083815260200190815260200160002060006101000a81548173ffffffffffffffffffffffffffffffffffffffff021916908373ffffffffffffffffffffffffffffffffffffffff160217905550808273ffffffffffffffffffffffffffffffffffffffff168473ffffffffffffffffffffffffffffffffffffffff167fddf252ad1be2c89b69c2b068fc378daa952ba7f163c4a11628f55a4df523b3ef60405160405180910390a46120208383836129f5565b505050565b600061203082611c7b565b61206f576040517f08c379a000000000000000000000000000000000000000000000000000000000815260040161206690613a2d565b60405180910390fd5b600061207a83610a7a565b90508073ffffffffffffffffffffffffffffffffffffffff168473ffffffffffffffffffffffffffffffffffffffff1614806120e957508373ffffffffffffffffffffffffffffffffffffffff166120d184610761565b73ffffffffffffffffffffffffffffffffffffffff16145b806120fa57506120f98185611b7d565b5b91505092915050565b600081600001549050919050565b600073ffffffffffffffffffffffffffffffffffffffff168273ffffffffffffffffffffffffffffffffffffffff161415612181576040517f08c379a000000000000000000000000000000000000000000000000000000000815260040161217890613acd565b60405180910390fd5b61218a81611c7b565b156121ca576040517f08c379a00000000000000000000000000000000000000000000000000000000081526004016121c1906139cd565b60405180910390fd5b6121d6600083836129f0565b6001600360008473ffffffffffffffffffffffffffffffffffffffff1673ffffffffffffffffffffffffffffffffffffffff16815260200190815260200160002060008282546122269190613cd4565b92505081905550816002600083815260200190815260200160002060006101000a81548173ffffffffffffffffffffffffffffffffffffffff021916908373ffffffffffffffffffffffffffffffffffffffff160217905550808273ffffffffffffffffffffffffffffffffffffffff16600073ffffffffffffffffffffffffffffffffffffffff167fddf252ad1be2c89b69c2b068fc378daa952ba7f163c4a11628f55a4df523b3ef60405160405180910390a46122e7600083836129f5565b5050565b6122f482611c7b565b612333576040517f08c379a000000000000000000000000000000000000000000000000000000000815260040161232a90613aad565b60405180910390fd5b8060066000848152602001908152602001600020908051906020019061235a929190612edb565b505050565b806000811161239a576040517fbff7dcf800000000000000000000000000000000000000000000000000000000815260040160405180910390fd5b60095434146123d5576040517fce9f55b900000000000000000000000000000000000000000000000000000000815260040160405180910390fd5b6040518060a001604052808481526020013373ffffffffffffffffffffffffffffffffffffffff1681526020013073ffffffffffffffffffffffffffffffffffffffff16815260200183815260200160001515815250600b60008581526020019081526020016000206000820151816000015560208201518160010160006101000a81548173ffffffffffffffffffffffffffffffffffffffff021916908373ffffffffffffffffffffffffffffffffffffffff16021790555060408201518160020160006101000a81548173ffffffffffffffffffffffffffffffffffffffff021916908373ffffffffffffffffffffffffffffffffffffffff1602179055506060820151816003015560808201518160040160006101000a81548160ff02191690831515021790555090505061250e333085611dbe565b827fdeb96ac264826584ed864590b3f24bcb64ed3ce343c1e95abde59178508c66c13330856000604051612545949392919061387d565b60405180910390a2505050565b61255b816129fa565b600060066000838152602001908152602001600020805461257b90613e57565b9050146125a2576006600082815260200190815260200160002060006125a19190612f61565b5b50565b8173ffffffffffffffffffffffffffffffffffffffff168373ffffffffffffffffffffffffffffffffffffffff161415612614576040517f08c379a000000000000000000000000000000000000000000000000000000000815260040161260b90613a0d565b60405180910390fd5b80600560008573ffffffffffffffffffffffffffffffffffffffff1673ffffffffffffffffffffffffffffffffffffffff16815260200190815260200160002060008473ffffffffffffffffffffffffffffffffffffffff1673ffffffffffffffffffffffffffffffffffffffff16815260200190815260200160002060006101000a81548160ff0219169083151502179055508173ffffffffffffffffffffffffffffffffffffffff168373ffffffffffffffffffffffffffffffffffffffff167f17307eab39ab6107e8899845ad3d59bd9653f200f220920489ca2b5937696c31836040516127059190613930565b60405180910390a3505050565b60008061271f6007612103565b9050600080600190505b8281116127bd573373ffffffffffffffffffffffffffffffffffffffff16600b600083815260200190815260200160002060010160009054906101000a900473ffffffffffffffffffffffffffffffffffffffff1673ffffffffffffffffffffffffffffffffffffffff1614156127aa576001826127a79190613cd4565b91505b80806127b590613eba565b915050612729565b50809250505090565b6000806127d36007612103565b9050600080600190505b828111612871573373ffffffffffffffffffffffffffffffffffffffff16600b600083815260200190815260200160002060020160009054906101000a900473ffffffffffffffffffffffffffffffffffffffff1673ffffffffffffffffffffffffffffffffffffffff16141561285e5760018261285b9190613cd4565b91505b808061286990613eba565b9150506127dd565b50809250505090565b612885848484611dbe565b61289184848484612b17565b6128d0576040517f08c379a00000000000000000000000000000000000000000000000000000000081526004016128c79061398d565b60405180910390fd5b50505050565b606060405180602001604052806000815250905090565b60606128f882611c7b565b612937576040517f08c379a000000000000000000000000000000000000000000000000000000000815260040161292e90613b2d565b60405180910390fd5b60006129416128d6565b90506000815111612961576040518060200160405280600081525061298c565b8061296b84612cae565b60405160200161297c92919061383e565b6040516020818303038152906040525b915050919050565b600081600001549050600081116129e0576040517f08c379a00000000000000000000000000000000000000000000000000000000081526004016129d79061396d565b60405180910390fd5b6001810382600001819055505050565b505050565b505050565b6000612a0582610a7a565b9050612a13816000846129f0565b612a1e600083611cef565b6001600360008373ffffffffffffffffffffffffffffffffffffffff1673ffffffffffffffffffffffffffffffffffffffff1681526020019081526020016000206000828254612a6e9190613d5b565b925050819055506002600083815260200190815260200160002060006101000a81549073ffffffffffffffffffffffffffffffffffffffff021916905581600073ffffffffffffffffffffffffffffffffffffffff168273ffffffffffffffffffffffffffffffffffffffff167fddf252ad1be2c89b69c2b068fc378daa952ba7f163c4a11628f55a4df523b3ef60405160405180910390a4612b13816000846129f5565b5050565b6000612b388473ffffffffffffffffffffffffffffffffffffffff16612e5b565b15612ca1578373ffffffffffffffffffffffffffffffffffffffff1663150b7a02612b61611ce7565b8786866040518563ffffffff1660e01b8152600401612b8394939291906138c2565b602060405180830381600087803b158015612b9d57600080fd5b505af1925050508015612bce57506040513d601f19601f82011682018060405250810190612bcb91906132c7565b60015b612c51573d8060008114612bfe576040519150601f19603f3d011682016040523d82523d6000602084013e612c03565b606091505b50600081511415612c49576040517f08c379a0000000000000000000000000000000000000000000000000000000008152600401612c409061398d565b60405180910390fd5b805181602001fd5b63150b7a0260e01b7bffffffffffffffffffffffffffffffffffffffffffffffffffffffff1916817bffffffffffffffffffffffffffffffffffffffffffffffffffffffff191614915050612ca6565b600190505b949350505050565b60606000821415612cf6576040518060400160405280600181526020017f30000000000000000000000000000000000000000000000000000000000000008152509050612e56565b600082905060005b60008214612d28578080612d1190613eba565b915050600a82612d219190613d2a565b9150612cfe565b60008167ffffffffffffffff811115612d6a577f4e487b7100000000000000000000000000000000000000000000000000000000600052604160045260246000fd5b6040519080825280601f01601f191660200182016040528015612d9c5781602001600182028036833780820191505090505b5090505b60008514612e4f57600182612db59190613d5b565b9150600a85612dc49190613f03565b6030612dd09190613cd4565b60f81b818381518110612e0c577f4e487b7100000000000000000000000000000000000000000000000000000000600052603260045260246000fd5b60200101907effffffffffffffffffffffffffffffffffffffffffffffffffffffffffffff1916908160001a905350600a85612e489190613d2a565b9450612da0565b8093505050505b919050565b6000808273ffffffffffffffffffffffffffffffffffffffff163b119050919050565b6040518060a0016040528060008152602001600073ffffffffffffffffffffffffffffffffffffffff168152602001600073ffffffffffffffffffffffffffffffffffffffff168152602001600081526020016000151581525090565b828054612ee790613e57565b90600052602060002090601f016020900481019282612f095760008555612f50565b82601f10612f2257805160ff1916838001178555612f50565b82800160010185558215612f50579182015b82811115612f4f578251825591602001919060010190612f34565b5b509050612f5d9190612fa1565b5090565b508054612f6d90613e57565b6000825580601f10612f7f5750612f9e565b601f016020900490600052602060002090810190612f9d9190612fa1565b5b50565b5b80821115612fba576000816000905550600101612fa2565b5090565b6000612fd1612fcc84613bf6565b613bd1565b905082815260208101848484011115612fe957600080fd5b612ff4848285613e15565b509392505050565b600061300f61300a84613c27565b613bd1565b90508281526020810184848401111561302757600080fd5b613032848285613e15565b509392505050565b600081359050613049816144a8565b92915050565b60008135905061305e816144bf565b92915050565b600081359050613073816144d6565b92915050565b600081519050613088816144d6565b92915050565b600082601f83011261309f57600080fd5b81356130af848260208601612fbe565b91505092915050565b600082601f8301126130c957600080fd5b81356130d9848260208601612ffc565b91505092915050565b6000813590506130f1816144ed565b92915050565b60006020828403121561310957600080fd5b60006131178482850161303a565b91505092915050565b6000806040838503121561313357600080fd5b60006131418582860161303a565b92505060206131528582860161303a565b9150509250929050565b60008060006060848603121561317157600080fd5b600061317f8682870161303a565b93505060206131908682870161303a565b92505060406131a1868287016130e2565b9150509250925092565b600080600080608085870312156131c157600080fd5b60006131cf8782880161303a565b94505060206131e08782880161303a565b93505060406131f1878288016130e2565b925050606085013567ffffffffffffffff81111561320e57600080fd5b61321a8782880161308e565b91505092959194509250565b6000806040838503121561323957600080fd5b60006132478582860161303a565b92505060206132588582860161304f565b9150509250929050565b6000806040838503121561327557600080fd5b60006132838582860161303a565b9250506020613294858286016130e2565b9150509250929050565b6000602082840312156132b057600080fd5b60006132be84828501613064565b91505092915050565b6000602082840312156132d957600080fd5b60006132e784828501613079565b91505092915050565b6000806040838503121561330357600080fd5b600083013567ffffffffffffffff81111561331d57600080fd5b613329858286016130b8565b925050602061333a858286016130e2565b9150509250929050565b60006020828403121561335657600080fd5b6000613364848285016130e2565b91505092915050565b60008060006060848603121561338257600080fd5b6000613390868287016130e2565b935050602084013567ffffffffffffffff8111156133ad57600080fd5b6133b9868287016130b8565b92505060406133ca868287016130e2565b9150509250925092565b600080604083850312156133e757600080fd5b60006133f5858286016130e2565b9250506020613406858286016130e2565b9150509250929050565b600061341c83836137b8565b60a08301905092915050565b61343181613da1565b82525050565b61344081613d8f565b82525050565b600061345182613c68565b61345b8185613c96565b935061346683613c58565b8060005b8381101561349757815161347e8882613410565b975061348983613c89565b92505060018101905061346a565b5085935050505092915050565b6134ad81613db3565b82525050565b6134bc81613db3565b82525050565b60006134cd82613c73565b6134d78185613ca7565b93506134e7818560208601613e24565b6134f081613ff0565b840191505092915050565b600061350682613c7e565b6135108185613cb8565b9350613520818560208601613e24565b61352981613ff0565b840191505092915050565b600061353f82613c7e565b6135498185613cc9565b9350613559818560208601613e24565b80840191505092915050565b6000613572601b83613cb8565b915061357d82614001565b602082019050919050565b6000613595603283613cb8565b91506135a08261402a565b604082019050919050565b60006135b8602583613cb8565b91506135c382614079565b604082019050919050565b60006135db601c83613cb8565b91506135e6826140c8565b602082019050919050565b60006135fe602483613cb8565b9150613609826140f1565b604082019050919050565b6000613621601983613cb8565b915061362c82614140565b602082019050919050565b6000613644602c83613cb8565b915061364f82614169565b604082019050919050565b6000613667603883613cb8565b9150613672826141b8565b604082019050919050565b600061368a602a83613cb8565b915061369582614207565b604082019050919050565b60006136ad602983613cb8565b91506136b882614256565b604082019050919050565b60006136d0602e83613cb8565b91506136db826142a5565b604082019050919050565b60006136f3602083613cb8565b91506136fe826142f4565b602082019050919050565b6000613716603183613cb8565b91506137218261431d565b604082019050919050565b6000613739602c83613cb8565b91506137448261436c565b604082019050919050565b600061375c602f83613cb8565b9150613767826143bb565b604082019050919050565b600061377f602183613cb8565b915061378a8261440a565b604082019050919050565b60006137a2603183613cb8565b91506137ad82614459565b604082019050919050565b60a0820160008201516137ce6000850182613820565b5060208201516137e16020850182613428565b5060408201516137f46040850182613428565b5060608201516138076060850182613820565b50608082015161381a60808501826134a4565b50505050565b61382981613e0b565b82525050565b61383881613e0b565b82525050565b600061384a8285613534565b91506138568284613534565b91508190509392505050565b60006020820190506138776000830184613437565b92915050565b60006080820190506138926000830187613437565b61389f6020830186613437565b6138ac604083018561382f565b6138b960608301846134b3565b95945050505050565b60006080820190506138d76000830187613437565b6138e46020830186613437565b6138f1604083018561382f565b818103606083015261390381846134c2565b905095945050505050565b600060208201905081810360008301526139288184613446565b905092915050565b600060208201905061394560008301846134b3565b92915050565b6000602082019050818103600083015261396581846134fb565b905092915050565b6000602082019050818103600083015261398681613565565b9050919050565b600060208201905081810360008301526139a681613588565b9050919050565b600060208201905081810360008301526139c6816135ab565b9050919050565b600060208201905081810360008301526139e6816135ce565b9050919050565b60006020820190508181036000830152613a06816135f1565b9050919050565b60006020820190508181036000830152613a2681613614565b9050919050565b60006020820190508181036000830152613a4681613637565b9050919050565b60006020820190508181036000830152613a668161365a565b9050919050565b60006020820190508181036000830152613a868161367d565b9050919050565b60006020820190508181036000830152613aa6816136a0565b9050919050565b60006020820190508181036000830152613ac6816136c3565b9050919050565b60006020820190508181036000830152613ae6816136e6565b9050919050565b60006020820190508181036000830152613b0681613709565b9050919050565b60006020820190508181036000830152613b268161372c565b9050919050565b60006020820190508181036000830152613b468161374f565b9050919050565b60006020820190508181036000830152613b6681613772565b9050919050565b60006020820190508181036000830152613b8681613795565b9050919050565b6000602082019050613ba2600083018461382f565b92915050565b6000604082019050613bbd600083018561382f565b613bca602083018461382f565b9392505050565b6000613bdb613bec565b9050613be78282613e89565b919050565b6000604051905090565b600067ffffffffffffffff821115613c1157613c10613fc1565b5b613c1a82613ff0565b9050602081019050919050565b600067ffffffffffffffff821115613c4257613c41613fc1565b5b613c4b82613ff0565b9050602081019050919050565b6000819050602082019050919050565b600081519050919050565b600081519050919050565b600081519050919050565b6000602082019050919050565b600082825260208201905092915050565b600082825260208201905092915050565b600082825260208201905092915050565b600081905092915050565b6000613cdf82613e0b565b9150613cea83613e0b565b9250827fffffffffffffffffffffffffffffffffffffffffffffffffffffffffffffffff03821115613d1f57613d1e613f34565b5b828201905092915050565b6000613d3582613e0b565b9150613d4083613e0b565b925082613d5057613d4f613f63565b5b828204905092915050565b6000613d6682613e0b565b9150613d7183613e0b565b925082821015613d8457613d83613f34565b5b828203905092915050565b6000613d9a82613deb565b9050919050565b6000613dac82613deb565b9050919050565b60008115159050919050565b60007fffffffff0000000000000000000000000000000000000000000000000000000082169050919050565b600073ffffffffffffffffffffffffffffffffffffffff82169050919050565b6000819050919050565b82818337600083830152505050565b60005b83811015613e42578082015181840152602081019050613e27565b83811115613e51576000848401525b50505050565b60006002820490506001821680613e6f57607f821691505b60208210811415613e8357613e82613f92565b5b50919050565b613e9282613ff0565b810181811067ffffffffffffffff82111715613eb157613eb0613fc1565b5b80604052505050565b6000613ec582613e0b565b91507fffffffffffffffffffffffffffffffffffffffffffffffffffffffffffffffff821415613ef857613ef7613f34565b5b600182019050919050565b6000613f0e82613e0b565b9150613f1983613e0b565b925082613f2957613f28613f63565b5b828206905092915050565b7f4e487b7100000000000000000000000000000000000000000000000000000000600052601160045260246000fd5b7f4e487b7100000000000000000000000000000000000000000000000000000000600052601260045260246000fd5b7f4e487b7100000000000000000000000000000000000000000000000000000000600052602260045260246000fd5b7f4e487b7100000000000000000000000000000000000000000000000000000000600052604160045260246000fd5b6000601f19601f8301169050919050565b7f436f756e7465723a2064656372656d656e74206f766572666c6f770000000000600082015250565b7f4552433732313a207472616e7366657220746f206e6f6e20455243373231526560008201527f63656976657220696d706c656d656e7465720000000000000000000000000000602082015250565b7f4552433732313a207472616e736665722066726f6d20696e636f72726563742060008201527f6f776e6572000000000000000000000000000000000000000000000000000000602082015250565b7f4552433732313a20746f6b656e20616c7265616479206d696e74656400000000600082015250565b7f4552433732313a207472616e7366657220746f20746865207a65726f2061646460008201527f7265737300000000000000000000000000000000000000000000000000000000602082015250565b7f4552433732313a20617070726f766520746f2063616c6c657200000000000000600082015250565b7f4552433732313a206f70657261746f7220717565727920666f72206e6f6e657860008201527f697374656e7420746f6b656e0000000000000000000000000000000000000000602082015250565b7f4552433732313a20617070726f76652063616c6c6572206973206e6f74206f7760008201527f6e6572206e6f7220617070726f76656420666f7220616c6c0000000000000000602082015250565b7f4552433732313a2062616c616e636520717565727920666f7220746865207a6560008201527f726f206164647265737300000000000000000000000000000000000000000000602082015250565b7f4552433732313a206f776e657220717565727920666f72206e6f6e657869737460008201527f656e7420746f6b656e0000000000000000000000000000000000000000000000602082015250565b7f45524337323155524953746f726167653a2055524920736574206f66206e6f6e60008201527f6578697374656e7420746f6b656e000000000000000000000000000000000000602082015250565b7f4552433732313a206d696e7420746f20746865207a65726f2061646472657373600082015250565b7f45524337323155524953746f726167653a2055524920717565727920666f722060008201527f6e6f6e6578697374656e7420746f6b656e000000000000000000000000000000602082015250565b7f4552433732313a20617070726f76656420717565727920666f72206e6f6e657860008201527f697374656e7420746f6b656e0000000000000000000000000000000000000000602082015250565b7f4552433732314d657461646174613a2055524920717565727920666f72206e6f60008201527f6e6578697374656e7420746f6b656e0000000000000000000000000000000000602082015250565b7f4552433732313a20617070726f76616c20746f2063757272656e74206f776e6560008201527f7200000000000000000000000000000000000000000000000000000000000000602082015250565b7f4552433732313a207472616e736665722063616c6c6572206973206e6f74206f60008201527f776e6572206e6f7220617070726f766564000000000000000000000000000000602082015250565b6144b181613d8f565b81146144bc57600080fd5b50565b6144c881613db3565b81146144d357600080fd5b50565b6144df81613dbf565b81146144ea57600080fd5b50565b6144f681613e0b565b811461450157600080fd5b5056fea2646970667358221220c13eba0abedc24f2726955e49a1028dc7730e76334d03e0c722b0798f67cad1764736f6c63430008040033",
  "linkReferences": {},
  "deployedLinkReferences": {}
}